:020000040800F2
:1000000000C00020FD690008613000086D30000864
:1000100073300008793000087F30000800000000CD
:100020000000000000000000000000008530000813
:100030009D30000800000000A93000089130000841
:10004000456A0008456A0008456A0008456A0008D4
:10005000456A0008456A0008456A0008456A0008C4
:10006000456A0008456A0008456A0008B53000087E
:100070003531000865310008456A0008456A000806
:10008000456A0008456A0008456A0008456A000894
:10009000456A0008456A0008456A0008456A000884
:1000A000456A0008456A0008456A0008456A000874
:1000B000456A0008456A0008456A0008456A000864
:1000C000456A0008456A0008456A0008456A000854
:1000D000456A0008456A0008456A0008456A000844
:1000E000456A0008456A0008456A0008456A000834
:1000F000456A00088531000800000000000000008B
:10010000000000000000000000000000456A000838
:10011000456A0008456A0008D1310008456A0008B0
:10012000456A0008456A0008456A0008456A0008F3
:10013000456A00080000000000000000456A000851
:10014000456A0008456A0008456A0008456A0008D3
:10015000456A0008456A000800000000456A00087A
:10016000456A0008456A0008000000000000000021
:10017000000000000000000000000000000000007F
:1001800000000000456A0008456A0008456A00084A
:10019000000000000000000000000000000000005F
:1001A000000000000000000000000000000000004F
:1001B0000000000000000000456A00080000000088
:1001C000000000000000000000000000000000002F
:1001D000000000000000000000000000456A000868
:1001E00010B5054C237833B9044B13B10448AFF371
:1001F00000800123237010BD0800002000000000D3
:10020000246D000808B5034B1BB103490348AFF345
:10021000008008BD000000000C000020246D0008D4
:1002200081F0004102E000BF83F0004330B54FEAA7
:1002300041044FEA430594EA050F08BF90EA020F14
:100240001FBF54EA000C55EA020C7FEA645C7FEAA7
:10025000655C00F0E2804FEA5454D4EB5555B8BFCA
:100260006D420CDD2C4480EA020281EA030382EA3B
:10027000000083EA010180EA020281EA0303362DCD
:1002800088BF30BD11F0004F4FEA01314FF4801CA0
:100290004CEA113102D0404261EB410113F0004FB2
:1002A0004FEA03334CEA133302D0524263EB430369
:1002B00094EA050F00F0A780A4F10104D5F1200E07
:1002C0000DDB02FA0EFC22FA05F2801841F1000162
:1002D00003FA0EF2801843FA05F359410EE0A5F136
:1002E00020050EF1200E012A03FA0EFC28BF4CF067
:1002F000020C43FA05F3C01851EBE37101F000451D
:1003000007D54FF0000EDCF1000C7EEB00006EEB29
:100310000101B1F5801F1BD3B1F5001F0CD34908B3
:100320005FEA30004FEA3C0C04F101044FEA44520A
:1003300012F5800F80F09A80BCF1004F08BF5FEA91
:10034000500C50F1000041EB045141EA050130BD71
:100350005FEA4C0C404141EB0101013C28BFB1F583
:10036000801FE9D291F0000F04BF01460020B1FACE
:1003700081F308BF2033A3F10B03B3F120020CDAA1
:100380000C3208DD02F1140CC2F10C0201FA0CF07F
:1003900021FA02F10CE002F11402D8BFC2F1200CE4
:1003A00001FA02F120FA0CFCDCBF41EA0C0190409A
:1003B000E41AA2BF01EB0451294330BD6FEA0404E3
:1003C0001F3C1CDA0C340EDC04F11404C4F12002CE
:1003D00020FA04F001FA02F340EA030021FA04F3E0
:1003E00045EA030130BDC4F10C04C4F1200220FA37
:1003F00002F001FA04F340EA0300294630BD21FA75
:1004000004F0294630BD94F0000F83F4801306BF3A
:1004100081F480110134013D4EE77FEA645C18BF2E
:100420007FEA655C29D094EA050F08BF90EA020FC5
:1004300005D054EA000C04BF1946104630BD91EABD
:10044000030F1EBF0021002030BD5FEA545C05D1C0
:100450004000494128BF41F0004130BD14F58004FF
:100460003CBF01F5801130BD01F0004545F0FE4173
:1004700041F470014FF0000030BD7FEA645C1ABFA8
:10048000194610467FEA655C1CBF0B46024650EADF
:10049000013406BF52EA033591EA030F41F400210B
:1004A00030BD00BF90F0000F04BF0021704730B591
:1004B0004FF4806404F132044FF000054FF0000166
:1004C00050E700BF90F0000F04BF0021704730B527
:1004D0004FF4806404F1320410F0004548BF4042FC
:1004E0004FF000013EE700BF42004FEAE2014FEA51
:1004F00031014FEA02701FBF12F07F4393F07F4F2C
:1005000081F06051704732F07F4208BF704793F02E
:100510007F4F04BF41F40021704730B54FF4607441
:1005200001F0004521F000411CE700BF50EA010244
:1005300008BF704730B54FF000050AE050EA0102ED
:1005400008BF704730B511F0004502D5404261EB5D
:1005500041014FF4806404F132045FEA915C3FF49E
:10056000D8AE4FF003025FEADC0C18BF03325FEA3B
:10057000DC0C18BF033202EBDC02C2F1200300FAEC
:1005800003FC20FA02F001FA03FE40EA0E0021FA11
:1005900002F11444BDE600BF4FF0FF3C06E000BF8F
:1005A0004FF0010C02E000BF4FF0010C4DF804CDFC
:1005B0004FEA410C7FEA6C5C4FEA430C18BF7FEABC
:1005C0006C5C1BD001B050EA410C0CBF52EA430CEA
:1005D00091EA030F02BF90EA020F0020704710F16A
:1005E000000F91EA030F58BF994208BF90422CBFF9
:1005F000D8176FEAE37040F0010070474FEA410CF2
:100600007FEA6C5C02D150EA013C07D14FEA430C0F
:100610007FEA6C5CD6D152EA033CD3D05DF8040B80
:10062000704700BF8446104662468C4619466346B2
:1006300000E000BF01B5FFF7B7FF002848BF10F189
:10064000000F01BD4DF808EDFFF7F4FF0CBF0120CE
:1006500000205DF808FB00BF4DF808EDFFF7EAFF4A
:1006600034BF012000205DF808FB00BF4DF808ED05
:10067000FFF7E0FF94BF012000205DF808FB00BFFA
:100680004DF808EDFFF7CEFF94BF012000205DF884
:1006900008FB00BF4DF808EDFFF7C4FF34BF012091
:1006A00000205DF808FB00BF80F0004002E000BFC2
:1006B00081F0004142001FBF5FEA410392EA030F4D
:1006C0007FEA226C7FEA236C6AD04FEA1262D2EB97
:1006D0001363C1BFD218414048404140B8BF5B429C
:1006E000192B88BF704710F0004F40F4000020F035
:1006F0007F4018BF404211F0004F41F4000121F04B
:100700007F4118BF494292EA030F3FD0A2F1010294
:1007100041FA03FC10EB0C00C3F1200301FA03F1D2
:1007200000F0004302D5494260EB4000B0F5000FF5
:1007300013D3B0F1807F06D340084FEA310102F1B4
:100740000102FE2A51D2B1F1004F40EBC25008BF66
:1007500020F0010040EA03007047490040EB000030
:10076000013A28BFB0F5000FEDD2B0FA80FCACF131
:10077000080CB2EB0C0200FA0CF0AABF00EBC2505E
:1007800052421843BCBFD0401843704792F0000F4C
:1007900081F4000106BF80F400000132013BB5E79F
:1007A0004FEA41037FEA226C18BF7FEA236C21D015
:1007B00092EA030F04D092F0000F08BF084670477A
:1007C00090EA010F1CBF0020704712F07F4F04D148
:1007D000400028BF40F00040704712F100723CBF5B
:1007E00000F50000704700F0004343F0FE4040F485
:1007F000000070477FEA226216BF08467FEA236343
:100800000146420206BF5FEA412390EA010F40F42D
:10081000800070474FF0000304E000BF10F0004379
:1008200048BF40425FEA000C08BF704743F0964360
:1008300001464FF000001CE050EA010208BF70477B
:100840004FF000030AE000BF50EA010208BF704702
:1008500011F0004302D5404261EB41015FEA010C17
:1008600002BF84460146002043F0B64308BFA3F10F
:100870008053A3F50003BCFA8CF2083AA3EBC253F1
:1008800010DB01FA02FC634400FA02FCC2F1200210
:10089000BCF1004F20FA02F243EB020008BF20F047
:1008A0000100704702F1200201FA02FCC2F12002AD
:1008B00050EA4C0021FA02F243EB020008BF20EAA2
:1008C000DC7070474FF0FF0C1CEAD0521EBF1CEAD0
:1008D000D15392EA0C0F93EA0C0F6FD01A4480EABE
:1008E000010C400218BF5FEA41211ED04FF00063A7
:1008F00043EA501043EA5111A0FB01310CF00040D3
:10090000B1F5000F3EBF490041EAD3715B0040EAF8
:10091000010062F17F02FD2A1DD8B3F1004F40EBC8
:10092000C25008BF20F00100704790F0000F0CF09B
:10093000004C08BF49024CEA502040EA51207F3A5F
:10094000C2BFD2F1FF0340EAC250704740F400003A
:100950004FF00003013A5DDC12F1190FDCBF00F02B
:1009600000407047C2F10002410021FA02F1C2F1D9
:10097000200200FA02FC5FEA310040F1000053EA75
:100980004C0308BF20EADC70704792F0000F00F0C3
:10099000004C02BF400010F4000F013AF9D040EAC9
:1009A0000C0093F0000F01F0004C02BF490011F45D
:1009B000000F013BF9D041EA0C018FE70CEAD1535B
:1009C00092EA0C0F18BF93EA0C0F0AD030F0004CDB
:1009D00018BF31F0004CD8D180EA010000F000408F
:1009E000704790F0000F17BF90F0004F084691F04D
:1009F000000F91F0004F14D092EA0C0F01D1420287
:100A00000FD193EA0C0F03D14B0218BF084608D14F
:100A100080EA010000F0004040F0FE4040F4000099
:100A2000704740F0FE4040F4400070474FF0FF0C2C
:100A30001CEAD0521EBF1CEAD15392EA0C0F93EA73
:100A40000C0F69D0A2EB030280EA010C49024FEAC5
:100A5000402037D04FF0805343EA111143EA10137E
:100A60000CF000408B4238BF5B0042F17D024FF436
:100A7000000C8B4224BF5B1A40EA0C00B3EB510F11
:100A800024BFA3EB510340EA5C00B3EB910F24BFFA
:100A9000A3EB910340EA9C00B3EBD10F24BFA3EB7F
:100AA000D10340EADC001B0118BF5FEA1C1CE0D147
:100AB000FD2A3FF650AF8B4240EBC25008BF20F0FA
:100AC000010070470CF0004C4CEA50207F32C2BF4E
:100AD000D2F1FF0340EAC250704740F400004FF0EB
:100AE0000003013A37E792F0000F00F0004C02BF1C
:100AF000400010F4000F013AF9D040EA0C0093F0E6
:100B0000000F01F0004C02BF490011F4000F013B3F
:100B1000F9D041EA0C0195E70CEAD15392EA0C0FA7
:100B200008D142027FF47DAF93EA0C0F7FF470AFDF
:100B3000084676E793EA0C0F04D14B023FF44CAF22
:100B400008466EE730F0004C18BF31F0004CCAD1B7
:100B500030F000427FF45CAF31F000437FF43CAFF3
:100B60005FE700BF4FF0FF3C06E000BF4FF0010C15
:100B700002E000BF4FF0010C4DF804CD4FEA4002F7
:100B80004FEA41037FEA226C18BF7FEA236C11D041
:100B900001B052EA530C18BF90EA010F58BFB2EBF4
:100BA000030088BFC81738BF6FEAE17018BF40F074
:100BB000010070477FEA226C02D15FEA402C05D128
:100BC0007FEA236CE4D15FEA412CE1D05DF8040BAD
:100BD000704700BF844608466146FFE70FB5FFF740
:100BE000C9FF002848BF10F1000F0FBD4DF808EDF8
:100BF000FFF7F4FF0CBF012000205DF808FB00BFE9
:100C00004DF808EDFFF7EAFF34BF012000205DF842
:100C100008FB00BF4DF808EDFFF7E0FF94BF01208F
:100C200000205DF808FB00BF4DF808EDFFF7D2FF8C
:100C300094BF012000205DF808FB00BF4DF808EDCF
:100C4000FFF7C8FF34BF012000205DF808FB00BF9C
:100C50004FEA4002B2F1FE4F0FD34FF09E03B3EBC9
:100C600012620DD94FEA002343F0004310F0004F09
:100C700023FA02F018BF404270474FF0000070475F
:100C800012F1610F01D1420205D110F0004008BFFE
:100C90006FF0004070474FF00000704753B94AB9F9
:100CA000002908BF00281CBF4FF0FF314FF0FF3074
:100CB00000F074B9ADF1080C6DE904CE00F006F84F
:100CC000DDF804E0DDE9022304B070472DE9F047C8
:100CD000089E0D4604468846002B4DD18A42944614
:100CE00068D9B2FA82F252B101FA02F3C2F12001DC
:100CF00020FA01F10CFA02FC41EA030894404FEAA1
:100D00001C45210CB8FBF5FE1FFA8CF705FB1E8372
:100D100041EA03430EFB07F199420BD91CEB030395
:100D20000EF1FF3080F01E81994240F21B81AEF13E
:100D3000020E63445B1AA4B2B3FBF5F005FB10335B
:100D400044EA034400FB07F7A7420AD91CEB04045A
:100D500000F1FF3380F00881A74240F2058164442E
:100D60000238E41B40EA0E4000211EB1D4400023AB
:100D7000C6E90043BDE8F0878B4208D9002E00F099
:100D8000EE800021C6E900050846BDE8F087B3FA09
:100D900083F100294AD1AB4202D3824200F2F980AA
:100DA000841A65EB030301209846002EE2D0C6E9C1
:100DB0000048DFE702B9FFDEB2FA82F2002A40F013
:100DC0009180A1EB0C054FEA1C471FFA8CFE012114
:100DD000B5FBF7F307FB1350250C45EA00450EFB66
:100DE00003F0A84208D91CEB050503F1FF3802D235
:100DF000A84200F2CB8043462D1AA4B2B5FBF7F00F
:100E000007FB105544EA05440EFB00FEA64508D931
:100E10001CEB040400F1FF3502D2A64500F2BB80B2
:100E20002846A4EB0E0440EA03409EE7C1F12007E8
:100E30008B4022FA07FC4CEA030C20FA07F405FA6F
:100E400001F31C43FD404FEA1C4900FA01F3B5FBD6
:100E5000F9F8200C1FFA8CFE09FB185540EA0545ED
:100E600008FB0EF0A84202FA01F20BD91CEB0505B3
:100E700008F1FF3A80F08880A84240F28580A8F10E
:100E8000020865442D1AA4B2B5FBF9F009FB105510
:100E900044EA054500FB0EFEAE4508D91CEB0505EE
:100EA00000F1FF346CD2AE456AD90238654440EA9D
:100EB0000840A0FB0294A5EB0E05A542C846A64635
:100EC00056D353D05EB1B3EB080265EB0E0505FABD
:100ED00007F722FA01F3CD401F43C6E90075002150
:100EE000BDE8F087C2F1200320FA03F10CFA02FCFE
:100EF00025FA03F395400D434FEA1C471FFA8CFE79
:100F0000B3FBF7F107FB11302B0C43EA004301FB65
:100F10000EF0984204FA02F408D91CEB030301F125
:100F2000FF382FD298422DD9023963441B1AADB233
:100F3000B3FBF7F007FB103345EA034500FB0EF364
:100F4000AB4208D91CEB050500F1FF3816D2AB42C5
:100F500014D902386544ED1A40EA014138E73146B8
:100F6000304607E78646E5E61846FAE64B45A9D23D
:100F7000B9EB020864EB0C0E0138A3E74046EAE740
:100F8000204694E74146D1E7D0467BE7023B6544E3
:100F900032E7084609E76444023842E7704700BF79
:100FA00080B483B000AF78600B46FB70FB7803F031
:100FB0000103D9B27A68936861F30003936000BFBC
:100FC0000C37BD4680BC704780B483B000AF7860FA
:100FD0007B6800221A707B6800225A707B680022AE
:100FE0009A707B680122DA7000BF0C37BD4680BC66
:100FF000704780B483B000AF786039603B681B787D
:1010000003F00103D9B27A68536861F3082353608F
:101010003B685B7803F00103D9B27A68936861F3A7
:10102000410393603B689B7803F00103D9B27A686F
:10103000936861F3CB2393603B68DB78013BDBB2C1
:1010400003F01F03D9B27A68D36A61F31853D362ED
:101050007B680922C3F8D02000BF0C37BD4680BC96
:10106000704780B483B000AF78607B6800221A704C
:101070007B6800225A7000BF0C37BD4680BC7047A9
:1010800080B483B000AF78607B681B780B4A03F0B4
:101090000F03D9B2536861F3134353607B685B78E5
:1010A000064A03F00103D9B2536861F3D753536082
:1010B00000BF0C37BD4680BC704700BF0023014015
:1010C00080B483B000AF78600B46FB70FB7803F010
:1010D0000303D9B27A68536861F31963536000BFA0
:1010E0000C37BD4680BC704780B483B000AF7860D9
:1010F0000B46FB70FB7803F00103D9B27A68936862
:1011000061F30823936000BF0C37BD4680BC704775
:1011100080B483B000AF78600B46FB70FB7803F0BF
:101120000103D9B27A68936861F34923936000BFE1
:101130000C37BD4680BC704780B483B000AF786088
:101140007A68936843F00803936000BF0C37BD468C
:1011500080BC704780B483B000AF78607B689B68C8
:10116000C3F3C003DBB2002B01D0012300E0002356
:1011700018460C37BD4680BC704780B483B000AFC2
:1011800078607A68936843F00403936000BF0C377B
:10119000BD4680BC704780B483B000AF78607B6888
:1011A0009B68C3F38003DBB2002B01D0012300E076
:1011B000002318460C37BD4680BC704780B485B00C
:1011C00000AF7860084611461A460346FB700B468E
:1011D000BB7013467B70FB78092B1DD87B681B699D
:1011E000FB60FA7813465B001344072202FA03F30C
:1011F000DB431A46FB681340FB607978FA781346A4
:101200005B00134401FA03F31A46FB681343FB60C7
:101210007B68FA681A6145E0FB78132B21D87B685C
:10122000DB68FB60FB78A3F10A0213465B00134402
:10123000072202FA03F3DB431A46FB681340FB6004
:101240007978FB78A3F10A0213465B00134401FA94
:1012500003F31A46FB681343FB607B68FA68DA60A5
:1012600020E07B681B6DFB60FB78A3F11402134642
:101270005B001344072202FA03F3DB431A46FB68C0
:101280001340FB607978FB78A3F1140213465B00EE
:10129000134401FA03F31A46FB681343FB607B68AF
:1012A000FA681A65BB78062B1FD87B685B6BFB60FE
:1012B000BB785A1E13469B0013441F2202FA03F305
:1012C000DB431A46FB681340FB60F978BB785A1E73
:1012D00013469B00134401FA03F31A46FB681343B9
:1012E000FB607B68FA685A63B2E0BB780C2B1FD8AE
:1012F0007B681B6BFB60BB78DA1F13469B001344B3
:101300001F2202FA03F3DB431A46FB681340FB601B
:10131000F978BB78DA1F13469B00134401FA03F3F4
:101320001A46FB681343FB607B68FA681A638FE018
:10133000BB78102B21D87B68DB6AFB60BB78A3F1FC
:101340000D0213469B0013441F2202FA03F3DB43F2
:101350001A46FB681340FB60F978BB78A3F10D02D5
:1013600013469B00134401FA03F31A46FB68134328
:10137000FB607B68FA68DA626AE0BB78162B21D8DA
:101380007B685B6DFB60BB78A3F1110213469B0089
:1013900013441F2202FA03F3DB431A46FB6813408F
:1013A000FB60F978BB78A3F1110213469B0013444C
:1013B00001FA03F31A46FB681343FB607B68FA6883
:1013C0005A6545E0BB781C2B21D87B689B6DFB6080
:1013D000BB78A3F1170213469B0013441F2202FAA5
:1013E00003F3DB431A46FB681340FB60F978BB78D4
:1013F000A3F1170213469B00134401FA03F31A46A4
:10140000FB681343FB607B68FA689A6520E07B68A1
:10141000DB6DFB60BB78A3F11D0213469B001344F8
:101420001F2202FA03F3DB431A46FB681340FB60FA
:10143000F978BB78A3F11D0213469B00134401FA0F
:1014400003F31A46FB681343FB607B68FA68DA65AE
:1014500000BF1437BD4680BC704780B483B000AF76
:1014600078600B46FB701346BB70FB7803F00F03EC
:10147000D9B27A68936861F31B639360BB7803F019
:101480000303D9B27A68936861F31D73936000BF58
:101490000C37BD4680BC704780B483B000AF786025
:1014A0000B46FB70FB7803F00103D9B27A689368AE
:1014B00061F39E73936000BF0C37BD4680BC7047DC
:1014C00080B485B000AF78600B46FB700023FB73DF
:1014D0007B681A68FB781340002B02D10023FB7352
:1014E00001E00123FB73FB7B18461437BD4680BC2B
:1014F0007047000080B500AF012000F043F9214A99
:10150000136843F00103136000BF1E4B1B68C3F355
:101510004003DBB2012BF8D11A4A93686FF3010341
:10152000936000BF174B9B68C3F38103DBB2002BB2
:10153000F8D1144B1B68134A23F0867323F48033CD
:101540001360104B4FF080429A600E4B0E4A5A6067
:101550000C4BD3F8A0300B4A03F4A043C2F8A030E0
:10156000084BD3F8A030074A43F47023C2F8A030E8
:10157000044B4FF41F02DA60002000F003F900BFB3
:1015800080BD00BF003802400230030080B485B047
:1015900000AF78600023FB737B681B0C03F1804372
:1015A00003F50E331A687B6803F01F03012101FA6B
:1015B00003F31A407B6803F01F03012101FA03F3D0
:1015C0009A4202D00023FB7301E00123FB73FB7BF3
:1015D00018461437BD4680BC704780B483B000AF56
:1015E00078600B46FB70FB78012B16D17B681B0CD7
:1015F00003F1804303F50E3319687B6803F01F0382
:1016000001229A407B681B0C03F1804303F50E33E3
:10161000184641EA0203036017E07B681B0C03F1E4
:10162000804303F50E3319687B6803F01F03012222
:1016300002FA03F3DA437B681B0C03F1804303F5E2
:101640000E33184601EA0203036000BF0C37BD46A3
:1016500080BC704780B483B000AF03460A46FB717C
:101660001346BB71FB79042B3ED801A252F823F03C
:101670008516000899160008AD160008C116000866
:10168000D51600081B4ABB7903F00103D9B21368D1
:1016900061F30003136028E0164ABB7903F00103ED
:1016A000D9B2136861F3104313601EE0114ABB798D
:1016B00003F00103D9B2136861F31863136014E0F7
:1016C0000C4ABB7903F00103D9B2136F61F3000335
:1016D00013670AE0074ABB7903F00103D9B2536FDD
:1016E00061F30003536700E000BF00BF0C37BD4645
:1016F00080BC70470038024080B582B000AF03461E
:10170000FB71012000F03EF8074AFB7903F00F035C
:10171000D9B2936861F307139360002000F032F8A8
:1017200000BF0837BD4680BD0038024080B483B09A
:1017300000AF0346FB71074AFB7903F00703D9B2F8
:10174000936861F38C23936000BF0C37BD4680BC67
:10175000704700BF0038024080B483B000AF03463A
:10176000FB71074AFB7903F00703D9B2936861F371
:101770004F33936000BF0C37BD4680BC704700BF3D
:101780000038024080B483B000AF0346FB71FB79A0
:10179000012B07D1094AD2F8A43043F03003C2F834
:1017A000A43006E0054AD2F8A4306FF30513C2F85E
:1017B000A43000BF0C37BD4680BC704700380240E3
:1017C00080B485B000AF0346FB710023FB73FB7947
:1017D000022B14D0022B19DC002B02D0012B07D0D6
:1017E00014E00D4B9B6EC3F30103DBB2FB730DE002
:1017F000094B9B6EC3F38103DBB2FB7306E0064B20
:101800009B6EC3F30113DBB2FB7300BFFB7B184677
:101810001437BD4680BC70470038024080B483B0A6
:1018200000AF0346FB71084AFB7903F00103D9B20C
:10183000D2F8A03061F3CF33C2F8A03000BF0C372C
:10184000BD4680BC704700BF0038024090B482B0F3
:1018500000AF0446084611461A462346FB7103466C
:10186000BB800B467B801346BB71FB79002B06D1F6
:10187000174AD2F8A03043F48053C2F8A030144A7B
:10188000FB7903F00103D9B2536861F396535360B7
:101890000F4ABB88C3F3080399B2536861F38E13F0
:1018A00053600B4A7B8803F00F03D9B2536861F38E
:1018B00003035360064ABB7903F00703D9B25368A8
:1018C00061F31243536000BF0837BD4690BC7047B8
:1018D0000038024080B582B000AF0346FB710120A2
:1018E000FFF750FF074AFB7903F00303D9B293686F
:1018F00061F3010393600020FFF744FF00BF083746
:10190000BD4680BD0038024080B400AF044B9B68E8
:10191000C3F38103DBB21846BD4680BC704700BFED
:10192000003802402DE9B04F8EB000AFF8600023C0
:101930003B630023FB620023BB6200237B62002326
:101940007B6300233B620023FB610023BB61FFF745
:10195000DBFF0346FB75FB7D022B3DD0022B00F322
:101960008B80002B02D0012B25D085E0604BD3F873
:10197000A030C3F38033DBB2002B0BD05C4BD3F829
:10198000A030C3F30033DBB2002B03D0FB68594A0D
:101990001A6002E0FB68584A1A60554BD3F8A4302D
:1019A000C3F30243DBB2BB61FB681A68BB69DA4070
:1019B000FB681A6064E0FB684F4A1A604C4BD3F82E
:1019C000A430C3F3C243DBB2BB61FB681A68BB69D6
:1019D000DA40FB681A6053E0454B5B68C3F3805301
:1019E000DBB27B62424B5B68C3F388139BB23B6301
:1019F0003F4B5B68C3F30303DBB2FB623C4B5B68AA
:101A0000C3F30243DBB21A463C4B9B5CBB627B6A6E
:101A1000002B02D1384B7B6301E0374B7B637B6B40
:101A200000229A4693463B6B00229846914608FB5B
:101A30000BF20AFB09F31344AAFB08452B441D468D
:101A4000FB6ABA6A02FB03F300223B607A60D7E9C3
:101A5000002320462946FFF721F902460B4610468F
:101A600019464FF000024FF00003420842EAC172EB
:101A70004B08FB681A6003E0FB681F4A1A6000BF4E
:101A80001B4B9B68C3F30313DBB23B621C4A3B6AEC
:101A900013441B78FB61FB681A68FB69DA40FB683A
:101AA0005A60134B9B68C3F38223DBB23B62154A37
:101AB0003B6A13441B78FB61FB685A68FB69DA4098
:101AC000FB68DA600A4B9B68C3F34233DBB23B62CC
:101AD0000D4A3B6A13441B78FB61FB685A68FB693B
:101AE000DA40FB689A6000BF3837BD46BDE8B08F6A
:101AF00000380240006CDC0200127A003C6D0008E5
:101B0000446D0008546D00085C6D000880B483B01B
:101B100000AF03460A46FB711346BB71FB79012BEC
:101B200002D0022B0AD013E00C4ABB7903F0010368
:101B3000D9B2136861F30003136009E0074ABB7967
:101B400003F00103D9B2136861F31043136000BFBF
:101B500000BF0C37BD4680BC704700BF007400401A
:101B600080B483B000AF03460A46FB711346BB71D5
:101B7000BB79002B0CBF01230023DBB2BB71FB79C7
:101B8000012B02D0022B0AD013E00C4ABB7903F0E0
:101B90000103D9B2136861F34103136009E0074AF6
:101BA000BB7903F00103D9B2136861F351431360A9
:101BB00000BF00BF0C37BD4680BC704700740040BA
:101BC00080B483B000AF03460A46FB711346BB7175
:101BD000FB79012B02D0022B0AD013E00C4ABB790F
:101BE00003F00103D9B2136861F38203136009E0C3
:101BF000074ABB7903F00103D9B2136861F392433A
:101C0000136000BF00BF0C37BD4680BC704700BFEB
:101C10000074004080B483B000AF03460A46FB71F5
:101C20001346BB71FB79012B02D0022B0AD013E0C3
:101C30000C4ABB7903F00703D9B2136861F3C503FB
:101C4000136009E0074ABB7903F00703D9B21368B0
:101C500061F3D543136000BF00BF0C37BD4680BCA5
:101C6000704700BF0074004080B483B000AF0346EB
:101C7000FB71FB79012B02D0022B06D00BE0084A46
:101C8000536843F00103536005E0054A536843F08D
:101C90000203536000BF00BF0C37BD4680BC7047D5
:101CA0000074004080B483B000AF78600B467B8046
:101CB0007B687A881A6000BF0C37BD4680BC7047CD
:101CC00080B485B000AF78600023FB607A68136849
:101CD0006FF3000313607B6800221A607B680022A8
:101CE0005A607B6800229A607B680022DA607B6819
:101CF000FB60FA6840F2FF631340B3F5C16F11D285
:101D0000174B5B68FA68D2B2083A1649A1FB021277
:101D1000120992000F2101FA02F21146104A0B43F8
:101D2000536017E0FA6840F2FF631340B3F5D16FD8
:101D300010D20D4B5B68FA68D2B2083A0949A1FB90
:101D40000212120992000F2101FA02F21146064A0C
:101D50000B43536000BF1437BD4680BC704700BFC3
:101D600000600240CDCCCCCC0064024080B483B093
:101D700000AF78600B467B807A887B685A6000BF32
:101D80000C37BD4680BC704780B485B000AFF860AA
:101D9000B9601346FB71FB79002B06D0FB681A680B
:101DA000BB681A43FB681A6006E0FB681A68BB68E8
:101DB000DB431A40FB681A6000BF1437BD4680BC85
:101DC000704780B483B000AF78600B46FB70FB783F
:101DD00003F00103D9B27A68136861F3000313605A
:101DE00000BF0C37BD4680BC7047000080B485B092
:101DF00000AF78600023FB607B68B3F1805F03D99C
:101E0000094B1B68FB6002E0084B1B68FB60FA682B
:101E10007B681340002B01D0012300E0002318460B
:101E20001437BD4680BC7047006402400060024029
:101E300080B483B000AF78607B68B3F1805F05D970
:101E4000064A7B6823F07043536002E0044A7B68D3
:101E5000536000BF0C37BD4680BC70470064024031
:101E60000060024080B483B000AF78607B680022DD
:101E70001A607B6800225A607B6800221A817B68A6
:101E800000225A817B6800221A737B6800225A73F1
:101E90007B6800229A737B680022DA737B680022D9
:101EA0001A747B6800225A7400BF0C37BD4680BC90
:101EB000704780B483B000AF786039607B681A687F
:101EC0004BF6EF7313407A6813607B681B683A68BF
:101ED00012891A437B681A603B685B7C03F003033A
:101EE000D9B27A68136861F30D3313603B68DB7B0A
:101EF00003F00303D9B27A68136861F38B2313608C
:101F00003B689B7B03F00303D9B27A68136861F3E3
:101F1000092313603B685B7B03F00103D9B27A6845
:101F2000136861F3C71313603B681B7B03F0010365
:101F3000D9B27A68136861F3861313603B681B7C1F
:101F400003F00103D9B27A68136861F34513136093
:101F50003B6859897A68536861F30F0353603B68A3
:101F60001A687B689A603B685A687B68DA6000BFD1
:101F70000C37BD4680BC704780B483B000AF78603A
:101F80000B46FB70FB7803F00103D9B27A68D2F8F4
:101F9000003161F30003C2F8003100BF0C37BD46C9
:101FA00080BC704780B483B000AF78600B46FB7094
:101FB000FB7803F07F03D9B27A68136861F30603F4
:101FC000136000BF0C37BD4680BC704780B485B03D
:101FD00000AF786039600023BB813B681B68FB81E0
:101FE00064E0FB8903F00103002B59D07B681B6878
:101FF000BA895200032101FA02F2D2431A407B68E7
:102000001A607B681B683A6892791146BA89520057
:1020100001FA02F21A437B681A607B685B68BA892E
:10202000012101FA02F2D2431A407B685A607B68B0
:102030005B683A6812791146BA8901FA02F21A43CA
:102040007B685A607B689B68BA895200032101FA59
:1020500002F2D2431A407B689A607B689B683A68B8
:10206000D2791146BA89520001FA02F21A437B680A
:102070009A607B68DB68BA895200032101FA02F298
:10208000D2431A407B68DA607B68DB683A68527931
:102090001146BA89520001FA02F21A437B68DA60EB
:1020A000FB895B08FB81BB890133BB81FB89002B6A
:1020B00097D100BF00BF1437BD4680BC704780B4C5
:1020C00083B000AF78607B684FF6FF721A607B6860
:1020D00000229A717B6800221A717B6800225A7173
:1020E0007B680122DA7100BF0C37BD4680BC7047A7
:1020F00080B483B000AF78600B467B807A887B68C1
:102100009A6100BF0C37BD4680BC704780B483B075
:1021100000AF78600B467B807A887B689A6200BF4C
:102120000C37BD4680BC704780B485B000AF786086
:102130000B46FB701346BB700023FB600023BB60A3
:10214000BA78FB7803F007039B0002FA03F3FB6005
:10215000FB78DB08DBB2002B15D07B685A6AFB7872
:1021600003F007039B000F2101FA03F3DB431A403E
:102170007B685A627B685B6AFA681343BB607B6862
:10218000BA685A6214E07B681A6AFB7803F00703A6
:102190009B000F2101FA03F3DB431A407B681A62AC
:1021A0007B681B6AFA681343BB607B68BA681A6273
:1021B00000BF1437BD4680BC7047000080B485B0B6
:1021C00000AF78607B6803F00703FB600C4BDB68B3
:1021D000BB60BA684FF6FF031340BB60FB681A028E
:1021E000BB68134343F0BF6343F40033BB60044A4E
:1021F000BB68D36000BF1437BD4680BC704700BFCA
:1022000000ED00E080B400AF044BDB681B0A03F074
:1022100007031846BD4680BC704700BF00ED00E0D4
:1022200080B483B000AF0346FB7197F90730002BF1
:102230000BDBFB7903F01F02064997F907305B09B6
:10224000012000FA02F241F8232000BF0C37BD46FE
:1022500080BC704700E100E080B483B000AF03466B
:102260003960FB7197F90730002B0ADB3B68DAB263
:102270000C4997F907301201D2B20B4483F80023BE
:102280000AE03B68DAB20849FB7903F00F03043B2C
:102290001201D2B20B441A7600BF0C37BD4680BC87
:1022A000704700BF00E100E000ED00E080B489B0BD
:1022B00000AFF860B9607A60FB6803F00703FB6168
:1022C000FB69C3F10703042B28BF0423BB61FB692F
:1022D0000433062B02D9FB69033B00E000237B613A
:1022E0004FF0FF32BB6902FA03F3DA43BB681A40CE
:1022F0007B699A404FF0FF317B6901FA03F3D943C0
:102300007B680B40134318462437BD4680BC70479A
:1023100080B586B000AF0346B9607A60FB730023D6
:102320007B61FFF76FFF03467A68B9681846FFF7CD
:10233000BDFF786197F90F3079691846FFF78CFF78
:1023400097F90F301846FFF76BFF00BF1837BD46EF
:1023500080BD80B582B000AF0346FB71FB791846A3
:10236000FFF72CFF00BF0837BD4680BD80B483B0A7
:1023700000AF78600B46FB70FB7803F00103D9B225
:102380007A68136861F30003136000BF0C37BD4621
:1023900080BC704780B485B000AFF860B9607A60E7
:1023A000FB68BA68DA62FB687A689A62FA6853690D
:1023B00043F00103536100BF1437BD4680BC704732
:1023C00080B483B000AF78600B46FB70FB7803F0FD
:1023D0000303D9B27A68136861F30923136000BF5D
:1023E0000C37BD4680BC704780B483B000AF7860C6
:1023F0000B46FB70FB7803F00703D9B27A681368C9
:1024000061F30613136000BF0C37BD4680BC7047F4
:1024100080B483B000AF78600B467B807A6879889F
:10242000136B61F30F03136300BF0C37BD4680BC11
:102430007047000080B489B000AFF8600B467A6046
:10244000FB720023FB830023BB8300237B83FB7A87
:102450009BB208333B83FB7A9BB20933FB827B68D8
:102460005B781A463B8B02FA03F3FB837B689B780D
:102470001A46FB8A02FA03F3BB83FB685B68FA8A9D
:10248000012101FA02F2D2431A40FB685A60FB684C
:102490005A68BB8B1A43FB685A60FB685B683A8BCF
:1024A000012101FA02F2D2431A40FB685A60FB682C
:1024B0005A68FB8B1A43FB685A60FB7A7B837B8BE1
:1024C000062B3DD801A252F823F000BFE9240008F2
:1024D00041250008FF2400084125000815250008B3
:1024E000412500082B2500087B681B7803F00703B3
:1024F000D9B2FA68936961F30613936121E07B68AE
:102500001B7803F00703D9B2FA68936961F30E33BD
:10251000936116E07B681B7803F00703D9B2FA6871
:10252000D36961F30613D3610BE07B681B7803F07A
:102530000703D9B2FA68D36961F30E33D36100E0BF
:1025400000BFFB7A9BB25B009BB201333B83FB7AFB
:102550009BB25B009BB20333FB827B68DB781A463D
:102560003B8B02FA03F3FB837B681B791A46FB8AD9
:1025700002FA03F3BB83FB681B6AFA8A012101FAA2
:1025800002F2D2431A40FB681A62FB681A6ABB8BDC
:102590001A43FB681A62FB681B6A3A8B012101FA35
:1025A00002F2D2431A40FB681A62FB681A6AFB8B7C
:1025B0001A43FB681A62FB7A9BB25B003B83FB7A8F
:1025C00001339BB25B00FB827B685B791A46FB7A26
:1025D0005B0002FA03F3FB837B689B791A46FB7A64
:1025E00001335B0002FA03F3BB83FB681B6AFA8AC0
:1025F000012101FA02F2D2431A40FB681A62FB6819
:102600001A6ABB8B1A43FB681A62FB681B6A3A8B17
:10261000012101FA02F2D2431A40FB681A62FB68F8
:102620001A6AFB8B1A43FB681A6200BF2437BD4647
:1026300080BC704780B487B000AFF8600B467A600A
:10264000FB72FB7AFB82FB8A062B21D801A252F88F
:1026500023F000BF712600089126000879260008A3
:102660009126000881260008912600088926000886
:10267000FB687A685A630CE0FB687A689A6308E042
:10268000FB687A68DA6304E0FB687A681A6400E041
:1026900000BF00BF1C37BD4680BC704780B483B00C
:1026A00000AF78600B46FB70FB7803F00103D9B2F2
:1026B0007A68136861F3C713136000BF0C37BD4617
:1026C00080BC704780B485B000AF78600B46FB706B
:1026D0001346BB70FB78FB81FB89062B38D801A21F
:1026E00052F823F001270008512700081527000899
:1026F0005127000829270008512700083D27000816
:10270000BB7803F00103D9B27A68936961F3C3031C
:1027100093611EE0BB7803F00103D9B27A68936934
:1027200061F3CB23936114E0BB7803F00103D9B2CA
:102730007A68D36961F3C303D3610AE0BB7803F01D
:102740000103D9B27A68D36961F3CB23D36100E086
:1027500000BF00BF1437BD4680BC704780B485B051
:1027600000AF78600B46FB701346BB70FB78FB81B3
:10277000FB89062B38D801A252F823F099270008CC
:10278000E9270008AD270008E9270008C12700084D
:10279000E9270008D5270008BB7803F00103D9B268
:1027A0007A68936961F3820393611EE0BB7803F05A
:1027B0000103D9B27A68936961F38A23936114E0C3
:1027C000BB7803F00103D9B27A68D36961F382035D
:1027D000D3610AE0BB7803F00103D9B27A68D36908
:1027E00061F38A23D36100E000BF00BF1437BD4608
:1027F00080BC704780B483B000AF78600B46FB703C
:10280000FB7803F00703D9B27A68536861F30613C3
:10281000536000BF0C37BD4680BC704780B485B0A4
:1028200000AFF860B9601346FB71FB79012B06D14C
:10283000FB68DA68BB681A43FB68DA6009E0FB7979
:10284000002B06D1FB68DA68BB68DB431A40FB68E3
:10285000DA6000BF1437BD4680BC704780B485B0D5
:1028600000AF786039600023FB737B681A693B68AE
:102870001340002B02D00123FB7301E00023FB7304
:10288000FB7B18461437BD4680BC704780B483B0CC
:1028900000AF786039603B68DA437B681A6100BF3B
:1028A0000C37BD4680BC704780B483B000AF786001
:1028B0000B46FB707B685A69FB781A437B685A6148
:1028C00000BF0C37BD4680BC704780B483B000AFFA
:1028D00078600B46FB70FB7803F00103D9B27A688D
:1028E000536C61F3CF33536400BF0C37BD4680BCDB
:1028F000704780B483B000AF786039603B689B79E3
:1029000003F00103D9B27A68536C61F30C3353645A
:102910003B6819787A68536C61F3070353643B682A
:102920005B7903F00103D9B27A68536C61F38A23AF
:1029300053643B681B7903F00103D9B27A68536C86
:1029400061F3CB2353643B685B7803F00103D9B296
:102950007A68536C61F34D3353643B68DB7803F062
:102960000103D9B27A68536C61F38E3353643B68C8
:102970009B7803F00303D9B27A68536C61F309239F
:10298000536400BF0C37BD4680BC704780B58CB027
:1029900000AFF860B96011461A460B46FB7113464A
:1029A000BB7107F114031846FEF7BCFFFB687C4AB5
:1029B00093422CD10020FEF703FF034687F827300F
:1029C00097F82730002B02D1FB69FB628AE097F869
:1029D0002730012B02D17B69FB6283E097F8273017
:1029E000032B03D14FF40043FB627BE06D4BFB6292
:1029F0006D4BD3F8A030C3F30033DBB2012B71D1A0
:102A0000FA6A13465B0013445B00FB626AE0FB68F2
:102A1000664A93422CD10120FEF7D2FE034687F886
:102A2000273097F82730002B02D13B6AFB6259E030
:102A300097F82730012B02D17B69FB6252E097F8AF
:102A40002730032B03D14FF40043FB624AE0554B80
:102A5000FB62554BD3F8A030C3F30033DBB2012B3C
:102A600040D1FA6A13465B0013445B00FB6239E015
:102A7000FB684F4A93422CD10220FEF7A1FE034689
:102A800087F8273097F82730002B02D13B6AFB628A
:102A900028E097F82730012B02D17B69FB6221E007
:102AA00097F82730032B03D14FF40043FB6219E062
:102AB0003C4BFB623C4BD3F8A030C3F30033DBB29A
:102AC000012B0FD1FA6A13465B0013445B00FB62D3
:102AD00008E0FB68374A934202D1FB69FB6201E0E0
:102AE0003B6AFB62FA6A13469B0013445B001A467A
:102AF000BB68B2FBF3F3BB62B96A2F4BA3FB0123A4
:102B0000DA0813469B0013445B00CA1A042A06D84D
:102B1000BB6A294AA2FB0323DB08BB6206E0BB6A4F
:102B2000254AA2FB0323DB080133BB62BB6A99B2CF
:102B3000FA68936861F30F039360FB79022B0AD163
:102B4000FA68D36843F08053D360FA68D3686FF3B0
:102B50000C33D36017E0FB79002B0AD1FA68D368F5
:102B60006FF31C73D360FA68D3686FF30C33D360D0
:102B700009E0FA68D3686FF31C73D360FA68D3680E
:102B800043F48053D360BB7903F00303D9B2FA68EE
:102B9000136961F30D33136100BF3037BD4680BD4B
:102BA0000010014000127A0000380240004400404A
:102BB0000048004000140140CDCCCCCC80B483B0A0
:102BC00000AF78600B46FB70FB78002B0AD17A6867
:102BD000D3686FF34923D3607A68D3686FF38A238D
:102BE000D3601AE0FB78012B0AD17A68D3686FF3BF
:102BF0004923D3607A68D36843F48063D3600CE0E0
:102C0000FB78022B09D17A68D36843F40073D36050
:102C10007A68D36843F48063D36000BF0C37BD4645
:102C200080BC704780B483B000AF78600B46FB7007
:102C3000FB7803F00103D9B27A68D36861F34D33AE
:102C4000D36000BF0C37BD4680BC704780B483B0F2
:102C500000AF78600B46FB70FB7803F00103D9B23C
:102C60007A68D36861F3C303D36000BF0C37BD46F5
:102C700080BC704780B483B000AF78600B46FB70B7
:102C8000FB7803F00103D9B27A68D36861F3820359
:102C9000D36000BF0C37BD4680BC704780B483B0A2
:102CA00000AF78600B46FB70FB7803F00103D9B2EC
:102CB0007A68536961F3C713536100BF0C37BD468F
:102CC00080BC704780B483B000AF78600B46FB7067
:102CD000FB7803F00103D9B27A68536961F3861374
:102CE000536100BF0C37BD4680BC704780B483B0D1
:102CF00000AF78600B46FB70FB78002B0AD17A6836
:102D000053696FF3082353617A6853696FF349235A
:102D1000536128E0FB78012B0AD17A68536943F4A8
:102D2000807353617A6853696FF3492353611AE0E2
:102D3000FB78022B0AD17A6853696FF30823536139
:102D40007A68536943F4007353610CE0FB78032BFA
:102D500009D17A68536943F4807353617A6853697F
:102D600043F40073536100BF0C37BD4680BC70470D
:102D700080B400AF034B4AF6AA221A6000BFBD46DA
:102D800080BC70470030004080B483B000AF034681
:102D9000FB80044AFB88936000BF0C37BD4680BCB3
:102DA000704700BF0030004080B483B000AF0346DE
:102DB000FB71074AFB7903F00703D9B2536861F34B
:102DC0000203536000BF0C37BD4680BC704700BF94
:102DD0000030004080B483B000AF0346FB71FB7944
:102DE000002B03D1064B00221A6003E0044B45F28E
:102DF00055521A6000BF0C37BD4680BC704700BFFB
:102E00000030004080B58AB000AF01214FF440107F
:102E1000FEF7E3FB01215B48FEF7DFFB01215A4887
:102E2000FEF7DBFB5948FEF74BFF3B1D1846FFF74B
:102E300019F80223FB810023BB81554BBB600123A2
:102E4000FB7401237B74534B7B600123BB74002311
:102E50003B7402237B7501233B753B1D19464B4890
:102E6000FFF727F801214C48FFF786F805214B486A
:102E7000FFF798F801214548FEF7A3FF07F120036B
:102E80001846FFF71CF9032387F8263001233B621D
:102E900007F1200319464248FFF798F8032387F803
:102EA000263002233B6207F1200319463C48FFF716
:102EB0008DF80020FEF7B2FC07F11C031846FEF760
:102EC000D0F800233B7700237B7707F11C031846DB
:102ED000FEF7D6F807F118031846FEF775F8012338
:102EE0003B7601237B760023BB760223FB7607F13A
:102EF000180319462B48FEF77CF800212948FEF7F5
:102F0000DFF80723012200212648FEF757F907239F
:102F1000022201212348FEF751F90322072121480B
:102F2000FEF79BFA01211F48FEF7DEF801211D483C
:102F3000FEF7EEF801211B48FEF732F800BF4021F2
:102F40001848FEF7BDFA0346002BF8D01548FEF7E7
:102F5000F3F800BF1348FEF7FDF80346002BF9D144
:102F60001048FEF70AF900BF0E48FEF714F90346B1
:102F7000002BF9D101210B48FEF78EFA00BF28374C
:102F8000BD4680BD0800440016003000306002409D
:102F9000240000204C200140006002400C610240EF
:102FA000000002400020014080B500AFFEF7A2FA09
:102FB000274B4FF4AA721A6001212648FEF70DFB39
:102FC000254A136943F00303136101210420FEF72E
:102FD00041FB00BF2148FEF7D9FA0346012BF9D186
:102FE00001210020FEF736FB00BF0120FEF7CEFADC
:102FF0000346012BF9D1012301224B210020FEF7CA
:1030000025FC01210220FEF725FB00BF1920FEF759
:10301000BDFA0346012BF9D10020FEF76DFB00201D
:10302000FEF79AFB0420FEF781FB0120FEF7AAFBC6
:103030000220FEF74FFC00BFFEF766FC0346022BA2
:10304000FAD10020FEF79EFB03F050FD00BF80BDCB
:10305000003C02401C004000007000400100740071
:1030600080B400AF00BFBD4680BC704780B400AFE5
:10307000FEE780B400AFFEE780B400AFFEE780B4A7
:1030800000AFFEE780B400AF00BFBD4680BC704714
:1030900080B400AF00BFBD4680BC704780B400AFB5
:1030A00000BFBD4680BC704780B400AF00BFBD46C6
:1030B00080BC704780B582B000AF0220FEF796FE5C
:1030C0000346002B2AD00220FEF7B2FE002115484D
:1030D000FEF777FE0023FB7112E0FA79124B5B8852
:1030E000591C88B210494880C3F309030F498A5C10
:1030F000D1B20D4A13440A461A71FB790133FB71B0
:10310000FB790B2BE9D90A4B01221A700C210548D7
:10311000FEF72CFE01210348FEF753FE00BF0837DF
:10312000BD4680BD08600240340500202C00002010
:103130002D01002080B500AF2020FEF757FE03468A
:10314000002B09D0054B00221A7000210448FEF71D
:1031500038FE2020FEF76CFE00BF80BD2C01002051
:103160001C60024080B500AF4FF40070FEF73EFED9
:103170000346002B03D04FF40070FEF759FE00BF4A
:1031800080BD000080B500AF02210F48FFF766FB4D
:103190000346002B09D002210B48FFF777FB03F011
:1031A0002DF820210948FFF77FFB01210648FFF792
:1031B00055FB0346002B05D001210348FFF766FBB2
:1031C00003F022F800BF80BD002000400004004052
:1031D00080B500AF01210848FFF740FB0346002BF4
:1031E00008D001210448FFF751FB044B1B68013351
:1031F000024A136000BF80BD00100040280000207C
:1032000080B582B000AF3B461846FEF758FF01215B
:103210004FF44010FEF7E1F901211548FEF7DDF902
:1032200010233B600323BB7100237B713B4619468F
:103230001048FEF7CBFE01210120FEF7C1FC07215B
:103240000120FEF7E7FC01210120FEF789FC0121A6
:103250000120FEF75BFC40F2DA210748FEF722FD71
:103260000120FEF701FD00BF0837BD4680BD00BF4D
:103270001D004000000002400874004080B485B08A
:1032800000AF78607B68002B2CD0194B1B68184A64
:1032900023F00403136016497A681346DB001344D5
:1032A0005B004B60124B00229A60114B1B68104A66
:1032B00043F0010313600E4B1B68FB60FB6803F0D7
:1032C0000103002B04D0FB6803F48033002BF2D001
:1032D000074B1B68064A23F001031360044B0022CE
:1032E0009A6000E000BF1437BD4680BC704700BF45
:1032F00010E000E080B582B000AF0346FB710AE049
:103300004FF4FA7000F010F84FF4FA7000F00CF877
:10331000FB79013BFB71FB79002BF1D100BF00BFB2
:103320000837BD4680BD000080B582B000AF0346BF
:10333000FB80FB88B3F57A7F09D3FB880F4AA2FB99
:1033400003239B099BB2DBB21846FFF7D3FFFB8830
:103350000A4AA2FB031292094FF47A7101FB02F2AE
:103360009B1AFB80FB884FF47A7202FB03F318462A
:10337000FFF784FF00BF0837BD4680BDD34D621004
:1033800080B582B000AF3B461846FEF798FE01219B
:103390004FF44010FEF721F901212148FEF71DF9F5
:1033A00002212048FEF7B2FE4FF400411E48FEF70E
:1033B0009FFE18211B48FEF79BFE0223FB71002392
:1033C0003B710123BB7102233B6001237B713B46B0
:1033D00019461448FEF7FAFD0123FB7100233B71E7
:1033E0000123BB714FF400433B6002237B713B46DA
:1033F00019460D48FEF7EAFD0123FB7100233B71DE
:103400000123BB7118233B6002237B713B461946A5
:103410000448FEF7DBFD00BF0837BD4680BD00BF96
:1034200001003000000402400000024080B500AFFF
:1034300001211248FEF7D1F8952240F2E7311048F9
:10344000FEF7A8FF00210E48FEF7CEFF00210C4832
:10345000FFF724F9012201210948FFF7DFF90122D2
:1034600000213620FEF754FF00210548FFF7C2F97E
:1034700001210348FEF77AFF00BF80BD0400400031
:103480000010004080B400AF024B1B681846BD46D8
:1034900080BC70472800002080B400AF064B1B683A
:1034A0004FF47A7203FB02F2044B5B6A1344184632
:1034B000BD4680BC704700BF2800002000100040BF
:1034C00080B584B000AF01213348FEF786F895221D
:1034D00040F2E7313148FEF75DFF00212F48FEF74B
:1034E00083FF00212D48FEF76BFF00212B48FEF7DC
:1034F0008FFF00212948FFF7D1F806233B720123F3
:103500007B730023BB730023FB7200233B730023F8
:103510007B720023BB7207F108031A4600211F4883
:10352000FEF788FF40F2BB2200211C48FFF782F81B
:10353000002200211948FFF7C5F800220021174892
:10354000FFF70CF90023BB710023FB7000237B7095
:1035500000233B7100237B710023BB7000233B7071
:103560003B4619460D48FFF7C4F9012203210B48D9
:10357000FFF754F9022202212D20FEF7C9FE012196
:103580000648FFF7A2F901210448FEF7EFFE00BF4D
:103590001037BD4680BD00BF08004000002000403D
:1035A00080B584B000AF786007F108031846FEF7D5
:1035B00086FD01214FF44010FEF70FF801212B4842
:1035C000FEF70BF80223FB7300233B730223BB734C
:1035D0004FF40073BB6000237B7307F108031946A7
:1035E0002348FEF7F3FC072209212148FEF79CFD42
:1035F0000223FB7300233B730223BB734FF48063EE
:10360000BB6000237B7307F1080319461848FEF7D7
:10361000DDFC07220A211648FEF786FD0023002262
:1036200079681448FFF7B2F901211248FFF70EFB41
:1036300001211048FFF71EFB00210E48FFF7BEFADC
:1036400001210C48FFF72AFB01210A48FFF73AFB4A
:1036500000210848FFF74AFB01210648FFF7E2FA7C
:1036600000F00AF800BF1037BD4680BD04004400DA
:10367000000002400010014080B586B000AF01217B
:103680003748FDF7AAFF3748FEF71AFB3B1D1846DF
:10369000FEF7E8FB8023FB810023BB81324BBB603C
:1036A0000023FB7401237B74304B7B600023BB74CD
:1036B00000233B7401237B7500233B753B1D19469A
:1036C0002848FEF7F6FB012202212648FEF75CFBA4
:1036D00001212748FEF750FC18212648FEF762FC1E
:1036E0002548FEF7EDFA3B1D1846FEF7BBFB0C2301
:1036F000FB811023BB81214BBB600023FB740123A2
:103700007B741A4B7B600023BB7400233B74012342
:103710007B7500233B753B1D19461748FEF7C9FB17
:10372000012202211448FEF72FFB01211048FEF769
:1037300023FC19211248FEF735FC022201210B203F
:10374000FEF7E6FD012201210C20FEF7E1FD01213B
:103750000448FEF736FB00BF1837BD4680BD00BFEA
:1037600016003000086002402C00002004100140C8
:1037700000600240046102401C600240AC00002076
:103780000861024080B582B000AF304B5A882F4BA1
:103790001B88D31A9BB2C3F30903BB802C4B1B7845
:1037A000DBB2002B4ED1BB88802B23D9284B0122C2
:1037B0001A7080212748FEF7D9FA0023FB7110E028
:1037C000224B1B885A1C91B2204A1180C3F3090274
:1037D000FB791E490A4411791F4AD154FB79013300
:1037E000FB7197F90730002BEADA01211948FEF73F
:1037F000E8FA27E0BB88002B24D0154B01221A7071
:10380000BB8819461348FEF7B1FA0023BB7110E0DC
:103810000E4B1B885A1C91B20C4A1180C3F309024B
:10382000BB790A490A4411790B4AD154BB79013357
:10383000BB71BB799BB2BA889A42E9D8012105488D
:10384000FEF7BFFA00BF0837BD4680BD300100203B
:103850002C0100201C600240AC00002080B500AFAD
:103860000120FFF7B7FA0020FFF79EFA40F6B730C5
:10387000FFF78AFAFFF77CFA00BF80BD80B400AF83
:10388000084B00225A80074B5A88064B1A80064B79
:1038900000225A80044B5A88034B1A8000BFBD4651
:1038A00080BC7047340500203001002080B400AF98
:1038B000064B5A88054B1B88D31A9BB2C3F30903E6
:1038C0009BB21846BD4680BC704700BF340500203F
:1038D00080B400AF0D4B5A880C4B1B88D31A9BB297
:1038E000C3F30903002B0BD0084B1B885A1C91B261
:1038F000064A1180C3F30903044A13441B7900E00C
:10390000FF231846BD4680BC704700BF3405002029
:1039100080B483B000AF78600B467B800FE07B689B
:103920005A1C7A600B4A5288511C88B20949488057
:10393000C2F309021978074B13440A461A717B88AF
:103940005A1E7A80002BEAD100BF00BF0C37BD465B
:1039500080BC70473001002080B485B000AF0346C2
:103960003960FB713B681B88DAB2FB795340FB730B
:10397000FB7B1B015AB297F90F3053405BB2FB73CC
:103980003B681B881B0A9BB21AB2FB7B1B021BB253
:1039900053401AB2FB7BDB001BB253401AB2FB7BD5
:1039A0001B09DBB21BB253401BB29AB23B681A80B0
:1039B00000BF1437BD4680BC704780B483B000AFF1
:1039C00078607B684FF6FF721A8000BF0C37BD46E7
:1039D00080BC704780B584B000AF78600B467B80B8
:1039E00007F10E031846FFF7E8FF09E07B685A1C51
:1039F0007A601B7807F10E0211461846FFF7ACFFFC
:103A00007B885A1E7A80002BF0D1FB89184610372C
:103A1000BD4680BD80B586B000AFF860B960134682
:103A2000FB80BB687B6107E07B695A1C7A611B786D
:103A3000F9681846FFF790FFFB885A1EFA80002BA2
:103A4000F2D100BF00BF1837BD4680BD80B483B03F
:103A500000AF78607B6800221A607B6800225A60A1
:103A60007B680E4A9A607B680D4ADA607B680D4A73
:103A70001A617B680C4A5A617B680C4A9A617B68C0
:103A80000B4ADA617B680B4A1A627B680A4A5A62FF
:103A900000BF0C37BD4680BC704700BF67E6096AAF
:103AA00085AE67BB72F36E3C3AF54FA57F520E515F
:103AB0008C68059BABD9831F19CDE05B80B4CFB078
:103AC00000AF07F59C73A3F59A73186007F59C7314
:103AD000A3F59C73196007F59C73A3F59A731B6893
:103AE0009B68C7F8343107F59C73A3F59A731B687C
:103AF000DB68C7F8303107F59C73A3F59A731B6830
:103B00001B69C7F82C3107F59C73A3F59A731B68E2
:103B10005B69C7F8283107F59C73A3F59A731B6896
:103B20009B69C7F8243107F59C73A3F59A731B684A
:103B3000DB69C7F8203107F59C73A3F59A731B68FE
:103B40001B6AC7F81C3107F59C73A3F59A731B68B1
:103B50005B6AC7F818310023C7F8143116E0D7F8AC
:103B600014319B0007F59C72A2F59C7212681344F5
:103B7000196807F59C73A3F59673D7F8142143F8D9
:103B80002210D7F814310133C7F81431D7F81431A3
:103B90000F2BE4DD1023C7F8143169E0D7F8143196
:103BA0009A1E07F59C73A3F5967353F822304FEADB
:103BB0007342D7F81431991E07F59C73A3F59673D9
:103BC00053F821304FEAF3435A40D7F81431991E85
:103BD00007F59C73A3F5967353F821309B0A5A405E
:103BE000D7F81431D91F07F59C73A3F5967353F8D2
:103BF00021301A44D7F81431A3F10F0107F59C7353
:103C0000A3F5967353F821304FEAF311D7F8143126
:103C1000A3F10F0007F59C73A3F5967353F82030BA
:103C20004FEAB3435940D7F81431A3F10F0007F519
:103C30009C73A3F5967353F82030DB084B401A446D
:103C4000D7F81431A3F1100107F59C73A3F596730F
:103C500053F82130D11807F59C73A3F59673D7F864
:103C6000142143F82210D7F814310133C7F8143166
:103C7000D7F814313F2B91DD0023C7F8143178E0D9
:103C8000D7F824314FEAB312D7F824314FEAF3239F
:103C90005A40D7F824314FEA73635A40D7F81831A5
:103CA0001A44D7F82411D7F820311940D7F8243115
:103CB000D843D7F81C3103404B401A446E49D7F81B
:103CC000143151F823301A4407F59C73A3F5967309
:103CD000D7F8141153F821301344C7F81031D7F82E
:103CE00034314FEAB302D7F834314FEA73335A40D4
:103CF000D7F834314FEAB3535A40D7F83011D7F8D8
:103D00002C315940D7F834311940D7F83001D7F861
:103D10002C3103404B401344C7F80C31D7F81C3109
:103D2000C7F81831D7F82031C7F81C31D7F824313B
:103D3000C7F82031D7F82821D7F810311344C7F835
:103D40002431D7F82C31C7F82831D7F83031C7F8EB
:103D50002C31D7F83431C7F83031D7F81021D7F8E3
:103D60000C311344C7F83431D7F814310133C7F894
:103D70001431D7F814313F2B82DD07F59C73A3F57E
:103D80009A731B689A68D7F834311A4407F59C7304
:103D9000A3F59A731B689A6007F59C73A3F59A7351
:103DA0001B68DA68D7F830311A4407F59C73A3F51D
:103DB0009A731B68DA6007F59C73A3F59A731B6806
:103DC0001A69D7F82C311A4407F59C73A3F59A7336
:103DD0001B681A6107F59C73A3F59A731B685A69EF
:103DE000D7F828311A4407F59C73A3F59A731B681A
:103DF0005A6107F59C73A3F59A731B689A69D7F803
:103E000024311A4407F59C73A3F59A731B689A61D1
:103E100007F59C73A3F59A731B68DA69D7F820310C
:103E20001A4407F59C73A3F59A731B68DA6107F5CA
:103E30009C73A3F59A731B681A6AD7F81C311A444D
:103E400007F59C73A3F59A731B681A6207F59C73B8
:103E5000A3F59A731B685A6AD7F818311A4407F504
:103E60009C73A3F59A731B685A6200BF07F59E778F
:103E7000BD4680BC704700BF646D000880B59CB033
:103E800000AFF860B9607A60BB68FB66FB681B68CE
:103E9000FB65FB681A687B68DB001A44FB681A60E4
:103EA000FB681B68FA6D9A4204D9FB685B685A1C70
:103EB000FB685A60FB6DDB0803F03F03BB6654E010
:103EC000BB6EC3F140037B667A687B6E9A4201D277
:103ED0007B687B66FB6803F12802BB6E13447A6E35
:103EE000F96E184602F008FFBA6E7B6E1344BB668B
:103EF000FA6E7B6E1344FB667A687B6ED31A7B6026
:103F0000BB6E402B31D1FB682833BB6500233B6679
:103F100020E03B6E9B00BA6D13447B6507F11002F5
:103F20003B6E9B0013443B657B6DDA783B6D1A70EA
:103F30003B6D01337A6D92781A703B6D02337A6D66
:103F400052781A703B6D03337A6D12781A703B6E9B
:103F500001333B663B6E0F2BDBDD07F11003194687
:103F6000F868FFF7ABFD0023BB667B68002BA7D189
:103F700000BF00BF7037BD4680BD80B598B000AFB0
:103F8000786039607B681B68DB0803F03F03FB65E2
:103F9000FB6DC3F1770303F03F030133BB657B681F
:103FA00008337B6580233B7307F10C030133472201
:103FB0000021184602F0AEFE7B681A68BB6D07331D
:103FC000D2B260333B4403F8542C7B681B681A0A56
:103FD000BB6D0633D2B260333B4403F8542C7B688C
:103FE0001B681A0CBB6D0533D2B260333B4403F837
:103FF000542C7B681B681A0EBB6D0433D2B260333D
:104000003B4403F8542C7B685A68BB6D0333D2B22F
:1040100060333B4403F8542C7B685B681A0ABB6D21
:104020000233D2B260333B4403F8542C7B685B68A4
:104030001A0CBB6D0133D2B260333B4403F8542CED
:104040007B685B681B0ED9B207F10C02BB6D134491
:104050000A461A70BB6D03F1080207F10C031946FA
:104060007868FFF70BFF7B6DDA783B681A703B6866
:1040700001337A6D92781A703B6802337A6D527808
:104080001A703B6803337A6D12781A703B680433F8
:104090007A6DD2791A703B6805337A6D92791A700D
:1040A00000BF6037BD4680BD80B483B000AF03461B
:1040B000FB71FA7913465B001344DB00034A134497
:1040C00018460C37BD4680BC704700BF3809002039
:1040D00080B483B000AF0346FB71FB7940F223123A
:1040E00002FB03F3034A134418460C37BD4680BC59
:1040F000704700BF50090020B0B5A0B000AFF86015
:10410000B9607A60FB70FB68002B05D0FB681B78F8
:1041100003F00103002B01D100234FE0FB685A7824
:10412000BB681A70FB68D3E90223C7E90423BB68A4
:10413000013307F110010622184602F0DDFDFB688D
:10414000D3E90223541C43F10005FB68C3E902458F
:1041500007F118031846FFF779FCFB6803F110011B
:1041600007F1180320221846FFF788FEFA7807F1B6
:10417000180379681846FFF781FE97F8942007F135
:104180001803D7F890101846FFF778FE07F11803C8
:104190000222D7F898101846FFF770FE07F11803AF
:1041A0000722B9681846FFF769FEBB68DA1D07F1F8
:1041B000180311461846FFF7E0FE0D231846803716
:1041C000BD46B0BD80B483B000AF78600B46FB70D5
:1041D00002E0FB78013BFB70FB78012B06D9FB78F2
:1041E000013B7A6813441B78002BF2D0FB78184609
:1041F0000C37BD4680BC7047B0B5AAB000AFF860C0
:10420000B9607A60FB68002B01D1012326E17B684D
:104210000233C7F8A0307B6803F58B73C7F89C3076
:10422000D7F89C300733C7F8983007F12C031846AD
:10423000FFF70CFCFB6803F1100107F12C032022AF
:104240001846FFF71BFE07F12C030A22D7F8A0102F
:104250001846FFF713FE7B6803F10C017B68DB78DF
:104260001A4607F12C031846FFF708FE7B6803F592
:104270008A7107F12C0302221846FFF7FFFD07F1B0
:104280002C030722D7F89C101846FFF7F7FD07F11B
:10429000240207F12C0311461846FFF76EFE07F1C2
:1042A00024030622D7F89810184602F015FD03469D
:1042B000002B01D00023D1E0D7F89C301B7887F881
:1042C00097304FF000024FF00003C7E90623D7F8FC
:1042D0009C30591C07F118030622184602F00CFD09
:1042E000BB68002B01D10023B8E00023A7F8A6305B
:1042F0002BE07B68D979B7F8A620B8681346DB00B5
:104300001344034403331B78994219D17B68197A0B
:10431000B7F8A620B8681346DB00134403440433FF
:104320001B7899420CD1B7F8A620B9681346DB0078
:1043300013440B4402331B7897F897209A420BD012
:10434000B7F8A6300133A7F8A630BB681B88B7F8CA
:10435000A6209A42CDD300E000BFBB681B88B7F807
:10436000A6209A423ED1BB681B880F2B01D900239F
:1043700074E0D7E906233B49541843F10005FB6874
:10438000D3E90223944275EB030301D2002365E0D5
:10439000B7F8A6207B68D879B9681346DB001344C8
:1043A0000B44033302461A70B7F8A6207B68187ACC
:1043B000B9681346DB0013440B44043302461A70F9
:1043C000B7F8A620B9681346DB0013440B44023348
:1043D00097F897201A70BB681B8801339AB2BB68A4
:1043E0001A801DE04FF000024FF00003C7E90423DC
:1043F000B7F8A6201346DB001344BA681344591DCE
:1044000007F110030622184602F076FCD7E90623CE
:10441000D7E90401904271EB030301D300231DE0AF
:10442000B7F8A6201346DB001344BA681344581D9E
:10443000D7F89C3001330622194602F05DFCD7E91B
:104440000623F968D1E90201904271EB030304D21B
:10445000D7E90623F968C1E9022301231846A837E2
:10446000BD46B0BD808D5B0080B483B000AF786086
:104470007B689B780133DAB27B689A7000BF0C3797
:10448000BD4680BC7047000090B595B004AFB960E0
:104490007A601A460346FB731346BB73FB7B1846D0
:1044A000FFF702FEB863092387F83F30002387F83F
:1044B0003E30BB6B1B7B03F00203002B14BF0123B8
:1044C000002387F8373097F8373083F00103DBB2E9
:1044D000002B0CD0BB6B1B69002B08D0BB6B1B697E
:1044E0001B7803F00103002B01D0012300E000231F
:1044F00087F8363097F8363003F0010387F8363006
:1045000097F83730002B24D0BB7B87F85030BB683E
:10451000FF2B03D9B86BFFF7A7FFC8E0052387F887
:104520003F30FE2387F8283097F8503087F829303D
:10453000BB6B9B7987F82A305E4B1B7887F82B3052
:104540005C4B5B7887F82C30BB68DBB287F82D308A
:104550003DE0002387F83D3097F83630002B05D03A
:1045600097F83D3043F0010387F83D3097F850301D
:1045700019467868FFF726FE034687F85030FD237A
:1045800087F8283097F8503087F8293097F83D3071
:1045900087F82A30002387F82B30BB6B9B7987F88C
:1045A0002C30444B1B7887F82D30424B5B7887F8D2
:1045B0002E30BB68DBB287F82F30BB681B0ADBB23A
:1045C00087F83030BB681B0CDBB287F83130BB6B2F
:1045D0009B790133DAB2BB6B9A7197F83F309AB28C
:1045E00007F12803013311461846FFF7F3F9034694
:1045F000BB8697F850309AB207F1340379681846B1
:10460000FFF708FA07F1340297F8543011461846BC
:10461000FFF7A2F9BB8EDBB287F82430BB8E1B0AF2
:104620009BB2DBB287F8253097F83630002B17D0D5
:10463000BB6B186997F83F300133DCB207F12802F1
:1046400007F1140107F12403029397F85030019306
:104650007B6800932346FFF74FFD034687F83E3003
:1046600097F83F309BB201339AB207F12801FB7BE8
:10467000184600F079FC97F850309AB2FB7B7968C5
:10468000184600F071FC07F12401FB7B022218465A
:1046900000F06AFC97F83E30002B08D097F83E30C7
:1046A0009AB207F11401FB7B184600F05DFC443719
:1046B000BD4690BD0000002080B588B000AF034625
:1046C0003960FB713B681B889BB2DBB23B773B6870
:1046D0001B889BB21B0A9BB2DBB27B773B689B7843
:1046E000FE2B25D10623BB770023FB773B689B7805
:1046F0003B753B68DB787B753B689B79BB753B689A
:10470000DB79FB753B681B7A3B763B685A7A997A72
:1047100009020A43DB7A1B041343DBB27B76BB7FBF
:104720009AB207F11401FB79184600F01DFC48E02D
:104730000A23BB773B681B7903F00103002B01D0F0
:104740000D2300E00023FB773B689B783B723B68BE
:10475000DB787B723B681B79BB723B685B79FB72D1
:104760003B689B793B733B68DB797B733B681B7AC7
:10477000BB733B685A7A997A09020A43DB7A1B04B5
:104780001343DBB2FB733B685A7A997A09020A43F6
:10479000DB7A1B0413431B12DBB23B743B685A7A6F
:1047A000997A09020A43DB7A1B0413431B14DBB218
:1047B0007B74BB7F9AB207F10801FB79184600F0C1
:1047C000D3FB3B6803F10C013B68DB789AB2FB79C1
:1047D000184600F0C9FB07F11C01FB7902221846BC
:1047E00000F0C2FBFB7F002B07D03B6803F58B7109
:1047F000FB790D22184600F0B7FB00BF2037BD46FD
:1048000080BD80B584B000AF78600023FB8107F1E4
:104810000E031846FFF7D1F8FA897B681A8000BFAB
:104820001037BD4680BD80B584B000AF78600B46C0
:10483000FB707B681B889BB2FB8107F10E02FB7843
:1048400011461846FFF788F8FA897B681A8000BF7E
:104850001037BD4680BD000080B487B000AF7860DF
:1048600000237B614FF483733B6125E07A693B69E8
:10487000134401335B08FB601E49FA6813465B0072
:1048800013449B000B441B687A689A4203D2FB686E
:10489000013B3B6110E01749FA6813465B00134483
:1048A0009B000B441B687A689A4202D9FB687B61C3
:1048B00002E0FB687B6103E07A693B699A42D5D3E9
:1048C0000C497A6913465B0013449B000B441B6838
:1048D0007A689A4201D0002306E07A6913465B00A9
:1048E00013449B00034A134418461C37BD4680BC42
:1048F000704700BF646E000880B588B000AFF860F4
:10490000B9603B601346FB710023BB61BB680022AA
:104910001A70BB68DB780F2B00F26E8201A252F88E
:1049200023F000BF6549000865490008C349000835
:10493000294A0008614A0008794A0008914A00089B
:10494000A94A0008C14A00081B4B0008674B000831
:10495000C34B0008FB4B0008874C0008874C00083D
:10496000434D0008FB79FD2B13D1BB680222DA709E
:10497000FB680022DA70FB68FA799A70BB681B7BCF
:1049800023F00103DAB2BB681A73F868FFF739FF46
:1049900029E2FB79FE2B40F02682BB680222DA7006
:1049A000FB680022DA70FB68FA799A70BB681B7B9F
:1049B00043F00103DAB2BB681A73F868FFF721FF0E
:1049C00011E2BB681B78002B0FD0BB685B7801330A
:1049D000DAB2BB685A70B868FFF746FDBB680022C0
:1049E0001A70BB680122DA7006E2FB68FA79DA70A5
:1049F000BB6800221A71FB791946F868FFF713FFAC
:104A0000BB681B7B03F00103002B09D0FB6800226D
:104A10001A71FB6800225A71BB680522DA70EBE15B
:104A2000BB680322DA70E7E1FB68FA791A71FB6868
:104A30001B7923F00103002B09D0B868FFF714FDA0
:104A4000BB6800221A70BB680122DA70D4E1FB79DE
:104A50001946F868FFF7E7FEBB680422DA70CBE17D
:104A6000FB68FA795A71FB791946F868FFF7DBFEA3
:104A7000BB680522DA70BFE1FB68FA799A71FB79AD
:104A80001946F868FFF7CFFEBB680622DA70B3E17B
:104A9000FB68FA79DA71FB791946F868FFF7C3FE0B
:104AA000BB680722DA70A7E1FB68FA791A72FB7912
:104AB0001946F868FFF7B7FEBB680822DA709BE179
:104AC000FB7923F07F43FA68D9B200200143517289
:104AD000190AC9B20020014391721B0CDBB20021FC
:104AE0000B43D372FB791946F868FFF79CFEBB684D
:104AF0001B7B03F00103002B0BD0FB68DB78002B42
:104B000003D0BB680B22DA7076E1BB680C22DA7046
:104B100072E1BB680922DA706EE1FB685A7A997A11
:104B200009020A43DB7A1B0413431A46FB791B0272
:104B3000134323F07F42FB68D1B200200143597236
:104B4000110AC9B2002001439972120CD2B200219D
:104B50000A43DA72FB791946F868FFF764FEBB680E
:104B60000A22DA7048E1FB685A7A997A09020A4304
:104B7000DB7A1B0413431A46FB791B04134323F00F
:104B80007F42FB68D1B2002001435972110AC9B2B9
:104B9000002001439972120CD2B200210A43DA724A
:104BA000FB791946F868FFF73EFEFB68DB78002BBF
:104BB00003D0BB680B22DA701EE1BB680C22DA70EE
:104BC0001AE1FB6803F10C02BB681B79591CC8B2DF
:104BD000B96808711344FA791A70FB791946F868B4
:104BE000FFF721FEBB681A79FB68DB789A4240F038
:104BF000FC80BB680C22DA70F7E0FB685A7A997A7D
:104C000009020A43DB7A1B0413431846FFF724FE0C
:104C100078617B69002B02D07B691B7900E000235F
:104C2000FB74FB7C1946F868FFF7FDFDFA79FB6819
:104C30001B889BB2DBB29A4203D0BB680E22DA70AB
:104C400002E0BB680D22DA70FB68FA7983F8142160
:104C50007B69002B00F0CB80BB681A797B699B795C
:104C60009A4280F0C480FB680C33BA6812799818B5
:104C70007B699B791A46BB681B79D31A1A460021B7
:104C800002F048F8B3E0BB68DB780E2B08D0FB7964
:104C90009AB2FB681B889BB21B0A9BB29A4203D054
:104CA000BB6802221A7002E0BB6801221A70FB681E
:104CB000FA7983F81521FB681B7903F00103002BB7
:104CC0000ED0BB680F22DA70BB680D225A73BB6826
:104CD0001B78022B00F08D80BB6800221A7088E0E0
:104CE000BB681B69002B1FD0BB681B691B6B002BAB
:104CF00013D0BB681B691A6BFB68597A987A00025B
:104D00000143DB7A1B040B431946B86890470346FE
:104D100083F00103DBB2002B06D0BB681B78022BAB
:104D200002D0BB6803221A70BB680122DA703B68AC
:104D3000002B5ED040F22312F968386801F0DCFFE6
:104D400057E0BB685B7BC3F10D03FA681344FA7943
:104D500083F81621BB685B7B013BDAB2BB685A73F0
:104D6000BB685B7B002B46D1BB681869BB685B697D
:104D7000FA681946FFF740FA0346FB77FB7F83F09A
:104D80000103DBB2002B17D0BB681B691B6B002B28
:104D900012D0BB681B691A6BFB68597A987A0002BB
:104DA0000143DB7A1B040B431946B868904703465E
:104DB000002B01D00123FB77FB7F002B03D0BB68C6
:104DC00001221A7002E0BB6803221A70BB6801223C
:104DD000DA703B68002B0ED040F22312F968386875
:104DE00001F08AFF07E000BF06E000BF04E000BF5B
:104DF00002E000BF00E000BFBB690133BB61BB68DC
:104E00001B78012B10D1FB689A79BB685A71BB687B
:104E10001B89002B02D1BB6800225A81BB681B8909
:104E200001339AB2BB681A813B68002B03D0FB6840
:104E3000DA783B68DA70BB6A002B1AD0BB68DA7884
:104E4000BB6ADA70BB681A79BB6A1A71BB685B7996
:104E50000133DAB2BB6A5A71BB681A89BB6A1A811C
:104E6000BB689B789AB2BB6A5A81BB681A7BBB6AE3
:104E70001A73BB6800229A70BB681B78022B10D192
:104E80003B68002B0DD0FB6893F814311AB2FB6815
:104E900093F815311B021BB213431BB29AB23B6845
:104EA0001A80BB681B7818462037BD4680BD00BFFE
:104EB00090B587B002AFBA607B600346FB730B46C8
:104EC000BB73FB7B1846FFF703F90446FB7B1846D0
:104ED000FFF7EAF80146BA7B7B680093BB6820467F
:104EE000FFF70AFD034618461437BD4690BD80B54E
:104EF00088B000AFBA607B600346FB730B46BB73A0
:104F0000B97BF87B7B68BA68FFF7D2FF0346FB7773
:104F1000FB7F022B02D0FB7F032B20D1FB7B1846AB
:104F2000FFF7D6F8B861FB7B1846FFF7BDF878614C
:104F30007869FFF799FA7B6900221A707B69012270
:104F4000DA70BB7BFD2B08D17B690222DA70BB696A
:104F50000022DA70B869FFF754FC002300E0FB7F01
:104F600018462037BD4680BD80B582B000AF0346ED
:104F70003960FB711346BB80BB88DAB2FB793968B4
:104F8000184600F051F800BF0837BD4680BD00004C
:104F900080B584B000AF0346FB71FB79012B01D9CA
:104FA000002316E00023FB73FB79032B0FD801A22B
:104FB00052F823F0C54F0008CF4F0008CF4F00082C
:104FC000CF4F0008FEF784FC0346FB7300E000BFF0
:104FD000FB7B18461037BD4680BD00BF80B584B04E
:104FE00000AF0346FB71FB79002B01D0002316E0D4
:104FF0000023FB81FB79032B0FD801A252F823F089
:10500000115000081B5000081B5000081B500008DE
:10501000FEF74CFC0346FB8100E000BFFB8918460D
:105020001037BD4680BD00BF80B582B000AF0346DB
:105030003960FB711346BB71FB79002B19D1104B02
:105040001B78012B15D0FB79032B14D801A252F841
:1050500023F000BF65500008775000087750000823
:1050600077500008BB799BB219463868FEF750FCB0
:1050700002E000BF00E000BF0837BD4680BD00BFB2
:10508000780A002080B584B000AF786039607B6812
:10509000DB78262B28BF2623FB73262200213868C5
:1050A00001F038FE7B680C33FA7B1946386801F052
:1050B00023FE00BF1037BD4680BD80B584B000AF71
:1050C000786039607B68DB78212B28BF2123FB7354
:1050D00021220021386801F01DFE7B680C33FA7B29
:1050E0001946386801F008FE00BF1037BD4680BD84
:1050F00090B589B002AF0446084611461A462346C9
:10510000FB710346BB800B46BB711346FB70BB882B
:10511000BB81BB79BB73FB78FB73BB6A3B6197F8C0
:105120002C303B7597F830307B7507F10C02F8791D
:105130008F2301930A23009303234D21FFF7A4F942
:1051400000BF1C37BD4690BD80B584B002AF78600B
:105150000B46FB70084B1878FA78E0230193FB7834
:10516000009313467A6841F28A31FFF78DF900BF48
:105170000837BD4680BD00BF8C0A0020B0B588B09E
:1051800004AF0446084611461A462346FB800346F0
:105190007B710B463B711346FB700023FB73FB785E
:1051A000FC7B7A79F98838790025029500250195EC
:1051B00000932346FFF79CFF00BF1037BD46B0BDEC
:1051C00080B582B000AF78600B46FB707B685A7A7E
:1051D000997A09020A43DB7A1B04134341F28B32AA
:1051E000934232D041F28B32934225DC41F28A3233
:1051F000934218D041F28A3293421DDC462B07D0ED
:105200004C2B19D1FB781946786800F029F81DE07D
:1052100010497868FFF736FF0F4B5B690E4A83F041
:105220000803536112E00D4AFB7813707B680C335E
:10523000184600F075FB09E0FB78C3F10103DBB20F
:105240007968184600F044F800E000BF00BF083756
:10525000BD4680BD380B0020000402408C0A0020AF
:1052600080B58CB000AF78600B46FB7007F10C0383
:1052700019467868FFF721FF97F82B30002B07D1EC
:10528000FB78C3F10103DBB27968184600F020F81F
:1052900097F82A30012B07D197F82B309A2B0CD096
:1052A00097F82B30002B08D0FB78C3F10103DBB259
:1052B0007968184600F00CF806E0388DFA7800237B
:1052C0000321FFF75BFF00BF3037BD4680BD000004
:1052D00080B582B000AF03463960FB71FEF7D2F8AB
:1052E00002460D4B1B68D31A40F6B832934206D9DA
:1052F0000A4B1B78012B02D1084B00221A70074B76
:105300001B78012B04D1FB7939681846FFF7D4F9D3
:1053100000BF0837BD4680BD880A0020790A0020FA
:1053200090B589B002AF0446084611461A46234696
:10533000FB710346BB710B467B7113463B71BB6A25
:10534000FB60BB793B747B797B743B79BB7497F8CA
:105350002C30FB7403233B7507F10C02F8793223E0
:1053600001930923009309230021FFF78DF800BF63
:105370001C37BD4690BD80B500AFFEF77FFA00F048
:1053800003F800BF80BD000080B500AF084B1B785C
:10539000002B0AD1074B0A224FF0FF31022000F008
:1053A00067FF034B01221A7000E000BF80BD00BF01
:1053B000860B0020B953000880B584B002AF264B9D
:1053C0001B7883F00103DBB2002B41D10023019352
:1053D000002300930023002200210020FFF7A0FFFC
:1053E000FEF7D0F90020FFF7F9FD0346BB8000234C
:1053F000FB8028E00020FFF7CBFD0346FB70174B36
:105400001B78002B1CD1F978154B164A0020FFF7AA
:105410006EFD0346BB70BB78012B04D100211148FF
:10542000FFF7CEFE0CE00E4BDB78012B08D1BB78EA
:10543000002B05D10C4B5B690B4A83F4004353618D
:10544000FB880133FB80FA88BB889A42D2D300E004
:1054500000BF0837BD4680BD860B0020780A0020BB
:10546000AC0C0020880B00200000024080B500AF8B
:10547000054B01224FF0FF31002000F0F9FE00F053
:1054800005F800BF80BD00BFA954000880B500AF7B
:10549000002000F039FF00BF80BD80B500AF0020C4
:1054A00000F048FF00BF80BD80B500AF3E4B1B68D9
:1054B00001333D4A13603C4B1B68B3F57A7F70D3D0
:1054C000394B1A68394BA3FB02139B09C82101FB16
:1054D00003F3D31A002B01D100F06CF8324B1A6899
:1054E000324BA3FB02139B09C82101FB03F3D31A20
:1054F000002B01D100F08DF82B4B1A682B4BA3FB2E
:1055000002139B09C82101FB03F3D31A002B01D11D
:1055100000F0AEF8244B1A68244BA3FB02139B093E
:10552000C82101FB03F3D31A002B01D100F0CFF8FF
:105530001D4B1A681D4BA3FB02139B09C82101FBDD
:1055400003F3D31A002B01D100F0E4F8164B1968CD
:10555000174BA3FB01239A0813469B001344CA1A56
:10556000002A01D100F002F90F4B1A680F4BA3FB80
:1055700002139B09C82101FB03F3D31A002B01D1AD
:1055800000F03EF9084B1A68084BA3FB02139B0975
:10559000C82101FB03F3D31A002B03D100F05EF9FD
:1055A00000E000BF80BD00BFC40C00201F85EB5190
:1055B000CDCCCCCC80B58AB000AFFDF763FF0346FD
:1055C0007B6000233B8100237B810023BB81002380
:1055D000FB8100233B8200237B820023BB820023CC
:1055E000FB8200233B8300237B830023BB830023B8
:1055F000FB8300233B8400237B840023BB843B1D6F
:1056000022221946012000F063F900BF2837BD4669
:1056100080BD80B58AB000AFFDF734FF03467B60E4
:1056200000233B8100237B810023BB810023FB817E
:1056300000233B8200237B820023BB820023FB826A
:1056400000233B8300237B830023BB830023FB8356
:1056500000233B8400237B840023BB843B1D222248
:1056600019461F2000F034F900BF2837BD4680BD21
:1056700080B58AB000AFFDF705FF03467B600023CD
:105680003B8100237B810023BB810023FB8100231E
:105690003B8200237B820023BB820023FB8200230A
:1056A0003B8300237B830023BB830023FB830023F6
:1056B0003B8400237B840023BB843B1D22221946AC
:1056C000032000F005F900BF2837BD4680BD80B536
:1056D00086B000AFFDF7D6FE03467B6000233B811A
:1056E00000237B810023BB810023FB8100233B82BD
:1056F00000237B820023BB820023FB823B1D1422FC
:105700001946042000F0E4F800F07AF800BF1837DA
:10571000BD4680BD80B588B000AFFDF7B3FE03463F
:105720003B600023BB800023FB8000233B810023E0
:105730007B810023BB810023FB8100233B8200236C
:105740007B820023BB820023FB8200233B83002358
:105750007B830023BB833B461E221946052000F0B5
:10576000B7F800BF2037BD4680BD000080B588B0C7
:1057700000AFFDF787FE03463B601E4B1B681E49CA
:105780001846FBF79FF803461846FBF761FA0346F5
:105790001BB2BB80194B1B6817491846FBF792F8E0
:1057A00003461846FBF754FA03461BB2FB8000235E
:1057B0003B8100237B810023BB810023FB810023ED
:1057C0003B8200237B820023BB820023FB820023D9
:1057D0003B830023BB760023FB7600233B773B46CD
:1057E0001D221946062000F073F800BF2037BD4681
:1057F00080BD00BFBC0E00200000C842C00E0020CB
:1058000080B588B000AFFDF73DFE03463B60002346
:10581000BB800023FB8000233B8100237B8100238E
:10582000BB810023FB8100233B8200237B8200237A
:10583000BB820023FB8200233B8300237B83002366
:10584000BB830023BB833B461E2219461C2000F06D
:105850003FF800BF2037BD4680BD000080B588B04E
:1058600000AFFDF70FFE03467B60174B5B889BB2D2
:105870001BB23B81154B1B781BB27B81134B5B78B2
:105880001BB2BB81114B9B781BB2FB810E4B1B885B
:105890009BB21BB23B8200237B820023BB8200238E
:1058A000FB8200233B8300237B830023BB830023F5
:1058B000FB833B1D1C2219461E2000F009F800BF87
:1058C0002037BD4680BD00BF24000020B80E002058
:1058D00080B5A2B000AF03463960FB711346BB71BF
:1058E00097F90630002B01DA7F23BB71FB793B72FD
:1058F00007F108030133BA793968184601F0FCF959
:10590000BB790133DAB207F1080311461846FFF7F5
:105910001BFCFDF737FF00BF8837BD4680BD000088
:1059200080B582B000AF7860FFF7B7FD7B681B7869
:10593000013B342B70D801A252F823F0175A00080B
:10594000175A0008175A0008175A0008175A000873
:10595000175A0008175A0008175A0008175A000863
:10596000175A0008175A0008175A0008175A000853
:10597000175A0008175A0008175A0008175A000843
:10598000175A0008175A0008175A0008175A000833
:10599000175A0008175A0008175A0008115A000829
:1059A000175A0008195A0008175A0008175A000811
:1059B000175A0008195A0008175A0008195A0008FF
:1059C000175A0008175A0008175A0008175A0008F3
:1059D000175A0008175A0008175A0008175A0008E3
:1059E000195A0008175A0008175A0008175A0008D1
:1059F000195A0008175A0008175A0008195A0008BF
:105A0000195A0008195A0008175A0008175A0008AE
:105A100000F006FE00E000BF00BF0837BD4680BDB5
:105A200080B582B000AF0346FB710B46BB801346C6
:105A30007B80B7F90230002B02D14FF6FF737B80D9
:105A4000BB88002B02D14FF47A73BB80FB79002B0B
:105A500006D10B4B1B78002B02D1094BFF221A7089
:105A6000074AFB791370B7F90420B7F90210054B08
:105A7000052000F0FDFB00BF0837BD4680BD00BF1C
:105A800002000020895A000880B500AF9C4BB3F992
:105A90003C30012B02D19B4B00221A709A4B1B68A1
:105AA0000133994A1360974B1B78152B00F29783AB
:105AB00001A252F823F000BF6B610008115B0008DF
:105AC000CD5B0008335C0008995C00083F5D00086E
:105AD000195D0008655D0008F15D00088B5D000838
