:020000040800F2
:1000000000C00020054D0008D1300008DD30000898
:10001000E3300008E9300008EF300008000000007D
:10002000000000000000000000000000F5300008A3
:100030000D310008000000001931000801310008EE
:100040004D4D00084D4D00084D4D00084D4D000828
:100050004D4D00084D4D00084D4D00084D4D000818
:100060004D4D00084D4D00084D4D0008253100084C
:10007000A5310008D53100084D4D00084D4D000850
:100080004D4D00084D4D00084D4D00084D4D0008E8
:100090004D4D00084D4D00084D4D00084D4D0008D8
:1000A0004D4D00084D4D00084D4D00084D4D0008C8
:1000B0004D4D00084D4D00084D4D00084D4D0008B8
:1000C0004D4D00084D4D00084D4D00084D4D0008A8
:1000D0004D4D00084D4D00084D4D00084D4D000898
:1000E0004D4D00084D4D00084D4D00084D4D000888
:1000F0004D4D0008F5310008000000000000000030
:100100000000000000000000000000004D4D00084D
:100110004D4D00084D4D0008413200084D4D00087E
:100120004D4D00084D4D00084D4D00084D4D000847
:100130004D4D000800000000000000004D4D00087B
:100140004D4D00084D4D00084D4D00084D4D000827
:100150004D4D00084D4D0008000000004D4D0008B9
:100160004D4D00084D4D000800000000000000004B
:10017000000000000000000000000000000000007F
:10018000000000004D4D00084D4D00084D4D000889
:10019000000000000000000000000000000000005F
:1001A000000000000000000000000000000000004F
:1001B00000000000000000004D4D0008000000009D
:1001C000000000000000000000000000000000002F
:1001D0000000000000000000000000004D4D00087D
:1001E00010B5054C237833B9044B13B10448AFF371
:1001F00000800123237010BD6C000020000000006F
:10020000E458000808B5034B1BB103490348AFF39A
:10021000008008BD0000000070000020E4580008C5
:1002200081F0004102E000BF83F0004330B54FEAA7
:1002300041044FEA430594EA050F08BF90EA020F14
:100240001FBF54EA000C55EA020C7FEA645C7FEAA7
:10025000655C00F0E2804FEA5454D4EB5555B8BFCA
:100260006D420CDD2C4480EA020281EA030382EA3B
:10027000000083EA010180EA020281EA0303362DCD
:1002800088BF30BD11F0004F4FEA01314FF4801CA0
:100290004CEA113102D0404261EB410113F0004FB2
:1002A0004FEA03334CEA133302D0524263EB430369
:1002B00094EA050F00F0A780A4F10104D5F1200E07
:1002C0000DDB02FA0EFC22FA05F2801841F1000162
:1002D00003FA0EF2801843FA05F359410EE0A5F136
:1002E00020050EF1200E012A03FA0EFC28BF4CF067
:1002F000020C43FA05F3C01851EBE37101F000451D
:1003000007D54FF0000EDCF1000C7EEB00006EEB29
:100310000101B1F5801F1BD3B1F5001F0CD34908B3
:100320005FEA30004FEA3C0C04F101044FEA44520A
:1003300012F5800F80F09A80BCF1004F08BF5FEA91
:10034000500C50F1000041EB045141EA050130BD71
:100350005FEA4C0C404141EB0101013C28BFB1F583
:10036000801FE9D291F0000F04BF01460020B1FACE
:1003700081F308BF2033A3F10B03B3F120020CDAA1
:100380000C3208DD02F1140CC2F10C0201FA0CF07F
:1003900021FA02F10CE002F11402D8BFC2F1200CE4
:1003A00001FA02F120FA0CFCDCBF41EA0C0190409A
:1003B000E41AA2BF01EB0451294330BD6FEA0404E3
:1003C0001F3C1CDA0C340EDC04F11404C4F12002CE
:1003D00020FA04F001FA02F340EA030021FA04F3E0
:1003E00045EA030130BDC4F10C04C4F1200220FA37
:1003F00002F001FA04F340EA0300294630BD21FA75
:1004000004F0294630BD94F0000F83F4801306BF3A
:1004100081F480110134013D4EE77FEA645C18BF2E
:100420007FEA655C29D094EA050F08BF90EA020FC5
:1004300005D054EA000C04BF1946104630BD91EABD
:10044000030F1EBF0021002030BD5FEA545C05D1C0
:100450004000494128BF41F0004130BD14F58004FF
:100460003CBF01F5801130BD01F0004545F0FE4173
:1004700041F470014FF0000030BD7FEA645C1ABFA8
:10048000194610467FEA655C1CBF0B46024650EADF
:10049000013406BF52EA033591EA030F41F400210B
:1004A00030BD00BF90F0000F04BF0021704730B591
:1004B0004FF4806404F132044FF000054FF0000166
:1004C00050E700BF90F0000F04BF0021704730B527
:1004D0004FF4806404F1320410F0004548BF4042FC
:1004E0004FF000013EE700BF42004FEAE2014FEA51
:1004F00031014FEA02701FBF12F07F4393F07F4F2C
:1005000081F06051704732F07F4208BF704793F02E
:100510007F4F04BF41F40021704730B54FF4607441
:1005200001F0004521F000411CE700BF50EA010244
:1005300008BF704730B54FF000050AE050EA0102ED
:1005400008BF704730B511F0004502D5404261EB5D
:1005500041014FF4806404F132045FEA915C3FF49E
:10056000D8AE4FF003025FEADC0C18BF03325FEA3B
:10057000DC0C18BF033202EBDC02C2F1200300FAEC
:1005800003FC20FA02F001FA03FE40EA0E0021FA11
:1005900002F11444BDE600BF4FF0FF3C06E000BF8F
:1005A0004FF0010C02E000BF4FF0010C4DF804CDFC
:1005B0004FEA410C7FEA6C5C4FEA430C18BF7FEABC
:1005C0006C5C1BD001B050EA410C0CBF52EA430CEA
:1005D00091EA030F02BF90EA020F0020704710F16A
:1005E000000F91EA030F58BF994208BF90422CBFF9
:1005F000D8176FEAE37040F0010070474FEA410CF2
:100600007FEA6C5C02D150EA013C07D14FEA430C0F
:100610007FEA6C5CD6D152EA033CD3D05DF8040B80
:10062000704700BF8446104662468C4619466346B2
:1006300000E000BF01B5FFF7B7FF002848BF10F189
:10064000000F01BD4DF808EDFFF7F4FF0CBF0120CE
:1006500000205DF808FB00BF4DF808EDFFF7EAFF4A
:1006600034BF012000205DF808FB00BF4DF808ED05
:10067000FFF7E0FF94BF012000205DF808FB00BFFA
:100680004DF808EDFFF7CEFF94BF012000205DF884
:1006900008FB00BF4DF808EDFFF7C4FF34BF012091
:1006A00000205DF808FB00BF80F0004002E000BFC2
:1006B00081F0004142001FBF5FEA410392EA030F4D
:1006C0007FEA226C7FEA236C6AD04FEA1262D2EB97
:1006D0001363C1BFD218414048404140B8BF5B429C
:1006E000192B88BF704710F0004F40F4000020F035
:1006F0007F4018BF404211F0004F41F4000121F04B
:100700007F4118BF494292EA030F3FD0A2F1010294
:1007100041FA03FC10EB0C00C3F1200301FA03F1D2
:1007200000F0004302D5494260EB4000B0F5000FF5
:1007300013D3B0F1807F06D340084FEA310102F1B4
:100740000102FE2A51D2B1F1004F40EBC25008BF66
:1007500020F0010040EA03007047490040EB000030
:10076000013A28BFB0F5000FEDD2B0FA80FCACF131
:10077000080CB2EB0C0200FA0CF0AABF00EBC2505E
:1007800052421843BCBFD0401843704792F0000F4C
:1007900081F4000106BF80F400000132013BB5E79F
:1007A0004FEA41037FEA226C18BF7FEA236C21D015
:1007B00092EA030F04D092F0000F08BF084670477A
:1007C00090EA010F1CBF0020704712F07F4F04D148
:1007D000400028BF40F00040704712F100723CBF5B
:1007E00000F50000704700F0004343F0FE4040F485
:1007F000000070477FEA226216BF08467FEA236343
:100800000146420206BF5FEA412390EA010F40F42D
:10081000800070474FF0000304E000BF10F0004379
:1008200048BF40425FEA000C08BF704743F0964360
:1008300001464FF000001CE050EA010208BF70477B
:100840004FF000030AE000BF50EA010208BF704702
:1008500011F0004302D5404261EB41015FEA010C17
:1008600002BF84460146002043F0B64308BFA3F10F
:100870008053A3F50003BCFA8CF2083AA3EBC253F1
:1008800010DB01FA02FC634400FA02FCC2F1200210
:10089000BCF1004F20FA02F243EB020008BF20F047
:1008A0000100704702F1200201FA02FCC2F12002AD
:1008B00050EA4C0021FA02F243EB020008BF20EAA2
:1008C000DC7070474FF0FF0C1CEAD0521EBF1CEAD0
:1008D000D15392EA0C0F93EA0C0F6FD01A4480EABE
:1008E000010C400218BF5FEA41211ED04FF00063A7
:1008F00043EA501043EA5111A0FB01310CF00040D3
:10090000B1F5000F3EBF490041EAD3715B0040EAF8
:10091000010062F17F02FD2A1DD8B3F1004F40EBC8
:10092000C25008BF20F00100704790F0000F0CF09B
:10093000004C08BF49024CEA502040EA51207F3A5F
:10094000C2BFD2F1FF0340EAC250704740F400003A
:100950004FF00003013A5DDC12F1190FDCBF00F02B
:1009600000407047C2F10002410021FA02F1C2F1D9
:10097000200200FA02FC5FEA310040F1000053EA75
:100980004C0308BF20EADC70704792F0000F00F0C3
:10099000004C02BF400010F4000F013AF9D040EAC9
:1009A0000C0093F0000F01F0004C02BF490011F45D
:1009B000000F013BF9D041EA0C018FE70CEAD1535B
:1009C00092EA0C0F18BF93EA0C0F0AD030F0004CDB
:1009D00018BF31F0004CD8D180EA010000F000408F
:1009E000704790F0000F17BF90F0004F084691F04D
:1009F000000F91F0004F14D092EA0C0F01D1420287
:100A00000FD193EA0C0F03D14B0218BF084608D14F
:100A100080EA010000F0004040F0FE4040F4000099
:100A2000704740F0FE4040F4400070474FF0FF0C2C
:100A30001CEAD0521EBF1CEAD15392EA0C0F93EA73
:100A40000C0F69D0A2EB030280EA010C49024FEAC5
:100A5000402037D04FF0805343EA111143EA10137E
:100A60000CF000408B4238BF5B0042F17D024FF436
:100A7000000C8B4224BF5B1A40EA0C00B3EB510F11
:100A800024BFA3EB510340EA5C00B3EB910F24BFFA
:100A9000A3EB910340EA9C00B3EBD10F24BFA3EB7F
:100AA000D10340EADC001B0118BF5FEA1C1CE0D147
:100AB000FD2A3FF650AF8B4240EBC25008BF20F0FA
:100AC000010070470CF0004C4CEA50207F32C2BF4E
:100AD000D2F1FF0340EAC250704740F400004FF0EB
:100AE0000003013A37E792F0000F00F0004C02BF1C
:100AF000400010F4000F013AF9D040EA0C0093F0E6
:100B0000000F01F0004C02BF490011F4000F013B3F
:100B1000F9D041EA0C0195E70CEAD15392EA0C0FA7
:100B200008D142027FF47DAF93EA0C0F7FF470AFDF
:100B3000084676E793EA0C0F04D14B023FF44CAF22
:100B400008466EE730F0004C18BF31F0004CCAD1B7
:100B500030F000427FF45CAF31F000437FF43CAFF3
:100B60005FE700BF4FF0FF3C06E000BF4FF0010C15
:100B700002E000BF4FF0010C4DF804CD4FEA4002F7
:100B80004FEA41037FEA226C18BF7FEA236C11D041
:100B900001B052EA530C18BF90EA010F58BFB2EBF4
:100BA000030088BFC81738BF6FEAE17018BF40F074
:100BB000010070477FEA226C02D15FEA402C05D128
:100BC0007FEA236CE4D15FEA412CE1D05DF8040BAD
:100BD000704700BF844608466146FFE70FB5FFF740
:100BE000C9FF002848BF10F1000F0FBD4DF808EDF8
:100BF000FFF7F4FF0CBF012000205DF808FB00BFE9
:100C00004DF808EDFFF7EAFF34BF012000205DF842
:100C100008FB00BF4DF808EDFFF7E0FF94BF01208F
:100C200000205DF808FB00BF4DF808EDFFF7D2FF8C
:100C300094BF012000205DF808FB00BF4DF808EDCF
:100C4000FFF7C8FF34BF012000205DF808FB00BF9C
:100C500053B94AB9002908BF00281CBF4FF0FF3123
:100C60004FF0FF3000F074B9ADF1080C6DE904CE1F
:100C700000F006F8DDF804E0DDE9022304B0704777
:100C80002DE9F047089E0D4604468846002B4DD1BD
:100C90008A42944668D9B2FA82F252B101FA02F35A
:100CA000C2F1200120FA01F10CFA02FC41EA03082A
:100CB00094404FEA1C45210CB8FBF5FE1FFA8CF757
:100CC00005FB1E8341EA03430EFB07F199420BD952
:100CD0001CEB03030EF1FF3080F01E81994240F2BD
:100CE0001B81AEF1020E63445B1AA4B2B3FBF5F0B4
:100CF00005FB103344EA034400FB07F7A7420AD977
:100D00001CEB040400F1FF3380F00881A74240F29D
:100D1000058164440238E41B40EA0E4000211EB104
:100D2000D4400023C6E90043BDE8F0878B4208D9D0
:100D3000002E00F0EE800021C6E900050846BDE85F
:100D4000F087B3FA83F100294AD1AB4202D3824241
:100D500000F2F980841A65EB030301209846002E07
:100D6000E2D0C6E90048DFE702B9FFDEB2FA82F25C
:100D7000002A40F09180A1EB0C054FEA1C471FFAB6
:100D80008CFE0121B5FBF7F307FB1350250C45EA58
:100D900000450EFB03F0A84208D91CEB050503F142
:100DA000FF3802D2A84200F2CB8043462D1AA4B2EB
:100DB000B5FBF7F007FB105544EA05440EFB00FEB7
:100DC000A64508D91CEB040400F1FF3502D2A64564
:100DD00000F2BB802846A4EB0E0440EA03409EE7E5
:100DE000C1F120078B4022FA07FC4CEA030C20FAE1
:100DF00007F405FA01F31C43FD404FEA1C4900FAD1
:100E000001F3B5FBF9F8200C1FFA8CFE09FB18550D
:100E100040EA054508FB0EF0A84202FA01F20BD9A0
:100E20001CEB050508F1FF3A80F08880A84240F2EB
:100E30008580A8F1020865442D1AA4B2B5FBF9F02B
:100E400009FB105544EA054500FB0EFEAE4508D9E6
:100E50001CEB050500F1FF346CD2AE456AD90238AF
:100E6000654440EA0840A0FB0294A5EB0E05A542AC
:100E7000C846A64656D353D05EB1B3EB080265EB25
:100E80000E0505FA07F722FA01F3CD401F43C6E924
:100E900000750021BDE8F087C2F1200320FA03F1BC
:100EA0000CFA02FC25FA03F395400D434FEA1C4768
:100EB0001FFA8CFEB3FBF7F107FB11302B0C43EA52
:100EC000004301FB0EF0984204FA02F408D91CEB2F
:100ED000030301F1FF382FD298422DD90239634420
:100EE0001B1AADB2B3FBF7F007FB103345EA03451D
:100EF00000FB0EF3AB4208D91CEB050500F1FF38EF
:100F000016D2AB4214D902386544ED1A40EA0141C9
:100F100038E73146304607E78646E5E61846FAE602
:100F20004B45A9D2B9EB020864EB0C0E0138A3E7DC
:100F30004046EAE7204694E74146D1E7D0467BE7C2
:100F4000023B654432E7084609E76444023842E759
:100F5000704700BF034613F8012B002AFBD1181A73
:100F60000138704700000000000000000000000091
:100F700001F0FF01102A2BDB10F0070F08D010F84A
:100F8000013B013A8B422DD010F0070F42B3F6D14E
:100F9000F0B441EA012141EA014122F007047FF067
:100FA00000070023F0E80256083C85EA010586EABE
:100FB000010685FA47F5A3FA87F586FA47F6A5FAFA
:100FC00087F68EB9EED1F0BC01F0FF0102F0070206
:100FD00032B110F8013B013A83EA010313B1F8D1B1
:100FE0000020704701387047002D06BF3546033892
:100FF000073815F0010F07D1013015F4807F02BFCB
:10100000013015F4C03F0130F0BC0138704700BF1B
:1010100080B483B000AF78600B46FB70FB7803F0C0
:101020000103D9B27A68936861F30003936000BF4B
:101030000C37BD4680BC704780B483B000AF786089
:101040007B6800221A707B6800225A707B6800223D
:101050009A707B680122DA7000BF0C37BD4680BCF5
:10106000704780B483B000AF786039603B681B780C
:1010700003F00103D9B27A68536861F3082353601F
:101080003B685B7803F00103D9B27A68936861F337
:10109000410393603B689B7803F00103D9B27A68FF
:1010A000936861F3CB2393603B68DB78013BDBB251
:1010B00003F01F03D9B27A68D36A61F31853D3627D
:1010C0007B680922C3F8D02000BF0C37BD4680BC26
:1010D000704780B483B000AF78607B6800221A70DC
:1010E0007B6800225A7000BF0C37BD4680BC704739
:1010F00080B483B000AF78607B681B780B4A03F044
:101100000F03D9B2536861F3134353607B685B7874
:10111000064A03F00103D9B2536861F3D753536011
:1011200000BF0C37BD4680BC704700BF00230140A4
:1011300080B483B000AF78600B46FB70FB7803F09F
:101140000303D9B27A68536861F31963536000BF2F
:101150000C37BD4680BC704780B483B000AF786068
:101160000B46FB70FB7803F00103D9B27A689368F1
:1011700061F30823936000BF0C37BD4680BC704705
:1011800080B483B000AF78600B46FB70FB7803F04F
:101190000103D9B27A68936861F34923936000BF71
:1011A0000C37BD4680BC704780B483B000AF786018
:1011B0007A68936843F00803936000BF0C37BD461C
:1011C00080BC704780B483B000AF78607B689B6858
:1011D000C3F3C003DBB2002B01D0012300E00023E6
:1011E00018460C37BD4680BC704780B483B000AF52
:1011F00078607A68936843F00403936000BF0C370B
:10120000BD4680BC704780B483B000AF78607B6817
:101210009B68C3F38003DBB2002B01D0012300E005
:10122000002318460C37BD4680BC704780B485B09B
:1012300000AF7860084611461A460346FB700B461D
:10124000BB7013467B70FB78092B1DD87B681B692C
:10125000FB60FA7813465B001344072202FA03F39B
:10126000DB431A46FB681340FB607978FA78134633
:101270005B00134401FA03F31A46FB681343FB6057
:101280007B68FA681A6145E0FB78132B21D87B68EC
:10129000DB68FB60FB78A3F10A0213465B00134492
:1012A000072202FA03F3DB431A46FB681340FB6094
:1012B0007978FB78A3F10A0213465B00134401FA24
:1012C00003F31A46FB681343FB607B68FA68DA6035
:1012D00020E07B681B6DFB60FB78A3F114021346D2
:1012E0005B001344072202FA03F3DB431A46FB6850
:1012F0001340FB607978FB78A3F1140213465B007E
:10130000134401FA03F31A46FB681343FB607B683E
:10131000FA681A65BB78062B1FD87B685B6BFB608D
:10132000BB785A1E13469B0013441F2202FA03F394
:10133000DB431A46FB681340FB60F978BB785A1E02
:1013400013469B00134401FA03F31A46FB68134348
:10135000FB607B68FA685A63B2E0BB780C2B1FD83D
:101360007B681B6BFB60BB78DA1F13469B00134442
:101370001F2202FA03F3DB431A46FB681340FB60AB
:10138000F978BB78DA1F13469B00134401FA03F384
:101390001A46FB681343FB607B68FA681A638FE0A8
:1013A000BB78102B21D87B68DB6AFB60BB78A3F18C
:1013B0000D0213469B0013441F2202FA03F3DB4382
:1013C0001A46FB681340FB60F978BB78A3F10D0265
:1013D00013469B00134401FA03F31A46FB681343B8
:1013E000FB607B68FA68DA626AE0BB78162B21D86A
:1013F0007B685B6DFB60BB78A3F1110213469B0019
:1014000013441F2202FA03F3DB431A46FB6813401E
:10141000FB60F978BB78A3F1110213469B001344DB
:1014200001FA03F31A46FB681343FB607B68FA6812
:101430005A6545E0BB781C2B21D87B689B6DFB600F
:10144000BB78A3F1170213469B0013441F2202FA34
:1014500003F3DB431A46FB681340FB60F978BB7863
:10146000A3F1170213469B00134401FA03F31A4633
:10147000FB681343FB607B68FA689A6520E07B6831
:10148000DB6DFB60BB78A3F11D0213469B00134488
:101490001F2202FA03F3DB431A46FB681340FB608A
:1014A000F978BB78A3F11D0213469B00134401FA9F
:1014B00003F31A46FB681343FB607B68FA68DA653E
:1014C00000BF1437BD4680BC704780B483B000AF06
:1014D00078600B46FB701346BB70FB7803F00F037C
:1014E000D9B27A68936861F31B639360BB7803F0A9
:1014F0000303D9B27A68936861F31D73936000BFE8
:101500000C37BD4680BC704780B483B000AF7860B4
:101510000B46FB70FB7803F00103D9B27A6893683D
:1015200061F39E73936000BF0C37BD4680BC70476B
:1015300080B485B000AF78600B46FB700023FB736E
:101540007B681A68FB781340002B02D10023FB73E1
:1015500001E00123FB73FB7B18461437BD4680BCBA
:101560007047000080B500AF012000F043F9214A28
:10157000136843F00103136000BF1E4B1B68C3F3E5
:101580004003DBB2012BF8D11A4A93686FF30103D1
:10159000936000BF174B9B68C3F38103DBB2002B42
:1015A000F8D1144B1B68134A23F0867323F480335D
:1015B0001360104B4FF080429A600E4B0E4A5A60F7
:1015C0000C4BD3F8A0300B4A03F4A043C2F8A03070
:1015D000084BD3F8A030074A43F47023C2F8A03078
:1015E000044B4FF41F02DA60002000F003F900BF43
:1015F00080BD00BF003802400230030080B485B0D7
:1016000000AF78600023FB737B681B0C03F1804301
:1016100003F50E331A687B6803F01F03012101FAFA
:1016200003F31A407B6803F01F03012101FA03F35F
:101630009A4202D00023FB7301E00123FB73FB7B82
:1016400018461437BD4680BC704780B483B000AFE5
:1016500078600B46FB70FB78012B16D17B681B0C66
:1016600003F1804303F50E3319687B6803F01F0311
:1016700001229A407B681B0C03F1804303F50E3373
:10168000184641EA0203036017E07B681B0C03F174
:10169000804303F50E3319687B6803F01F030122B2
:1016A00002FA03F3DA437B681B0C03F1804303F572
:1016B0000E33184601EA0203036000BF0C37BD4633
:1016C00080BC704780B483B000AF03460A46FB710C
:1016D0001346BB71FB79042B3ED801A252F823F0CC
:1016E000F5160008091700081D1700083117000833
:1016F000451700081B4ABB7903F00103D9B21368F0
:1017000061F30003136028E0164ABB7903F001037C
:10171000D9B2136861F3104313601EE0114ABB791C
:1017200003F00103D9B2136861F31863136014E086
:101730000C4ABB7903F00103D9B2136F61F30003C4
:1017400013670AE0074ABB7903F00103D9B2536F6C
:1017500061F30003536700E000BF00BF0C37BD46D4
:1017600080BC70470038024080B582B000AF0346AD
:10177000FB71012000F03EF8074AFB7903F00F03EC
:10178000D9B2936861F307139360002000F032F838
:1017900000BF0837BD4680BD0038024080B483B02A
:1017A00000AF0346FB71074AFB7903F00703D9B288
:1017B000936861F38C23936000BF0C37BD4680BCF7
:1017C000704700BF0038024080B483B000AF0346CA
:1017D000FB71074AFB7903F00703D9B2936861F301
:1017E0004F33936000BF0C37BD4680BC704700BFCD
:1017F0000038024080B483B000AF0346FB71FB7930
:10180000012B07D1094AD2F8A43043F03003C2F8C3
:10181000A43006E0054AD2F8A4306FF30513C2F8ED
:10182000A43000BF0C37BD4680BC70470038024072
:1018300080B485B000AF0346FB710023FB73FB79D6
:10184000022B14D0022B19DC002B02D0012B07D065
:1018500014E00D4B9B6EC3F30103DBB2FB730DE091
:10186000094B9B6EC3F38103DBB2FB7306E0064BAF
:101870009B6EC3F30113DBB2FB7300BFFB7B184607
:101880001437BD4680BC70470038024080B483B036
:1018900000AF0346FB71084AFB7903F00103D9B29C
:1018A000D2F8A03061F3CF33C2F8A03000BF0C37BC
:1018B000BD4680BC704700BF0038024090B482B083
:1018C00000AF0446084611461A462346FB710346FC
:1018D000BB800B467B801346BB71FB79002B06D186
:1018E000174AD2F8A03043F48053C2F8A030144A0B
:1018F000FB7903F00103D9B2536861F39653536047
:101900000F4ABB88C3F3080399B2536861F38E137F
:1019100053600B4A7B8803F00F03D9B2536861F31D
:1019200003035360064ABB7903F00703D9B2536837
:1019300061F31243536000BF0837BD4690BC704747
:101940000038024080B582B000AF0346FB71012031
:10195000FFF750FF074AFB7903F00303D9B29368FE
:1019600061F3010393600020FFF744FF00BF0837D5
:10197000BD4680BD0038024080B400AF044B9B6878
:10198000C3F38103DBB21846BD4680BC704700BF7D
:10199000003802402DE9B04F8EB000AFF860002350
:1019A0003B630023FB620023BB6200237B620023B6
:1019B0007B6300233B620023FB610023BB61FFF7D5
:1019C000DBFF0346FB75FB7D022B3DD0022B00F3B2
:1019D0008B80002B02D0012B25D085E0604BD3F803
:1019E000A030C3F38033DBB2002B0BD05C4BD3F8B9
:1019F000A030C3F30033DBB2002B03D0FB68594A9D
:101A00001A6002E0FB68584A1A60554BD3F8A430BC
:101A1000C3F30243DBB2BB61FB681A68BB69DA40FF
:101A2000FB681A6064E0FB684F4A1A604C4BD3F8BD
:101A3000A430C3F3C243DBB2BB61FB681A68BB6965
:101A4000DA40FB681A6053E0454B5B68C3F3805390
:101A5000DBB27B62424B5B68C3F388139BB23B6390
:101A60003F4B5B68C3F30303DBB2FB623C4B5B6839
:101A7000C3F30243DBB21A463C4B9B5CBB627B6AFE
:101A8000002B02D1384B7B6301E0374B7B637B6BD0
:101A900000229A4693463B6B00229846914608FBEB
:101AA0000BF20AFB09F31344AAFB08452B441D461D
:101AB000FB6ABA6A02FB03F300223B607A60D7E953
:101AC000002320462946FFF7C3F802460B4610467E
:101AD00019464FF000024FF00003420842EAC1727B
:101AE0004B08FB681A6003E0FB681F4A1A6000BFDE
:101AF0001B4B9B68C3F30313DBB23B621C4A3B6A7C
:101B000013441B78FB61FB681A68FB69DA40FB68C9
:101B10005A60134B9B68C3F38223DBB23B62154AC6
:101B20003B6A13441B78FB61FB685A68FB69DA4027
:101B3000FB68DA600A4B9B68C3F34233DBB23B625B
:101B40000D4A3B6A13441B78FB61FB685A68FB69CA
:101B5000DA40FB689A6000BF3837BD46BDE8B08FF9
:101B600000380240006CDC0200127A00FC580008C9
:101B700004590008145900081C59000880B483B0A7
:101B800000AF03460A46FB711346BB71FB79012B7C
:101B900002D0022B0AD013E00C4ABB7903F00103F8
:101BA000D9B2136861F30003136009E0074ABB79F7
:101BB00003F00103D9B2136861F31043136000BF4F
:101BC00000BF0C37BD4680BC704700BF00740040AA
:101BD00080B483B000AF03460A46FB711346BB7165
:101BE000BB79002B0CBF01230023DBB2BB71FB7957
:101BF000012B02D0022B0AD013E00C4ABB7903F070
:101C00000103D9B2136861F34103136009E0074A85
:101C1000BB7903F00103D9B2136861F35143136038
:101C200000BF00BF0C37BD4680BC70470074004049
:101C300080B483B000AF03460A46FB711346BB7104
:101C4000FB79012B02D0022B0AD013E00C4ABB799E
:101C500003F00103D9B2136861F38203136009E052
:101C6000074ABB7903F00103D9B2136861F39243C9
:101C7000136000BF00BF0C37BD4680BC704700BF7B
:101C80000074004080B483B000AF03460A46FB7185
:101C90001346BB71FB79012B02D0022B0AD013E053
:101CA0000C4ABB7903F00703D9B2136861F3C5038B
:101CB000136009E0074ABB7903F00703D9B2136840
:101CC00061F3D543136000BF00BF0C37BD4680BC35
:101CD000704700BF0074004080B483B000AF03467B
:101CE000FB71FB79012B02D0022B06D00BE0084AD6
:101CF000536843F00103536005E0054A536843F01D
:101D00000203536000BF00BF0C37BD4680BC704764
:101D10000074004080B483B000AF78600B467B80D5
:101D20007B687A881A6000BF0C37BD4680BC70475C
:101D300080B485B000AF78600023FB607A681368D8
:101D40006FF3000313607B6800221A607B68002237
:101D50005A607B6800229A607B680022DA607B68A8
:101D6000FB60FA6840F2FF631340B3F5C16F11D214
:101D7000174B5B68FA68D2B2083A1649A1FB021207
:101D8000120992000F2101FA02F21146104A0B4388
:101D9000536017E0FA6840F2FF631340B3F5D16F68
:101DA00010D20D4B5B68FA68D2B2083A0949A1FB20
:101DB0000212120992000F2101FA02F21146064A9C
:101DC0000B43536000BF1437BD4680BC704700BF53
:101DD00000600240CDCCCCCC0064024080B483B023
:101DE00000AF78600B467B807A887B685A6000BFC2
:101DF0000C37BD4680BC704780B485B000AFF8603A
:101E0000B9601346FB71FB79002B06D0FB681A689A
:101E1000BB681A43FB681A6006E0FB681A68BB6877
:101E2000DB431A40FB681A6000BF1437BD4680BC14
:101E3000704780B483B000AF78600B46FB70FB78CE
:101E400003F00103D9B27A68136861F300031360E9
:101E500000BF0C37BD4680BC7047000080B485B021
:101E600000AF78600023FB607B68B3F1805F03D92B
:101E7000094B1B68FB6002E0084B1B68FB60FA68BB
:101E80007B681340002B01D0012300E0002318469B
:101E90001437BD4680BC70470064024000600240B9
:101EA00080B483B000AF78607B68B3F1805F05D900
:101EB000064A7B6823F07043536002E0044A7B6863
:101EC000536000BF0C37BD4680BC704700640240C1
:101ED0000060024080B483B000AF78607B6800226D
:101EE0001A607B6800225A607B6800221A817B6836
:101EF00000225A817B6800221A737B6800225A7381
:101F00007B6800229A737B680022DA737B68002268
:101F10001A747B6800225A7400BF0C37BD4680BC1F
:101F2000704780B483B000AF786039607B681A680E
:101F30004BF6EF7313407A6813607B681B683A684E
:101F400012891A437B681A603B685B7C03F00303C9
:101F5000D9B27A68136861F30D3313603B68DB7B99
:101F600003F00303D9B27A68136861F38B2313601B
:101F70003B689B7B03F00303D9B27A68136861F373
:101F8000092313603B685B7B03F00103D9B27A68D5
:101F9000136861F3C71313603B681B7B03F00103F5
:101FA000D9B27A68136861F3861313603B681B7CAF
:101FB00003F00103D9B27A68136861F34513136023
:101FC0003B6859897A68536861F30F0353603B6833
:101FD0001A687B689A603B685A687B68DA6000BF61
:101FE0000C37BD4680BC704780B483B000AF7860CA
:101FF0000B46FB70FB7803F00103D9B27A68D2F884
:10200000003161F30003C2F8003100BF0C37BD4658
:1020100080BC704780B483B000AF78600B46FB7023
:10202000FB7803F07F03D9B27A68136861F3060383
:10203000136000BF0C37BD4680BC704780B485B0CC
:1020400000AF786039600023BB813B681B68FB816F
:1020500064E0FB8903F00103002B59D07B681B6807
:10206000BA895200032101FA02F2D2431A407B6876
:102070001A607B681B683A6892791146BA895200E7
:1020800001FA02F21A437B681A607B685B68BA89BE
:10209000012101FA02F2D2431A407B685A607B6840
:1020A0005B683A6812791146BA8901FA02F21A435A
:1020B0007B685A607B689B68BA895200032101FAE9
:1020C00002F2D2431A407B689A607B689B683A6848
:1020D000D2791146BA89520001FA02F21A437B689A
:1020E0009A607B68DB68BA895200032101FA02F228
:1020F000D2431A407B68DA607B68DB683A685279C1
:102100001146BA89520001FA02F21A437B68DA607A
:10211000FB895B08FB81BB890133BB81FB89002BF9
:1021200097D100BF00BF1437BD4680BC704780B454
:1021300083B000AF78607B684FF6FF721A607B68EF
:1021400000229A717B6800221A717B6800225A7102
:102150007B680122DA7100BF0C37BD4680BC704736
:1021600080B483B000AF78600B467B807A887B6850
:102170009A6100BF0C37BD4680BC704780B483B005
:1021800000AF78600B467B807A887B689A6200BFDC
:102190000C37BD4680BC704780B485B000AF786016
:1021A0000B46FB701346BB700023FB600023BB6033
:1021B000BA78FB7803F007039B0002FA03F3FB6095
:1021C000FB78DB08DBB2002B15D07B685A6AFB7802
:1021D00003F007039B000F2101FA03F3DB431A40CE
:1021E0007B685A627B685B6AFA681343BB607B68F2
:1021F000BA685A6214E07B681A6AFB7803F0070336
:102200009B000F2101FA03F3DB431A407B681A623B
:102210007B681B6AFA681343BB607B68BA681A6202
:1022200000BF1437BD4680BC7047000080B485B045
:1022300000AF78607B6803F00703FB600C4BDB6842
:10224000BB60BA684FF6FF031340BB60FB681A021D
:10225000BB68134343F0BF6343F40033BB60044ADD
:10226000BB68D36000BF1437BD4680BC704700BF59
:1022700000ED00E080B400AF044BDB681B0A03F004
:1022800007031846BD4680BC704700BF00ED00E064
:1022900080B483B000AF0346FB7197F90730002B81
:1022A0000BDBFB7903F01F02064997F907305B0946
:1022B000012000FA02F241F8232000BF0C37BD468E
:1022C00080BC704700E100E080B483B000AF0346FB
:1022D0003960FB7197F90730002B0ADB3B68DAB2F3
:1022E0000C4997F907301201D2B20B4483F800234E
:1022F0000AE03B68DAB20849FB7903F00F03043BBC
:102300001201D2B20B441A7600BF0C37BD4680BC16
:10231000704700BF00E100E000ED00E080B489B04C
:1023200000AFF860B9607A60FB6803F00703FB61F7
:10233000FB69C3F10703042B28BF0423BB61FB69BE
:102340000433062B02D9FB69033B00E000237B61C9
:102350004FF0FF32BB6902FA03F3DA43BB681A405D
:102360007B699A404FF0FF317B6901FA03F3D9434F
:102370007B680B40134318462437BD4680BC70472A
:1023800080B586B000AF0346B9607A60FB73002366
:102390007B61FFF76FFF03467A68B9681846FFF75D
:1023A000BDFF786197F90F3079691846FFF78CFF08
:1023B00097F90F301846FFF76BFF00BF1837BD467F
:1023C00080BD80B582B000AF0346FB71FB79184633
:1023D000FFF72CFF00BF0837BD4680BD80B483B037
:1023E00000AF78600B46FB70FB7803F00103D9B2B5
:1023F0007A68136861F30003136000BF0C37BD46B1
:1024000080BC704780B485B000AFF860B9607A6076
:10241000FB68BA68DA62FB687A689A62FA6853699C
:1024200043F00103536100BF1437BD4680BC7047C1
:1024300080B483B000AF78600B46FB70FB7803F08C
:102440000303D9B27A68136861F30923136000BFEC
:102450000C37BD4680BC704780B483B000AF786055
:102460000B46FB70FB7803F00703D9B27A68136858
:1024700061F30613136000BF0C37BD4680BC704784
:1024800080B483B000AF78600B467B807A6879882F
:10249000136B61F30F03136300BF0C37BD4680BCA1
:1024A0007047000080B489B000AFF8600B467A60D6
:1024B000FB720023FB830023BB8300237B83FB7A17
:1024C0009BB208333B83FB7A9BB20933FB827B6868
:1024D0005B781A463B8B02FA03F3FB837B689B789D
:1024E0001A46FB8A02FA03F3BB83FB685B68FA8A2D
:1024F000012101FA02F2D2431A40FB685A60FB68DC
:102500005A68BB8B1A43FB685A60FB685B683A8B5E
:10251000012101FA02F2D2431A40FB685A60FB68BB
:102520005A68FB8B1A43FB685A60FB7A7B837B8B70
:10253000062B3DD801A252F823F000BF5925000810
:10254000B12500086F250008B12500088525000881
:10255000B12500089B2500087B681B7803F0070362
:10256000D9B2FA68936961F30613936121E07B683D
:102570001B7803F00703D9B2FA68936961F30E334D
:10258000936116E07B681B7803F00703D9B2FA6801
:10259000D36961F30613D3610BE07B681B7803F00A
:1025A0000703D9B2FA68D36961F30E33D36100E04F
:1025B00000BFFB7A9BB25B009BB201333B83FB7A8B
:1025C0009BB25B009BB20333FB827B68DB781A46CD
:1025D0003B8B02FA03F3FB837B681B791A46FB8A69
:1025E00002FA03F3BB83FB681B6AFA8A012101FA32
:1025F00002F2D2431A40FB681A62FB681A6ABB8B6C
:102600001A43FB681A62FB681B6A3A8B012101FAC4
:1026100002F2D2431A40FB681A62FB681A6AFB8B0B
:102620001A43FB681A62FB7A9BB25B003B83FB7A1E
:1026300001339BB25B00FB827B685B791A46FB7AB5
:102640005B0002FA03F3FB837B689B791A46FB7AF3
:1026500001335B0002FA03F3BB83FB681B6AFA8A4F
:10266000012101FA02F2D2431A40FB681A62FB68A8
:102670001A6ABB8B1A43FB681A62FB681B6A3A8BA7
:10268000012101FA02F2D2431A40FB681A62FB6888
:102690001A6AFB8B1A43FB681A6200BF2437BD46D7
:1026A00080BC704780B487B000AFF8600B467A609A
:1026B000FB72FB7AFB82FB8A062B21D801A252F81F
:1026C00023F000BFE126000801270008E9260008E2
:1026D00001270008F126000801270008F926000854
:1026E000FB687A685A630CE0FB687A689A6308E0D2
:1026F000FB687A68DA6304E0FB687A681A6400E0D1
:1027000000BF00BF1C37BD4680BC704780B483B09B
:1027100000AF78600B46FB70FB7803F00103D9B281
:102720007A68136861F3C713136000BF0C37BD46A6
:1027300080BC704780B485B000AF78600B46FB70FA
:102740001346BB70FB78FB81FB89062B38D801A2AE
:1027500052F823F071270008C127000885270008D8
:10276000C127000899270008C1270008AD270008E5
:10277000BB7803F00103D9B27A68936961F3C303AC
:1027800093611EE0BB7803F00103D9B27A689369C4
:1027900061F3CB23936114E0BB7803F00103D9B25A
:1027A0007A68D36961F3C303D3610AE0BB7803F0AD
:1027B0000103D9B27A68D36961F3CB23D36100E016
:1027C00000BF00BF1437BD4680BC704780B485B0E1
:1027D00000AF78600B46FB701346BB70FB78FB8143
:1027E000FB89062B38D801A252F823F009280008EB
:1027F000592800081D280008592800083128000819
:102800005928000845280008BB7803F00103D9B215
:102810007A68936961F3820393611EE0BB7803F0E9
:102820000103D9B27A68936961F38A23936114E052
:10283000BB7803F00103D9B27A68D36961F38203EC
:10284000D3610AE0BB7803F00103D9B27A68D36997
:1028500061F38A23D36100E000BF00BF1437BD4697
:1028600080BC704780B483B000AF78600B46FB70CB
:10287000FB7803F00703D9B27A68536861F3061353
:10288000536000BF0C37BD4680BC704780B485B034
:1028900000AFF860B9601346FB71FB79012B06D1DC
:1028A000FB68DA68BB681A43FB68DA6009E0FB7909
:1028B000002B06D1FB68DA68BB68DB431A40FB6873
:1028C000DA6000BF1437BD4680BC704780B485B065
:1028D00000AF786039600023FB737B681A693B683E
:1028E0001340002B02D00123FB7301E00023FB7394
:1028F000FB7B18461437BD4680BC704780B483B05C
:1029000000AF786039603B68DA437B681A6100BFCA
:102910000C37BD4680BC704780B483B000AF786090
:102920000B46FB707B685A69FB781A437B685A61D7
:1029300000BF0C37BD4680BC704780B483B000AF89
:1029400078600B46FB70FB7803F00103D9B27A681C
:10295000536C61F3CF33536400BF0C37BD4680BC6A
:10296000704780B483B000AF786039603B689B7972
:1029700003F00103D9B27A68536C61F30C335364EA
:102980003B6819787A68536C61F3070353643B68BA
:102990005B7903F00103D9B27A68536C61F38A233F
:1029A00053643B681B7903F00103D9B27A68536C16
:1029B00061F3CB2353643B685B7803F00103D9B226
:1029C0007A68536C61F34D3353643B68DB7803F0F2
:1029D0000103D9B27A68536C61F38E3353643B6858
:1029E0009B7803F00303D9B27A68536C61F309232F
:1029F000536400BF0C37BD4680BC704780B58CB0B7
:102A000000AFF860B96011461A460B46FB711346D9
:102A1000BB7107F114031846FEF7BCFFFB687C4A44
:102A200093422CD10020FEF703FF034687F827309E
:102A300097F82730002B02D1FB69FB628AE097F8F8
:102A40002730012B02D17B69FB6283E097F82730A6
:102A5000032B03D14FF40043FB627BE06D4BFB6221
:102A60006D4BD3F8A030C3F30033DBB2012B71D12F
:102A7000FA6A13465B0013445B00FB626AE0FB6882
:102A8000664A93422CD10120FEF7D2FE034687F816
:102A9000273097F82730002B02D13B6AFB6259E0C0
:102AA00097F82730012B02D17B69FB6252E097F83F
:102AB0002730032B03D14FF40043FB624AE0554B10
:102AC000FB62554BD3F8A030C3F30033DBB2012BCC
:102AD00040D1FA6A13465B0013445B00FB6239E0A5
:102AE000FB684F4A93422CD10220FEF7A1FE034619
:102AF00087F8273097F82730002B02D13B6AFB621A
:102B000028E097F82730012B02D17B69FB6221E096
:102B100097F82730032B03D14FF40043FB6219E0F1
:102B20003C4BFB623C4BD3F8A030C3F30033DBB229
:102B3000012B0FD1FA6A13465B0013445B00FB6262
:102B400008E0FB68374A934202D1FB69FB6201E06F
:102B50003B6AFB62FA6A13469B0013445B001A4609
:102B6000BB68B2FBF3F3BB62B96A2F4BA3FB012333
:102B7000DA0813469B0013445B00CA1A042A06D8DD
:102B8000BB6A294AA2FB0323DB08BB6206E0BB6ADF
:102B9000254AA2FB0323DB080133BB62BB6A99B25F
:102BA000FA68936861F30F039360FB79022B0AD1F3
:102BB000FA68D36843F08053D360FA68D3686FF340
:102BC0000C33D36017E0FB79002B0AD1FA68D36885
:102BD0006FF31C73D360FA68D3686FF30C33D36060
:102BE00009E0FA68D3686FF31C73D360FA68D3689E
:102BF00043F48053D360BB7903F00303D9B2FA687E
:102C0000136961F30D33136100BF3037BD4680BDDA
:102C10000010014000127A000038024000440040D9
:102C20000048004000140140CDCCCCCC80B483B02F
:102C300000AF78600B46FB70FB78002B0AD17A68F6
:102C4000D3686FF34923D3607A68D3686FF38A231C
:102C5000D3601AE0FB78012B0AD17A68D3686FF34E
:102C60004923D3607A68D36843F48063D3600CE06F
:102C7000FB78022B09D17A68D36843F40073D360E0
:102C80007A68D36843F48063D36000BF0C37BD46D5
:102C900080BC704780B483B000AF78600B46FB7097
:102CA000FB7803F00103D9B27A68D36861F34D333E
:102CB000D36000BF0C37BD4680BC704780B483B082
:102CC00000AF78600B46FB70FB7803F00103D9B2CC
:102CD0007A68D36861F3C303D36000BF0C37BD4685
:102CE00080BC704780B483B000AF78600B46FB7047
:102CF000FB7803F00103D9B27A68D36861F38203E9
:102D0000D36000BF0C37BD4680BC704780B483B031
:102D100000AF78600B46FB70FB7803F00103D9B27B
:102D20007A68536961F3C713536100BF0C37BD461E
:102D300080BC704780B483B000AF78600B46FB70F6
:102D4000FB7803F00103D9B27A68536961F3861303
:102D5000536100BF0C37BD4680BC704780B483B060
:102D600000AF78600B46FB70FB78002B0AD17A68C5
:102D700053696FF3082353617A6853696FF34923EA
:102D8000536128E0FB78012B0AD17A68536943F438
:102D9000807353617A6853696FF3492353611AE072
:102DA000FB78022B0AD17A6853696FF308235361C9
:102DB0007A68536943F4007353610CE0FB78032B8A
:102DC00009D17A68536943F4807353617A6853690F
:102DD00043F40073536100BF0C37BD4680BC70479D
:102DE00080B400AF034B4AF6AA221A6000BFBD466A
:102DF00080BC70470030004080B483B000AF034611
:102E0000FB80044AFB88936000BF0C37BD4680BC42
:102E1000704700BF0030004080B483B000AF03466D
:102E2000FB71074AFB7903F00703D9B2536861F3DA
:102E30000203536000BF0C37BD4680BC704700BF23
:102E40000030004080B483B000AF0346FB71FB79D3
:102E5000002B03D1064B00221A6003E0044B45F21D
:102E600055521A6000BF0C37BD4680BC704700BF8A
:102E70000030004080B58AB000AF01214FF440100F
:102E8000FEF7E3FB01215B48FEF7DFFB01215A4817
:102E9000FEF7DBFB5948FEF74BFF3B1D1846FFF7DB
:102EA00019F80223FB810023BB81554BBB60012332
:102EB000FB7401237B74534B7B600123BB740023A1
:102EC0003B7402237B7501233B753B1D19464B4820
:102ED000FFF727F801214C48FFF786F805214B48FA
:102EE000FFF798F801214548FEF7A3FF07F12003FB
:102EF0001846FFF71CF9032387F8263001233B62AD
:102F000007F1200319464248FFF798F8032387F892
:102F1000263002233B6207F1200319463C48FFF7A5
:102F20008DF80020FEF7B2FC07F11C031846FEF7EF
:102F3000D0F800233B7700237B7707F11C0318466A
:102F4000FEF7D6F807F118031846FEF775F80123C7
:102F50003B7601237B760023BB760223FB7607F1C9
:102F6000180319462B48FEF77CF800212948FEF784
:102F7000DFF80723012200212648FEF757F907232F
:102F8000022201212348FEF751F90322072121489B
:102F9000FEF79BFA01211F48FEF7DEF801211D48CC
:102FA000FEF7EEF801211B48FEF732F800BF402182
:102FB0001848FEF7BDFA0346002BF8D01548FEF777
:102FC000F3F800BF1348FEF7FDF80346002BF9D1D4
:102FD0001048FEF70AF900BF0E48FEF714F9034641
:102FE000002BF9D101210B48FEF78EFA00BF2837DC
:102FF000BD4680BD0800440016003000306002402D
:10300000880000204C200140006002400C6102401A
:10301000000002400020014080B500AFFEF7A2FA98
:10302000274B4FF4AA721A6001212648FEF70DFBC8
:10303000254A136943F00303136101210420FEF7BD
:1030400041FB00BF2148FEF7D9FA0346012BF9D115
:1030500001210020FEF736FB00BF0120FEF7CEFA6B
:103060000346012BF9D1012301224B210020FEF759
:1030700025FC01210220FEF725FB00BF1920FEF7E9
:10308000BDFA0346012BF9D10020FEF76DFB0020AD
:10309000FEF79AFB0420FEF781FB0120FEF7AAFB56
:1030A0000220FEF74FFC00BFFEF766FC0346022B32
:1030B000FAD10020FEF79EFB01F09CFE00BF80BD10
:1030C000003C02401C004000007000400100740001
:1030D00080B400AF00BFBD4680BC704780B400AF75
:1030E000FEE780B400AFFEE780B400AFFEE780B437
:1030F00000AFFEE780B400AF00BFBD4680BC7047A4
:1031000080B400AF00BFBD4680BC704780B400AF44
:1031100000BFBD4680BC704780B400AF00BFBD4655
:1031200080BC704780B582B000AF0220FEF796FEEB
:103130000346002B2AD00220FEF7B2FE00211548DC
:10314000FEF777FE0023FB7112E0FA79124B5B88E1
:10315000591C88B210494880C3F309030F498A5C9F
:10316000D1B20D4A13440A461A71FB790133FB713F
:10317000FB790B2BE9D90A4B01221A700C21054867
:10318000FEF72CFE01210348FEF753FE00BF08376F
:10319000BD4680BD086002409805002090000020D8
:1031A0009101002080B500AF2020FEF757FE0346B6
:1031B000002B09D0054B00221A7000210448FEF7AD
:1031C00038FE2020FEF76CFE00BF80BD900100207D
:1031D0001C60024080B500AF4FF40070FEF73EFE69
:1031E0000346002B03D04FF40070FEF759FE00BFDA
:1031F00080BD000080B500AF02210F48FFF766FBDD
:103200000346002B09D002210B48FFF777FB01F0A2
:103210009DF920210948FFF77FFB01210648FFF7B0
:1032200055FB0346002B05D001210348FFF766FB41
:1032300001F092F900BF80BD002000400004004072
:1032400080B500AF01210848FFF740FB0346002B83
:1032500008D001210448FFF751FB044B1B680133E0
:10326000024A136000BF80BD001000408C000020A7
:1032700080B582B000AF3B461846FEF758FF0121EB
:103280004FF44010FEF7E1F901211548FEF7DDF992
:1032900010233B600323BB7100237B713B4619461F
:1032A0001048FEF7CBFE01210120FEF7C1FC0721EB
:1032B0000120FEF7E7FC01210120FEF789FC012136
:1032C0000120FEF75BFC40F2DA210748FEF722FD01
:1032D0000120FEF701FD00BF0837BD4680BD00BFDD
:1032E0001D004000000002400874004080B485B01A
:1032F00000AF78607B68002B2CD0194B1B68184AF4
:1033000023F00403136016497A681346DB00134464
:103310005B004B60124B00229A60114B1B68104AF5
:1033200043F0010313600E4B1B68FB60FB6803F066
:103330000103002B04D0FB6803F48033002BF2D090
:10334000074B1B68064A23F001031360044B00225D
:103350009A6000E000BF1437BD4680BC704700BFD4
:1033600010E000E080B582B000AF0346FB710AE0D8
:103370004FF4FA7000F010F84FF4FA7000F00CF807
:10338000FB79013BFB71FB79002BF1D100BF00BF42
:103390000837BD4680BD000080B582B000AF03464F
:1033A000FB80FB88B3F57A7F09D3FB880F4AA2FB29
:1033B00003239B099BB2DBB21846FFF7D3FFFB88C0
:1033C0000A4AA2FB031292094FF47A7101FB02F23E
:1033D0009B1AFB80FB884FF47A7202FB03F31846BA
:1033E000FFF784FF00BF0837BD4680BDD34D621094
:1033F00080B582B000AF3B461846FEF798FE01212B
:103400004FF44010FEF721F901212848FEF71DF97D
:1034100042212748FEF7B2FE4FF400412548FEF74F
:103420009FFE18212248FEF79BFE0223FB7100231A
:103430003B710123BB7102233B6001237B713B463F
:1034400019461B48FEF7FAFD0123FB7100233B716F
:103450000123BB714FF400433B6002237B713B4669
:1034600019461448FEF7EAFD0123FB7100233B7166
:103470000123BB7118233B6002237B713B46194635
:103480000B48FEF7DBFD0123FB7100233B71012399
:10349000BB7140233B6000237B713B4619460448C7
:1034A000FEF7CCFD00BF0837BD4680BD01003000EF
:1034B000000402400000024080B500AF0121124824
:1034C000FEF7C3F8952240F2E7311048FEF79AFF65
:1034D00000210E48FEF7C0FF00210C48FFF716F947
:1034E000012201210948FFF7D1F9012200213620EC
:1034F000FEF746FF00210548FFF7B4F90121034814
:10350000FEF76CFF00BF80BD0400400000100040CB
:1035100080B400AF064B1B684FF47A7203FB02F2D3
:10352000044B5B6A13441846BD4680BC704700BF1D
:103530008C0000200010004080B584B000AF012155
:103540003348FEF782F8952240F2E7313148FEF722
:1035500059FF00212F48FEF77FFF00212D48FEF77D
:1035600067FF00212B48FEF78BFF00212948FFF75A
:10357000CDF806233B7201237B730023BB7300232A
:10358000FB7200233B7300237B720023BB7207F1A5
:1035900008031A4600211F48FEF784FF40F2BB22B1
:1035A00000211C48FFF77EF8002200211948FFF790
:1035B000C1F8002200211748FFF708F90023BB716A
:1035C0000023FB7000237B7000233B7100237B7181
:1035D0000023BB7000233B703B4619460D48FFF7A4
:1035E000C0F9012203210B48FFF750F90222022102
:1035F0002D20FEF7C5FE01210648FFF79EF90121A7
:103600000448FEF7EBFE00BF1037BD4680BD00BF8B
:10361000080040000020004080B584B000AF786012
:1036200007F108031846FEF782FD01214FF4401010
:10363000FEF70BF801212B48FEF707F80223FB7376
:1036400000233B730223BB734FF40073BB60002362
:103650007B7307F1080319462348FEF7EFFC0722A6
:1036600009212148FEF798FD0223FB7300233B73D9
:103670000223BB734FF48063BB6000237B7307F1AD
:10368000080319461848FEF7D9FC07220A211648F4
:10369000FEF782FD0023002279681448FFF7AEF997
:1036A00001211248FFF70AFB01211048FFF71AFB1E
:1036B00000210E48FFF7BAFA01210C48FFF726FB5C
:1036C00001210A48FFF736FB00210848FFF746FBB7
:1036D00001210648FFF7DEFA00F00AF800BF1037B4
:1036E000BD4680BD040044000000024000100140BF
:1036F00080B586B000AF01213748FDF7A6FF3748F7
:10370000FEF716FB3B1D1846FEF7E4FB8023FB810A
:103710000023BB81324BBB600023FB7401237B740D
:10372000304B7B600023BB7400233B7401237B750B
:1037300000233B753B1D19462848FEF7F2FB01228A
:1037400002212648FEF758FB01212748FEF74CFCD2
:1037500018212648FEF75EFC2548FEF7E9FA3B1DD6
:103760001846FEF7B7FB0C23FB811023BB81214BCE
:10377000BB600023FB7401237B741A4B7B60002326
:10378000BB7400233B7401237B7500233B753B1DF9
:1037900019461748FEF7C5FB012202211448FEF71F
:1037A0002BFB01211048FEF71FFC19211248FEF7E0
:1037B00031FC022201210B20FEF7E2FD0122012152
:1037C0000C20FEF7DDFD01210448FEF732FB00BFAF
:1037D0001837BD4680BD00BF1600300008600240AB
:1037E000900000200410014000600240046102408B
:1037F0001C600240100100200861024080B582B0C8
:1038000000AF304B5A882F4B1B88D31A9BB2C3F39F
:103810000903BB802C4B1B78DBB2002B4ED1BB883D
:10382000802B23D9284B01221A7080212748FEF7CC
:10383000D5FA0023FB7110E0224B1B885A1C91B271
:10384000204A1180C3F30902FB791E490A44117909
:103850001F4AD154FB790133FB7197F90730002BD4
:10386000EADA01211948FEF7E4FA27E0BB88002BC9
:1038700024D0154B01221A70BB8819461348FEF755
:10388000ADFA0023BB7110E00E4B1B885A1C91B29D
:103890000C4A1180C3F30902BB790A490A44117921
:1038A0000B4AD154BB790133BB71BB799BB2BA8847
:1038B0009A42E9D801210548FEF7BBFA00BF083754
:1038C000BD4680BD94010020900100201C60024094
:1038D0001001002080B500AF0120FFF7B3FA0020EF
:1038E000FFF79AFA40F6B730FFF786FAFFF778FA53
:1038F00000BF80BD80B400AF084B00225A80074B48
:103900005A88064B1A80064B00225A80044B5A886C
:10391000034B1A8000BFBD4680BC7047980500204D
:103920009401002080B400AF064B5A88054B1B88D9
:10393000D31A9BB2C3F309039BB21846BD4680BCA1
:10394000704700BF9805002080B400AF0D4B5A8827
:103950000C4B1B88D31A9BB2C3F30903002B0BD06B
:10396000084B1B885A1C91B2064A1180C3F3090305
:10397000044A13441B7900E0FF231846BD4680BC6F
:10398000704700BF9805002080B483B000AF786016
:103990000B467B800FE07B685A1C7A600B4A52888A
:1039A000511C88B209494880C2F309021978074BB3
:1039B00013440A461A717B885A1E7A80002BEAD17A
:1039C00000BF00BF0C37BD4680BC7047940100208B
:1039D00080B584B000AF0346FB71FB79002B01D0AA
:1039E00000230EE00023FB73FB79002B02D0012B98
:1039F00005D005E0FFF7A8FF0346FB7300E000BF1A
:103A0000FB7B18461037BD4680BD80B584B000AF43
:103A10000346FB71FB79002B01D000230EE000234D
:103A2000FB81FB79002B02D0012B05D005E0FFF7CD
:103A300079FF0346FB8100E000BFFB891846103781
:103A4000BD4680BD80B582B000AF03463960FB71D2
:103A50001346BB71FB79002B0CD1FB79002B02D0F4
:103A6000012B09D009E0BB799BB219463868FFF7F2
:103A70008BFF02E000BF00E000BF0837BD4680BDFD
:103A800080B483B000AF78607B681B78032B12D8BA
:103A900001A252F823F000BFB73A0008B73A000875
:103AA000A93A0008B73A0008064B5B69054A83F05B
:103AB0000803536100E000BF00BF0C37BD4680BC67
:103AC000704700BF0004024080B582B000AF0346DB
:103AD0003960FB711346BB71FB79FE2B0BD1BB79AF
:103AE000002B08D102220021386801F087FA012357
:103AF000BB7101232FE0BB79032B14D0032B22DCF5
:103B0000012B02D0022B07D01DE03B68FA791A7016
:103B10000223BB7102231EE03B68FA795A7003232B
:103B2000BB71032317E0FB79EE2B03D10023BB719C
:103B3000042310E00023BB7102220021386801F049
:103B40005DFA002307E00023BB71022200213868E0
:103B500001F054FA002318460837BD4680BD80B5F1
:103B600000AFFFF7C7FE00F003F800BF80BD000004
:103B700080B500AF084B1B78002B0AD1074B0A22F7
:103B80004FF0FF31022000F01BFD034B01221A70A1
:103B900000E000BF80BD00BF9C090020A13B0008E1
:103BA00080B582B000AF174B1B7883F00103DBB206
:103BB000002B23D10020FFF728FF0346BB80002302
:103BC000FB8016E00020FFF703FF0346FB700E4B5F
:103BD0001A78FB780D491846FFF776FF0346BB704D
:103BE000BB78042B02D10948FFF74AFFFB88013359
:103BF000FB80FA88BB889A42E4D300E000BF083714
:103C0000BD4680BD9C0900209D090020A009002020
:103C100080B500AF054B01224FF0FF31002000F0CE
:103C2000CFFC00F005F800BF80BD00BF413C00089C
:103C300080B500AF002000F00FFD00BF80BD000088
:103C400080B500AF0D4B1B6801330C4A13600B4B62
:103C50001B68B3F57A7F0ED3084B1A68084BA3FB99
:103C600002139B09C82101FB03F3D31A002B03D1D4
:103C700000F008F800E000BF80BD00BFA4090020EC
:103C80001F85EB51F0B591B006AF164B1B68184677
:103C9000FCF72AFC04460D46134B1B681846FCF73C
:103CA00023FC02460B46114909780E460F49497814
:103CB00079600E49897807F10C00049179680391C5
:103CC0000296CDE9002322462B46094901F09EF9D0
:103CD00007F10C03184600F00DF800BF2C37BD4665
:103CE000F0BD00BF9C0B0020A00B0020980B002013
:103CF0002459000880B582B000AF78607868FDF77D
:103D000029F90346DBB21946786800F004F800BFD1
:103D10000837BD4680BD80B5A2B000AF78600B46C5
:103D2000FB7097F90330002B01DA7F23FB70FA78E0
:103D300007F108037968184601F052F9FA7807F19B
:103D4000080319460020FFF77DFEFFF757FD00BF6F
:103D50008837BD4680BD000080B582B000AF034605
:103D6000FB710B46BB8013467B80B7F90230002BFA
:103D700002D14FF6FF737B80BB88002B02D14FF43A
:103D80007A73BB80FB79002B06D10B4B1B78002B81
:103D900002D1094BFF221A70074AFB791370B7F959
:103DA0000420B7F90210054B052000F009FC00BF04
:103DB0000837BD4680BD00BF00000020C13D00089F
:103DC00080B500AF9C4BB3F93C30012B02D19B4B2B
:103DD00000221A709A4B1B680133994A1360974B63
:103DE0001B78152B00F2A38301A252F823F000BF29
:103DF000BB440008493E0008053F00086B3F00082F
:103E0000D13F00087740000851400008A940000851
:103E100035410008CF4000089B41000801420008DE
:103E200067420008D94200083F430008CB4300081E
:103E3000A5430008F1430008174400083D4400086A
:103E400063440008954400087D4B19687D4BA3FB33
:103E500001235A0813465B001344CA1A002A12D1E0
:103E6000794B9B6A784A83F400439362774B9B6952
:103E7000764A83F008039361744B9B69734A83F01D
:103E80001003936135E36E4B19686E4BA3FB01235E
:103E90005A0813465B001344CA1A012A12D16A4B0E
:103EA0009B69694A83F400439361684B9B6A674A44
:103EB00083F008039362654B9B69644A83F01003A7
:103EC000936116E35E4B19685E4BA3FB01235A080E
:103ED00013465B001344CA1A022A40F00A835A4B65
:103EE0009B69594A83F400439361584B9B69574A35
:103EF00083F008039361554B9B6A544A83F0100387
:103F00009362F6E24E4B1B6803F00103002B12D1C3
:103F10004D4B9B6A4C4A83F4004393624B4B9B6925
:103F20004A4A83F008039361484B9B69474A83F0F0
:103F300010039361DFE2424B1B6803F00103002B87
:103F400000F0D982404B9B693F4A83F40043936160
:103F50003E4B9B6A3D4A83F0080393623B4B9B694F
:103F60003A4A83F010039361C5E2354B1B6803F0B6
:103F70000103002B12D1344B9B6A334A83F4004374
:103F80009362324B9B69314A83F0080393612F4B54
:103F90009B692E4A83F010039361AEE2284B1B68A5
:103FA00003F00103002B00F0A882274B9B69264AEF
:103FB00083F400439361254B9B69244A83F00803F3
:103FC0009361224B9B6A214A83F01003936294E22F
:103FD0001B4B1B6803F00103002B12D11A4B9B698A
:103FE000194A83F400439361184B9B6A174A83F084
:103FF00008039362154B9B69144A83F01003936185
:104000007DE20F4B1B6803F00103002B00F0778269
:104010000D4B9B690C4A83F4004393610B4B9B69E6
:104020000A4A83F008039361084B9B6A074A83F0AE
:104030001003936263E200BF040A00200000002026
:10404000A8090020ABAAAAAA00000240000402406E
:10405000914B9B69904A83F4004393618F4B5B695A
:104060008E4A83F0080353618C4B9B698B4A83F023
:10407000100393615BE2884B5B69874A83F40043DA
:104080005361864B5B69854A83F040035361834BE0
:104090009B69824A83F008039361804B9B697F4A46
:1040A00083F01003936142E27B4B9B697A4A83F46D
:1040B00000439361794B9B69784A83F008039361CD
:1040C000764B5B69754A83F0100353612FE2744BA2
:1040D0001B6803F00103002B12D16F4B9B6A6E4AE1
:1040E00083F4004393626D4B9B6A6C4A83F0080330
:1040F00093626A4B9B69694A83F01003936100E203
:10410000674B1B6803F00103002B00F0FA81624B40
:104110009B69614A83F400439361604B9B695F4AEA
:1041200083F0080393615D4B9B695C4A83F0100345
:104130009361E6E15A4B1B6803F00103002B12D197
:10414000554B9B69544A83F400439361534B9B6ADC
:10415000524A83F008039362504B9B6A4F4A83F0A4
:1041600010039362CFE14E4B1B6803F00103002B59
:1041700000F0C981484B9B69474A83F4004393612F
:10418000464B9B69454A83F008039361434B9B6907
:10419000424A83F010039361B5E1414B1B6803F081
:1041A0000103002B12D13C4B9B6A3B4A83F4004332
:1041B00093623A4B9B69394A83F008039361374B0A
:1041C0009B6A364A83F0100393629EE1344B1B686E
:1041D00003F00103002B00F098812F4B9B692E4ABE
:1041E00083F4004393612D4B9B692C4A83F00803B1
:1041F00093612A4B9B69294A83F01003936184E100
:10420000274B1B6803F00103002B12D1224B9B6943
:10421000214A83F400439361204B9B691F4A83F03A
:10422000080393611D4B9B691C4A83F01003936143
:1042300076E11B4B1B6803F00103002B00F070813B
:10424000154B9B6A144A83F400439362134B9B6A99
:10425000124A83F008039362104B9B6A0F4A83F063
:10426000100393625CE10E4B1B6803F00103002B0B
:1042700018D1094B9B6A084A83F400439362074BA9
:104280009B69064A83F008039361044B9B69034AC8
:1042900083F01003936145E10000024000040240F6
:1042A000A80900209A4B1B6803F00103002B00F0C3
:1042B0003981984B9B69974A83F400439361964BED
:1042C0009B6A954A83F008039362934B9B6A924AD8
:1042D00083F01003936225E18D4B1B6803F001030B
:1042E000002B12D18B4B9B698A4A83F40043936164
:1042F000894B9B69884A83F008039361864B9B6ACC
:10430000854A83F0100393620EE1814B1B6803F032
:104310000103002B00F008817E4B9B6A7D4A83F4E9
:10432000004393627C4B9B6A7B4A83F00803936251
:10433000794B9B69784A83F010039361F4E0744BE6
:104340001B6803F00103002B12D1724B9B69714A69
:1043500083F400439361704B9B6A6F4A83F00803B8
:1043600093626D4B9B696C4A83F010039361DDE0AF
:10437000674B1B6803F00103002B00F0D780654BEF
:104380009B6A644A83F400439362634B9B69624A6D
:1043900083F008039361604B9B6A5F4A83F01003CC
:1043A0009362C3E05B4B9B695A4A83F40043936179
:1043B000594B9B6A584A83F008039362564B9B699A
:1043C000554A83F010039361B1E0524B9B6A514A06
:1043D00083F400439362504B9B694F4A83F0080378
:1043E00093614D4B9B694C4A83F0100393619EE0AF
:1043F000484B9B69474A83F400439361464B9B6952
:10440000454A83F008039361434B9B6A424A83F019
:10441000100393628BE03F4B9B693E4A83F4004359
:1044200093613D4B9B6A3C4A83F0080393623A4B8D
:104430009B6A394A83F01003936278E0354B9B6A9C
:10444000344A83F400439362334B9B6A324A83F0CD
:1044500008039362304B9B692F4A83F010039361EA
:1044600065E02C4B9B6A2B4A83F4004393622A4BF2
:104470009B69294A83F008039361274B9B6A264A6C
:1044800083F010039362244B9B69234A83F040031B
:1044900093614CE01F4B9B6A1E4A83F40043936276
:1044A0001D4B9B6A1C4A83F0080393621A4B9B6A5C
:1044B000194A83F01003936239E0164B9B69154A41
:1044C00083F400439361144B9B69134A83F0080300
:1044D0009361114B9B69104A83F010039361002391
:1044E00000220021052000F06BF80C4BFF221A700F
:1044F0001DE000BF1BE000BF19E000BF17E000BFD8
:1045000015E000BF13E000BF11E000BF0FE000BFE7
:10451000A809002000000240000402400000002022
:1045200000BF04E000BF02E000BF00E000BF00BF2A
:1045300080BD00BF80B400AF034B01221A7000BFE2
:10454000BD4680BC704700BFB009002080B500AFF9
:1045500000F00CFA00BF80BD80B500AFFEF7D8FFB9
:1045600003469AB2084B1A8000F03AF9074B1B78C1
:10457000FEF7CEFF03469AB2034B1B88D31A9AB2BA
:10458000034B1A8000BF80BDAE090020B009002097
:10459000AC09002080B500AFFEF72AFFFEF78CFFC4
:1045A000FEF768FCFEF764FEFEF7C6FF0348FFF760
:1045B00033F8FFF78FF900BF80BD00BF20A10700CF
:1045C00080B485B000AF7B600346FB730B46BB81B4
:1045D00013467B81FB7B1D497A6841F82320FA7BD7
:1045E0001B4913465B0013449B000B44BA891A8095
:1045F000FA7B174913465B0013449B000B440433BA
:104600007A891A80F97BFA7B11480B465B000B44D0
:104610009B0003440433B3F900000D4913465B00CB
:1046200013449B000B44023302461A80FA7B08496C
:1046300013465B0013449B000B440833054A1A6081
:1046400000BF1437BD4680BC704700BF300B002050
:10465000040A00208546000880B483B000AF0346FA
:10466000FB71FA79064913465B0013449B000B4427
:10467000083300221A6000BF0C37BD4680BC70476B
:10468000040A002080B582B000AF0346FB71FA79BE
:10469000304913465B0013449B000B44B3F90030D0
:1046A000002B1ED0F979FA792A480B465B000B449F
:1046B0009B0003440433B3F90000264913465B0012
:1046C00013449B000B44023302461A80FB79224AB2
:1046D00052F82330002B04D0FB791F4A52F82330C4
:1046E0009847FA791B4913465B0013449B000B441F
:1046F000B3F90030002B29DDFA79164913465B0027
:1047000013449B000B44B3F900309BB2013B9BB2B6
:1047100018B2104913465B0013449B000B44024639
:104720001A80FA790B4913465B0013449B000B4433
:10473000B3F90030002B09D1FA79064913465B0022
:1047400013449B000B44083300221A6000BF083753
:10475000BD4680BD040A0020300B002080B582B029
:1047600000AF0023FB7130E0FA791C4913465B006F
:1047700013449B000B4408331B68002B22D0FA79AA
:10478000164913465B0013449B000B440233B3F9F4
:104790000030002B16D1FA79104913465B00134400
:1047A0009B000B4402334FF6FF721A80FA790B49D3
:1047B00013465B0013449B000B4408331B68FA79D3
:1047C00010469847FB790133FB71FB79182BCBD945
:1047D00000BF00BF0837BD4680BD00BF040A0020EF
:1047E00080B483B000AF0023FB7125E0FA7917494C
:1047F00013465B0013449B000B440233B3F90030B3
:10480000002B16DDFA79114913465B0013449B0017
:104810000B440233B3F900309BB2013B9BB218B298
:104820000A4913465B0013449B000B4402330246C3
:104830001A80FB790133FB71FB79182BD6D900BFA5
:1048400000BF0C37BD4680BC704700BF040A002083
:1048500080B483B000AF00237B6000237B6002E064
:104860007B6801337B607B684CF24F329342F7D90F
:1048700000BF00BF0C37BD4680BC704780B582B01A
:1048800000AFFFF7E5FF0520FDF79BFDFEF7C4FB3A
:10489000FFF780FEFFF763F9FFF7BAF9184BFF2225
:1048A0005A70184B14224FF0FF310420FFF788FE96
:1048B000012203211448FDF7E9FF134B00225A623D
:1048C0004FF4FA70FEF768FD0023FB71FEF720FE3F
:1048D00003469AB20D4B1A80FB79002B03D1FFF7E8
:1048E00029FE0123FB71FFF739FFFEF711FE034696
:1048F0009AB2064B1B88D31A9AB2054B1A80E5E789
:10490000980B0020414B000800200040960B00202F
:10491000940B002080B582B000AF0346FB71FB7999
:10492000002B02D0012B09D011E040F2DA210E4811
:10493000FDF7F0F90120FDF7CFF911E040F2023167
:104940000948FDF7E7F90120FDF7C6F908E040F254
:1049500002310548FDF7DEF90120FDF7BDF900BF82
:1049600000BF0837BD4680BD0874004090B585B0D3
:1049700000AF2C4B5B889BB2FB602A4B1B889BB221
:10498000BB60F868FBF74AFF034627491846FBF768
:104990008FFE034625491846FBF794FF03467B60CC
:1049A000B868FBF73BFF03461F491846FBF780FE3C
:1049B00003461E491846FBF785FF03461C49184667
:1049C000FCF734F803463B601A4B1B681A4918463B
:1049D000FBF778FF03461C4618497868FBF772FF1F
:1049E000034619462046FBF765FE03461A46114B5F
:1049F0001A60134B1B6813491846FBF763FF034605
:104A00001C4611493868FBF75DFF034619462046EE
:104A1000FBF750FE03461A46094B1A6000BF1437D5
:104A2000BD4690BD880000200000A0413333533ABA
:104A3000C729BA3DA00B002048E17A3F0AD7A33C22
:104A40009C0B00206666663FCDCCCC3D000000008C
:104A500080B500AF364B1B78022B3CD0022B58DCC4
:104A6000002B02D0012B18D053E0324B1B681846A4
:104A7000FBF73AFD28A3D3E90023FBF7EDFD03463E
:104A8000002B00D146E04FF0FF3232211320FFF718
:104A900063F9274B01221A703CE0264B1B6818462D
:104AA000FBF722FD1EA3D3E90023FBF7D5FD034648
:104AB000002B00D12EE00120FFF72CFF1E4B00221F
:104AC0009A704FF0FF3232210F20FFF745F9184B53
:104AD00002221A701EE0174B1B681846FBF704FDF4
:104AE00011A3D3E90023FBF7B7FD0346002B00D148
:104AF00010E00120FFF70EFF0F4B00229A704FF0DD
:104B0000FF3264210520FFF727F9094B03221A70B1
:104B100000E000BF00BF80BD3333333333331D406B
:104B20000AD7A3703D0A1B40CDCCCCCCCCCC1840CE
:104B3000A60B00209C0B0020980B0020000000001A
:104B400080B500AF684B1B6868491846FCF776F8DB
:104B50000346002B12D0664B9B6A654A83F0020322
:104B60009362644B01229A704FF0FF324FF49671BA
:104B70000320FFF7F1F80420FFF76EFD5A4B1B6886
:104B80001846FBF7B1FC52A3D3E90023FBF764FD01
:104B90000346002B13D0564B9B6A554A83F0020301
:104BA0009362544B00229A704FF0FF324FF496718B
:104BB0000520FFF7D1F80420FFF74EFD84E04E4BAF
:104BC0001B684E491846FCF739F80346002B13D0F2
:104BD000474B9B6A464A83F002039362454B02228D
:104BE0009A704FF0FF324FF496710120FFF7B4F83E
:104BF0000420FFF731FD67E03B4B1B681846FBF7CD
:104C000073FC35A3D3E90023FBF744FD0346002BD7
:104C100022D0384B5B78FF2B1ED10020FFF77AFEA5
:104C20000120FEF7B9FB324B9B69314A83F0020346
:104C30009361304B01225A702E4BFF229A702C4BFD
:104C40009B692B4A83F0400393614FF0FF3232217E
:104C50001420FFF781F837E0234B1B6828491846DA
:104C6000FBF7E2FF0346002B2ED01F4B1B681846B4
:104C7000FBF73AFC1AA3D3E90023FBF7F7FC034642
:104C8000002B21D01B4B5B78FF2B1DD10020FFF7A1
:104C900041FE0120FEF780FB154B9B69144A83F00F
:104CA00002039361134B00225A70124BFF229A7039
:104CB0000F4B9B690E4A83F0400393614FF0FF3224
:104CC00032211020FFF748F8FFF7C2FE00BF80BD79
:104CD000CDCCCCCCCCCC12409A99999999992140C1
:104CE0009A999999999920409C0B002000002041A5
:104CF00000040240980B0020A00B0020CDCC4C40BB
:104D00000000C040002103E00B4B5B5843500431CE
:104D10000A480B4B42189A42F6D30A4A02E0002393
:104D200042F8043B084B9A42F9D300F011F800F026
:104D300033F9FFF7A3FD7047FC590008000000207D
:104D40006C0000206C000020BC0B0020FEE700007F
:104D500080B500AF0120FCF74DFD234A136843F0F6
:104D60000103136000BF204B1B68C3F34003DBB299
:104D7000012BF8D11C4A93686FF30103936000BFC5
:104D8000194B9B68C3F38103DBB2002BF8D1164BA0
:104D90001B68154A23F0867323F480331360124B8B
:104DA0004FF080429A60104B104A5A600E4BD3F875
:104DB000A0300D4A03F4A043C2F8A0300A4BD3F848
:104DC000A030094A43F47023C2F8A030064B4FF4D8
:104DD0001F02DA600020FCF70DFD054B4FF000626A
:104DE0009A6000BF80BD00BF00380240023003005F
:104DF00000ED00E02DE9B04F8CB000AF0023BB62A6
:104E000000237B6200233B620023FB610023FB62E3
:104E10000023BB6100237B6100233B61FCF7ACFDF9
:104E20000346FB73FB7B022B3FD0022B00F38D80EC
:104E3000002B02D0012B26D087E0514BD3F8A030B5
:104E4000C3F38033DBB2002B0BD04D4BD3F8A03033
:104E5000C3F30033DBB2002B03D04A4B4A4A1A603B
:104E600002E0484B494A1A60454BD3F8A430C3F3DB
:104E70000243DBB23B61434B1A683B6922FA03F3FE
:104E8000404A136065E03F4B404A1A603C4BD3F800
:104E9000A430C3F3C243DBB23B613A4B1A683B69AF
:104EA00022FA03F3374A136053E0354B5B68C3F3D0
:104EB0008053DBB2FB61324B5B68C3F388139BB258
:104EC000BB622F4B5B68C3F30303DBB27B622C4BEB
:104ED0005B68C3F30243DBB21A462D4B9B5C3B621B
:104EE000FB69002B02D1294BFB6201E0274BFB62DF
:104EF000FB6A00229A469346BB6A00229846914676
:104F000008FB0BF20AFB09F31344AAFB08452B44E8
:104F10001D467B6A3A6A02FB03F300223B607A601B
:104F2000D7E9002320462946FBF792FE02460B46AE
:104F3000104619464FF000024FF00003420842EAC3
:104F4000C1724B080F4B1A6003E00E4B0F4A1A60F8
:104F500000BF0B4B9B68C3F30313DBB2BB610D4A6D
:104F6000BB6913441B787B61064B1A687B6922FA84
:104F700003F3044A136000BF3037BD46BDE8B08F6D
:104F80000038024004000020006CDC0200127A00AD
:104F9000405900084859000870B50D4D0D4C641B70
:104FA000A4100026A64209D10B4D0C4C00F09AFC2F
:104FB000641BA4100026A64205D170BD55F8043B21
:104FC00098470136EEE755F8043B98470136F2E77B
:104FD000F4590008F4590008F4590008F859000879
:104FE0000A44914200F1FF3300D1704710B511F827
:104FF000014B03F8014F9142F9D110BD0244034621
:10500000934200D1704703F8011BF9E70EB400B5D5
:105010009CB01DAB029006906FF0004109480791CB
:105020000491094953F8042B05910068019302A9E2
:1050300000F046F9029B00221A701CB05DF804EBE8
:1050400003B07047080000200802FFFF38B505468E
:10505000002941D051F8043C0C1F002BB8BFE418C4
:1050600000F0EEFB1D4A136833B9636014602846F4
:10507000BDE8384000F0EABBA34208D920682118F7
:105080008B4201BF19685B6809182160EDE71A4679
:105090005B680BB1A342FAD911685018A0420BD13A
:1050A00020680144501883421160E0D118685B68A1
:1050B000536001441160DAE702D90C232B60D6E774
:1050C000206821188B4204BF19685B68636004BFC5
:1050D000091821605460CAE738BD00BFA80B002042
:1050E00070B50E4E0C463168054611B900F07CFBD8
:1050F00030602146284600F077FB431C0AD0C41CD0
:1051000024F00304A04207D0211A284600F06CFBCB
:10511000013001D14FF0FF34204670BDAC0B0020B0
:105120002DE9F041CD1C25F0030508350C2D38BFC5
:105130000C25002D074601DBA94205D90C233B6055
:1051400000263046BDE8F0812E4E00F079FB336832
:105150001C4634BB29463846FFF7C2FF431C0446B1
:105160004DD134682646002E40D12368314638465A
:1051700004EB030800F038FB80453AD12168033581
:105180006D1A25F0030508350C2D38BF0C2529466E
:105190003846FFF7A5FF01302BD023682B4423604E
:1051A0000EE02268521B1ED40B2A16D96119A342A5
:1051B000256018BF5960636808BF316062514B6059
:1051C000384604F10B0600F041FB26F00706231DCC
:1051D000F21AB6D09B1BA350B3E76268A3420CBF80
:1051E00032605A60ECE723466468B2E7344676687A
:1051F000B9E70C233B60384600F028FBA1E72560A7
:10520000DEE700BFA80B00202DE9F0478E689E4224
:1052100082460C4690461F4638D88A8912F4906F11
:1052200032D025680969A5EB0109656905EB4505DB
:1052300005EBD57501334B446D109D4238BF1D46BB
:10524000530531D52946FFF76BFF064650B90C23AD
:10525000CAF80030A38943F04003A3814FF0FF3028
:10526000BDE8F08721694A46FFF7BAFEA38923F417
:10527000906343F08003A381266165614E44A5EBF2
:1052800009052660A5603E46BE4200D93E4620681C
:105290003246414600F0BAFAA3689B1BA36023681C
:1052A000334423600020DBE72A4600F0D5FA0646A7
:1052B0000028E1D121695046FFF7C8FEC7E700008A
:1052C0002DE9F04F98468B891B069DB007460D4689
:1052D00014460ED50B6963B94021FFF721FF286002
:1052E000286120B90C233B604FF0FF30D1E0402310
:1052F0006B610023099320238DF82930CDF80C80B1
:105300003023DFF8A8818DF82A304FF001092346B9
:105310009A4613F8012B0AB1252AF9D1BAEB040BEE
:105320000BD05B46224629463846FFF76DFF013019
:1053300000F0AA80099A5A4409929AF80030002B8A
:1053400000F0A28000234FF0FF32CDE905230AF1DF
:10535000010A049307938DF853301A93544605229B
:1053600014F8011B5148FBF703FE049AD8B9D00684
:1053700044BF20238DF85330110744BF2B238DF8F1
:1053800053309AF800302A2B15D0079A5446002043
:105390004FF00A0C214611F8013B303B092B4ED946
:1053A000B0B1079214E0A0EB080309FA03F313432A
:1053B0000493A246D2E7039B191D1B680391002B9F
:1053C000BBBF5B4242F0020207930793B8BF04924F
:1053D00023782E2B0CD163782A2B35D1039B1A1DF1
:1053E0001B680392002BB8BF4FF0FF3302340593C4
:1053F000DFF8BCA0217803225046FBF7B9FD40B18D
:105400004023A0EB0A0003FA00F0049B034301349D
:10541000049314F8011B27488DF828100622FBF787
:10542000A7FD002838D0244B1BBB039B073323F078
:10543000070308330393099B3344099367E70CFB85
:1054400002320C460120A5E70023013405931946DA
:105450004FF00A0C204610F8012B303A092A03D9E4
:10546000002BC5D00591C3E70CFB012104460123A5
:10547000F0E703AB00932A46104B04A93846AFF37C
:105480000080421C0646D6D1AB895B063FF52CAFA7
:1054900009981DB0BDE8F08F03AB00932A46074B77
:1054A00004A9384600F07AF8EBE700BF5859000825
:1054B0005E59000862590008000000000952000807
:1054C0002DE9F047164699468A680B69DDF8208079
:1054D0009342B8BF1346336091F8432007460C4609
:1054E0000AB1013333602368990642BF336802333F
:1054F0003360256815F0060506D104F1190AE36842
:1055000032689B1AAB4226DC94F84320131E2268B3
:1055100018BF012392062BD404F1430249463846B2
:10552000C04701301ED02368E568326803F00603E7
:10553000042B08BFAD1AA36822690CBF25EAE575E4
:1055400000259342C4BF9B1AED1800261A34B542B9
:105550001AD1002008E00123524649463846C04788
:10556000013003D14FF0FF30BDE8F0870135C6E7C9
:10557000E1185A1C302081F84300224494F8451069
:1055800082F843100233C7E70123224649463846D2
:10559000C0470130E6D00136D9E700002DE9FF47CA
:1055A0000F7E0C9D782F914680460C469A4601F15D
:1055B000430207D8622F0AD8002F00F0D880582F56
:1055C00000F0A38004F1420584F842703AE0A7F1AC
:1055D0006303152BF6D801A151F823F035560008C6
:1055E00049560008C5550008C5550008C5550008AE
:1055F000C555000849560008C5550008C55500089E
:10560000C5550008C55500085557000879560008CB
:1056100037570008C5550008C555000877570008DA
:10562000C555000879560008C5550008C55500083D
:105630003F5700082B681A1D1B682A6004F14205B9
:1056400084F842300123A3E020682968060601F1AE
:1056500004030AD50E682B60002E03DA2D23764250
:1056600084F843305E480A2319E00E682B6010F07E
:10567000400F18BF36B2EFE72B682068191D29606C
:10568000010601D51E6802E04606FBD51E88544877
:105690006F2F0CBF08230A23002184F8431065688C
:1056A000A560002DA2BF216821F0040121600EB980
:1056B000002D4DD01546B6FBF3F103FB1167C75D16
:1056C00005F8017D3746BB420E46F4D9082B0BD1B5
:1056D0002368DE0708D5236961689942DEBF30235D
:1056E00005F8013C05F1FF35521B2261CDF800A001
:1056F0004B4603AA21464046FFF7E2FE01304CD15B
:105700004FF0FF3004B0BDE8F087354881F84570B0
:105710002968236851F8046B29601D0614D5DF073A
:1057200044BF43F0200323601EB9236823F0200305
:1057300023601023B0E7236843F02003236078231D
:10574000284884F84530E3E7590648BFB6B2E6E793
:105750001546BBE72B6826686169181D2860350669
:105760001B6801D5196002E07006FBD51980002383
:1057700023611546BAE72B681A1D2A601D68626806
:1057800000212846FBF7F4FB08B1401B606063680A
:105790002361002384F84330A8E723692A46494659
:1057A0004046D0470130ABD023689B0713D4E06854
:1057B000039B9842B8BF1846A4E7012332464946E6
:1057C0004046D04701309BD00135E36803995B1A0E
:1057D000AB42F2DCEBE7002504F11906F5E700BF68
:1057E000695900087A59000838B5064D0023044667
:1057F00008462B6000F068F8431C02D12B6803B107
:10580000236038BDB40B002070477047884210B544
:1058100001EB020402D98442234607D8431EA14269
:1058200008D011F8012B03F8012FF8E702440146D4
:105830008A4200D110BD13F8014D02F8014DF7E77F
:105840000148FFF7E1BF00BFB00B00200148FFF7A0
:10585000DCBF00BFB00B00202DE9F04180461446AC
:105860000E4621B9BDE8F0411146FFF759BC2AB9EF
:10587000FFF7ECFB25462846BDE8F08100F01BF859
:105880008442074602D8B4EB500F12D82146404656
:10589000FFF746FC05460028EDD0BC4222463146C3
:1058A00028BF3A46FFF79CFB31464046FFF7CEFB48
:1058B000E1E73546DFE751F8043C181F002BBCBF79
:1058C0000B58C01870470000044A05491368002BA4
:1058D00008BF0B461844106018467047B80B0020EC
:1058E000C00B0020F8B500BFF8BC08BC9E4670474E
:0C58F000F8B500BFF8BC08BC9E4670472D
:1058FC00010204081020000000000000000000005D
:10590C000102030406070809000000000102030459
:10591C0000000000010203046368616E6E656C7325
:10592C003A25662C25662C25662C25662C25660AC0
:10593C00000000000102040810200000000000001C
:10594C00000000000102030406070809232D302B78
:10595C002000686C4C006566674546470030313264
:10596C0033343536373839414243444546003031BB
:10597C00323334353637383961626364656600001A
:10598C00000000000000000000000000000000000B
:10599C0000000000000000000000000000000000FB
:1059AC0000000000000000000000000000000000EB
:1059BC0000000000000000000000000000000000DB
:1059CC0000000000000000000000000000000000CB
:1059DC0000000000000000000000000000000000BB
:0859EC0094B2FF7F01000000EE
:0459F40005020008A0
:0459F800E1010008C1
:1059FC00FF00000000127A000C00002000000000E4
:105A0C00AC590008CC5900088C5900080000000063
:105A1C00000000000000000000000000000000007A
:105A2C00000000000000000000000000000000006A
:105A3C00000000000000000000000000000000005A
:105A4C00000000000000000000000000000000004A
:0C5A5C000000000000000000000000003E
:0400000508004D059D
:00000001FF
