:020000040800F2
:1000000000C00020D528000825050008310500089B
:10001000370500083D050008430500080000000002
:10002000000000000000000000000000490500087A
:100030005505000800000000610500086D05000876
:100040001D2900081D2900081D2900081D29000878
:100050001D2900081D2900081D2900081D29000868
:100060001D2900081D2900081D2900081D29000858
:1000700079050008850500081D2900081D290008CC
:100080001D2900081D2900081D2900081D29000838
:100090001D2900081D2900081D2900081D29000828
:1000A0001D2900081D2900081D2900081D29000818
:1000B0001D2900081D2900081D2900081D29000808
:1000C0001D2900081D2900081D2900081D290008F8
:1000D0001D2900081D2900081D2900081D290008E8
:1000E0001D2900081D2900081D2900081D290008D8
:1000F0001D2900081D290008000000000000000064
:100100000000000000000000000000001D290008A1
:100110001D2900081D290008910500089D050008FB
:100120001D2900081D2900081D2900081D29000897
:100130001D29000800000000000000001D29000823
:100140001D2900081D2900081D2900081D29000877
:100150001D2900081D290008000000001D290008B5
:100160001D2900081D2900080000000000000000F3
:10017000000000000000000000000000000000007F
:10018000000000001D2900081D2900081D29000885
:10019000000000000000000000000000000000005F
:1001A000000000000000000000000000000000004F
:1001B00000000000000000001D29000800000000F1
:1001C000000000000000000000000000000000002F
:1001D0000000000000000000000000001D290008D1
:1001E00010B5054C237833B9044B13B10448AFF371
:1001F00000800123237010BD0400002000000000D7
:100200006829000808B5034B1BB103490348AFF345
:10021000008008BD000000000800002068290008D8
:1002200053B94AB9002908BF00281CBF4FF0FF315D
:100230004FF0FF3000F074B9ADF1080C6DE904CE59
:1002400000F006F8DDF804E0DDE9022304B07047B1
:100250002DE9F047089E0D4604468846002B4DD1F7
:100260008A42944668D9B2FA82F252B101FA02F394
:10027000C2F1200120FA01F10CFA02FC41EA030864
:1002800094404FEA1C45210CB8FBF5FE1FFA8CF791
:1002900005FB1E8341EA03430EFB07F199420BD98C
:1002A0001CEB03030EF1FF3080F01E81994240F2F7
:1002B0001B81AEF1020E63445B1AA4B2B3FBF5F0EE
:1002C00005FB103344EA034400FB07F7A7420AD9B1
:1002D0001CEB040400F1FF3380F00881A74240F2D8
:1002E000058164440238E41B40EA0E4000211EB13F
:1002F000D4400023C6E90043BDE8F0878B4208D90B
:10030000002E00F0EE800021C6E900050846BDE899
:10031000F087B3FA83F100294AD1AB4202D382427B
:1003200000F2F980841A65EB030301209846002E41
:10033000E2D0C6E90048DFE702B9FFDEB2FA82F296
:10034000002A40F09180A1EB0C054FEA1C471FFAF0
:100350008CFE0121B5FBF7F307FB1350250C45EA92
:1003600000450EFB03F0A84208D91CEB050503F17C
:10037000FF3802D2A84200F2CB8043462D1AA4B225
:10038000B5FBF7F007FB105544EA05440EFB00FEF1
:10039000A64508D91CEB040400F1FF3502D2A6459E
:1003A00000F2BB802846A4EB0E0440EA03409EE71F
:1003B000C1F120078B4022FA07FC4CEA030C20FA1B
:1003C00007F405FA01F31C43FD404FEA1C4900FA0B
:1003D00001F3B5FBF9F8200C1FFA8CFE09FB185548
:1003E00040EA054508FB0EF0A84202FA01F20BD9DB
:1003F0001CEB050508F1FF3A80F08880A84240F226
:100400008580A8F1020865442D1AA4B2B5FBF9F065
:1004100009FB105544EA054500FB0EFEAE4508D920
:100420001CEB050500F1FF346CD2AE456AD90238E9
:10043000654440EA0840A0FB0294A5EB0E05A542E6
:10044000C846A64656D353D05EB1B3EB080265EB5F
:100450000E0505FA07F722FA01F3CD401F43C6E95E
:1004600000750021BDE8F087C2F1200320FA03F1F6
:100470000CFA02FC25FA03F395400D434FEA1C47A2
:100480001FFA8CFEB3FBF7F107FB11302B0C43EA8C
:10049000004301FB0EF0984204FA02F408D91CEB69
:1004A000030301F1FF382FD298422DD9023963445A
:1004B0001B1AADB2B3FBF7F007FB103345EA034557
:1004C00000FB0EF3AB4208D91CEB050500F1FF3829
:1004D00016D2AB4214D902386544ED1A40EA014104
:1004E00038E73146304607E78646E5E61846FAE63D
:1004F0004B45A9D2B9EB020864EB0C0E0138A3E717
:100500004046EAE7204694E74146D1E7D0467BE7FC
:10051000023B654432E7084609E76444023842E793
:10052000704700BF80B400AF00BFBD4680BC7047BD
:1005300080B400AFFEE780B400AFFEE780B400AF48
:10054000FEE780B400AFFEE780B400AF00BFBD4659
:1005500080BC704780B400AF00BFBD4680BC704710
:1005600080B400AF00BFBD4680BC704780B500AF0F
:1005700000F02CFC00BF80BD80B400AF00BFBD46C2
:1005800080BC704780B400AF00BFBD4680BC7047E0
:1005900080B400AF00BFBD4680BC704780B400AFE0
:1005A00000BFBD4680BC704780B400AF044BDB6821
:1005B0001B0A03F007031846BD4680BC704700BF06
:1005C00000ED00E080B483B000AF03463960FB71FA
:1005D00097F90730002B0ADB3B68DAB20C4997F930
:1005E00007301201D2B20B4483F800230AE03B68C3
:1005F000DAB20849FB7903F00F03043B1201D2B2CF
:100600000B441A7600BF0C37BD4680BC704700BF54
:1006100000E100E000ED00E080B489B000AFF860D8
:10062000B9607A60FB6803F00703FB61FB69C3F103
:100630000703042B28BF0423BB61FB690433062B8B
:1006400002D9FB69033B00E000237B614FF0FF32DE
:10065000BB6902FA03F3DA43BB681A407B699A402C
:100660004FF0FF317B6901FA03F3D9437B680B40FC
:10067000134318462437BD4680BC704780B500AF91
:1006800000F054FE274B4FF4AA721A60012126484D
:1006900000F0BFFE254A136943F0030313610121F3
:1006A000042000F0F3FE00BF214800F08BFE03465B
:1006B000012BF9D10121002000F0E8FE00BF01204C
:1006C00000F080FE0346012BF9D1012301224B21CA
:1006D000002001F00FF80121022000F0D7FE00BF3A
:1006E000192000F06FFE0346012BF9D1002000F025
:1006F0001FFF002000F04CFF042000F033FF01201A
:1007000000F05CFF022001F039F800BF01F050F862
:100710000346022BFAD1002000F050FF02F008F847
:1007200000BF80BD003C02401C0040000070004043
:100730000100740080B500AF01214FF4401000F0BB
:1007400068FE01210E4800F064FE01210D4800F012
:1007500060FE01210C4800F05CFE01210B4800F016
:1007600058FE01210A4800F054FE0121094800F01A
:1007700050FE0121084800F04CFE00BF80BD00BFC4
:100780000100300016003000040040000500400069
:100790001D004000040044000800440080B500AF84
:1007A000032001F088FCFFF7FFFE034600220F2123
:1007B0001846FFF731FF034619464FF0FF30FFF7A9
:1007C00001FF002200210C2001F054FC0022002136
:1007D0000D2001F04FFC00220021362001F04AFCE0
:1007E00000220121372001F045FC00BF80BD000040
:1007F00080B582B000AF3B46184601F013FB0221E2
:100800001E4801F036FB4FF400411D4801F023FB68
:1008100018211A4801F01FFB0223FB7100233B71D2
:100820000123BB7102233B6001237B713B461946C8
:10083000124801F07EFA0123FB7100233B71012372
:10084000BB714FF400433B6002237B713B4619466A
:100850000B4801F06EFA0123FB7100233B71012369
:10086000BB7118233B6002237B713B46194603484A
:1008700001F05FFA00BF0837BD4680BD00040240AA
:100880000000024080B582B000AF3B46184601F040
:10089000C9FA0223FB7100233B710223BB714FF4A1
:1008A00000733B6000237B713B461946234801F0EF
:1008B00040FA07220921214801F0E9FA0223FB71DD
:1008C00000233B710223BB714FF480633B60002324
:1008D0007B713B461946194801F02BFA07220A2181
:1008E000164801F0D4FA0021002000F085FE002314
:1008F00000224FF4E131124801F08CFC0121104834
:1009000001F0E8FD01210E4801F0F8FD00210C483E
:1009100001F098FD01210A4801F004FE0121084878
:1009200001F014FE0021064801F024FE01210448D4
:1009300001F0BCFD00BF0837BD4680BD000002408D
:100940000010014080B582B000AF3B46184601F070
:1009500069FA10233B600323BB7100237B713B4684
:100960001946094801F0E5F90021012001F07CF861
:100970000021012001F048F80121012001F01AF8BE
:1009800000BF0837BD4680BD0000024080B584B07E
:1009900000AF07F10803184601F044FA0323BB73C4
:1009A0000123BB6007F108031946394801F0C1F97A
:1009B0000323BB730223BB6007F1080319463448C5
:1009C00001F0B7F9002000F07DFE3B1D184600F055
:1009D00064FA00233B7100237B713B1D184600F035
:1009E0006BFA3B46184600F00BFA01233B700023DC
:1009F0007B700023BB700223FB703B4619462548E1
:100A000000F013FA0021234800F076FA07230122B0
:100A10000021204800F0EEFA0723022201211D48A0
:100A200000F0E8FA002207211A4800F032FC012108
:100A3000184800F075FA0121164800F085FA0121E6
:100A4000144800F0C9F900BF4021124800F054FCDE
:100A50000346002BF8D00F4800F08AFA00BF0D487B
:100A600000F094FA0346002BF9D10A4800F0A1FAED
:100A700000BF084800F0ABFA0346002BF9D1012172
:100A8000044800F025FC00BF1037BD4680BD00BF04
:100A9000000002400020014080B500AF952240F2E6
:100AA000E7310D4801F044FB00210B4801F056FBF3
:100AB0000021094801F066FB0021074801F076FBA0
:100AC0000121054801F020FB01220121024801F02B
:100AD00081FB00BF80BD00BF0010004080B500AFAB
:100AE000952240F2E7310D4801F022FB00210B482E
:100AF00001F034FB0021094801F044FB00210748C4
:100B000001F054FB0121054801F0FEFA0122012108
:100B1000024801F05FFB00BF80BD00BF0014004031
:100B200080B500AF012001F099FD002001F080FDAB
:100B300040F6B73001F06CFD01F05EFD00BF80BDF6
:100B400080B586B000AF134800F0B8FF3B1D1846D3
:100B500001F03BF80023BB810123FB7401237B746C
:100B60000123BB7400233B7402237B7501233B7577
:100B70003B1D1946074801F04FF80121064801F0D6
:100B8000AEF80521054801F0C0F800BF1837BD4692
:100B900080BD00BF08600240006002400461024066
:100BA00080B586B000AF154800F088FF3B1D1846A1
:100BB00001F00BF80023BB810023FB7401237B743D
:100BC0000023BB7400233B7400237B7500233B751B
:100BD0003B1D1946094801F01FF80121084801F0A2
:100BE0007EF81821074801F090F8012202210348FD
:100BF00000F0BAFF00BF1837BD4680BD1C60024040
:100C0000006002400861024080B586B000AF154820
:100C100000F054FF3B1D184600F0D7FF1023BB81A6
:100C20000023FB7401237B740023BB7400233B74FB
:100C300000237B7500233B753B1D1946094800F0D6
:100C4000EBFF0121084801F04AF81921074801F09B
:100C50005CF801220221034800F086FF00BF18372C
:100C6000BD4680BD30600240006002400C61024021
:100C700080B485B000AFF860B9607A607B807A8814
:100C8000FB685A60FB68BA689A60FB687A68DA6049
:100C900000BF1437BD4680BC704780B483B000AF3E
:100CA00000237B6000237B6002E07B6801337B6074
:100CB0007B684CF24F329342F7D900BF00BF0C372C
:100CC000BD4680BC7047000080B500AFFFF7E5FF70
:100CD000FFF7D4FCFFF72EFDFFF760FD00F04EF8A4
:100CE000FFF72EFF184A022318491948FFF7C0FFE3
:100CF0000121174800F055FFFFF752FF00230022A3
:100D000014491548FFF7B4FF0121134800F049FFCB
:100D1000FFF77AFF002300220E491048FFF7A8FFD3
:100D200001210E4800F03DFFFFF7ACFDFFF70AFE82
:100D3000FFF7F6FEFFF72AFEFFF75AFDFFF7ACFEBE
:100D4000FFF7CCFEFEE700BF200000204C20014052
:100D500008600240041001401C6002403060024004
:100D600080B400AF044B1B680133034A136000BF1B
:100D7000BD4680BC704700BF2800002080B586B00B
:100D800000AF00237B613B1D184600F01FFDBB68D0
:100D9000DB087B61002001F09BF97B69094AA2FB1B
:100DA00003239B09084A013B5360074B00229A60CA
:100DB000054B1B68044A43F00303136000BF183758
:100DC000BD4680BDD34D621010E000E080B500AF9D
:100DD000FFF7C6FF00BF80BD80B483B000AF78606E
:100DE0000B46FB70FB7803F00103D9B27A68936875
:100DF00061F30003936000BF0C37BD4680BC7047B1
:100E000080B483B000AF78607B6800221A707B6882
:100E100000225A707B6800229A707B680122DA7087
:100E200000BF0C37BD4680BC704780B483B000AFB4
:100E3000786039603B681B7803F00103D9B27A68A7
:100E4000536861F3082353603B685B7803F0010348
:100E5000D9B27A68936861F3410393603B689B78E9
:100E600003F00103D9B27A68936861F3CB239360EE
:100E70003B68DB78013BDBB203F01F03D9B27A6831
:100E8000D36A61F31853D3627B680922C3F8D02078
:100E900000BF0C37BD4680BC704780B483B000AF44
:100EA00078607B6800221A707B6800225A7000BF4D
:100EB0000C37BD4680BC704780B483B000AF78600B
:100EC0007B681B780B4A03F00F03D9B2536861F3B8
:100ED000134353607B685B78064A03F00103D9B281
:100EE000536861F3D753536000BF0C37BD4680BCD5
:100EF000704700BF0023014080B483B000AF78602A
:100F00000B46FB70FB7803F00303D9B27A68536891
:100F100061F31963536000BF0C37BD4680BC704756
:100F200080B483B000AF78600B46FB70FB7803F0B1
:100F30000103D9B27A68936861F30823936000BF14
:100F40000C37BD4680BC704780B483B000AF78607A
:100F50000B46FB70FB7803F00103D9B27A68936803
:100F600061F34923936000BF0C37BD4680BC7047D6
:100F700080B483B000AF78607A68936843F0080368
:100F8000936000BF0C37BD4680BC704780B483B00F
:100F900000AF78607B689B68C3F3C003DBB2002BB3
:100FA00001D0012300E0002318460C37BD4680BC69
:100FB000704780B483B000AF78607A68936843F07C
:100FC0000403936000BF0C37BD4680BC704780B4FB
:100FD00083B000AF78607B689B68C3F38003DBB2AB
:100FE000002B01D0012300E0002318460C37BD463A
:100FF00080BC704780B485B000AF78600846114669
:101000001A460346FB700B46BB7013467B70FB7899
:10101000092B1DD87B681B69FB60FA7813465B00BF
:101020001344072202FA03F3DB431A46FB6813401A
:10103000FB607978FA7813465B00134401FA03F3F6
:101040001A46FB681343FB607B68FA681A6145E047
:10105000FB78132B21D87B68DB68FB60FB78A3F15E
:101060000A0213465B001344072202FA03F3DB4330
:101070001A46FB681340FB607978FB78A3F10A02FB
:1010800013465B00134401FA03F31A46FB6813434B
:10109000FB607B68FA68DA6020E07B681B6DFB60B0
:1010A000FB78A3F1140213465B001344072202FAF3
:1010B00003F3DB431A46FB681340FB607978FB7847
:1010C000A3F1140213465B00134401FA03F31A461A
:1010D000FB681343FB607B68FA681A65BB78062BD4
:1010E0001FD87B685B6BFB60BB785A1E13469B0066
:1010F00013441F2202FA03F3DB431A46FB68134032
:10110000FB60F978BB785A1E13469B00134401FA22
:1011100003F31A46FB681343FB607B68FA685A6363
:10112000B2E0BB780C2B1FD87B681B6BFB60BB78D5
:10113000DA1F13469B0013441F2202FA03F3DB431A
:101140001A46FB681340FB60F978BB78DA1F134638
:101150009B00134401FA03F31A46FB681343FB6038
:101160007B68FA681A638FE0BB78102B21D87B6804
:10117000DB6AFB60BB78A3F10D0213469B001344AE
:101180001F2202FA03F3DB431A46FB681340FB609D
:10119000F978BB78A3F10D0213469B00134401FAC2
:1011A00003F31A46FB681343FB607B68FA68DA6254
:1011B0006AE0BB78162B21D87B685B6DFB60BB783F
:1011C000A3F1110213469B0013441F2202FA03F3FA
:1011D000DB431A46FB681340FB60F978BB78A3F148
:1011E000110213469B00134401FA03F31A46FB68ED
:1011F0001343FB607B68FA685A6545E0BB781C2B9B
:1012000021D87B689B6DFB60BB78A3F11702134666
:101210009B0013441F2202FA03F3DB431A46FB68C8
:101220001340FB60F978BB78A3F1170213469B00CB
:10123000134401FA03F31A46FB681343FB607B680F
:10124000FA689A6520E07B68DB6DFB60BB78A3F1F0
:101250001D0213469B0013441F2202FA03F3DB43D3
:101260001A46FB681340FB60F978BB78A3F11D02B6
:1012700013469B00134401FA03F31A46FB68134319
:10128000FB607B68FA68DA6500BF1437BD4680BC36
:10129000704780B483B000AF78600B46FB70134694
:1012A000BB70FB7803F00F03D9B27A68936861F3DF
:1012B0001B639360BB7803F00303D9B27A68936829
:1012C00061F31D73936000BF0C37BD4680BC70474F
:1012D00080B483B000AF78600B46FB70FB7803F0FE
:1012E0000103D9B27A68936861F39E73936000BF7B
:1012F0000C37BD4680BC704780B485B000AF7860C5
:101300000B46FB700023FB737B681A68FB78134065
:10131000002B02D10023FB7301E00123FB73FB7B55
:1013200018461437BD4680BC7047000080B500AF3A
:10133000012000F043F9214A136843F001031360D0
:1013400000BF1E4B1B68C3F34003DBB2012BF8D177
:101350001A4A93686FF30103936000BF174B9B68B1
:10136000C3F38103DBB2002BF8D1144B1B68134A83
:1013700023F0867323F480331360104B4FF08042C8
:101380009A600E4B0E4A5A600C4BD3F8A0300B4AB1
:1013900003F4A043C2F8A030084BD3F8A030074AAA
:1013A00043F47023C2F8A030044B4FF41F02DA60FC
:1013B000002000F003F900BF80BD00BF00380240EC
:1013C0000230030080B485B000AF78600023FB7367
:1013D0007B681B0C03F1804303F50E331A687B68AE
:1013E00003F01F03012101FA03F31A407B6803F0A5
:1013F0001F03012101FA03F39A4202D00023FB7379
:1014000001E00123FB73FB7B18461437BD4680BC0B
:10141000704780B483B000AF78600B46FB70FB78F8
:10142000012B16D17B681B0C03F1804303F50E33AF
:1014300019687B6803F01F0301229A407B681B0C2C
:1014400003F1804303F50E33184641EA02030360BB
:1014500017E07B681B0C03F1804303F50E3319681A
:101460007B6803F01F03012202FA03F3DA437B686F
:101470001B0C03F1804303F50E33184601EA020307
:10148000036000BF0C37BD4680BC704780B483B09A
:1014900000AF03460A46FB711346BB71FB79042B70
:1014A0003ED801A252F823F0BD140008D114000860
:1014B000E5140008F91400080D1500081B4ABB7953
:1014C00003F00103D9B2136861F30003136028E04D
:1014D000164ABB7903F00103D9B2136861F31043D4
:1014E00013601EE0114ABB7903F00103D9B21368FF
:1014F00061F31863136014E00C4ABB7903F0010335
:10150000D9B2136F61F3000313670AE0074ABB798E
:1015100003F00103D9B2536F61F30003536700E096
:1015200000BF00BF0C37BD4680BC7047003802408A
:1015300080B582B000AF0346FB71012000F03EF899
:10154000074AFB7903F00F03D9B2936861F30713DD
:101550009360002000F032F800BF0837BD4680BD20
:101560000038024080B483B000AF0346FB71074AE5
:10157000FB7903F00703D9B2936861F38C2393607E
:1015800000BF0C37BD4680BC704700BF003802402A
:1015900080B483B000AF0346FB71074AFB7903F0C8
:1015A0000703D9B2936861F34F33936000BF0C37E0
:1015B000BD4680BC704700BF0038024080B483B095
:1015C00000AF0346FB71FB79012B07D1094AD2F822
:1015D000A43043F03003C2F8A43006E0054AD2F844
:1015E000A4306FF30513C2F8A43000BF0C37BD461A
:1015F00080BC70470038024080B483B000AF03461F
:101600000A46FB711346BB71FB79022B1AD0022BE1
:1016100022DC002B02D0012B0AD01DE0114ABB793D
:1016200003F00303D9B2936E61F30103936613E0F1
:101630000C4ABB7903F00303D9B2936E61F38303C1
:10164000936609E0074ABB7903F00303D9B2936EAE
:1016500061F30513936600BF00BF0C37BD4680BC25
:10166000704700BF0038024080B485B000AF034629
:10167000FB710023FB73FB79022B14D0022B19DCC6
:10168000002B02D0012B07D014E00D4B9B6EC3F34F
:101690000103DBB2FB730DE0094B9B6EC3F38103C7
:1016A000DBB2FB7306E0064B9B6EC3F30113DBB2A8
:1016B000FB7300BFFB7B18461437BD4680BC7047E8
:1016C0000038024080B483B000AF0346FB71084A83
:1016D000FB7903F00103D9B2D2F8A03061F3CF3324
:1016E000C2F8A03000BF0C37BD4680BC704700BFB9
:1016F0000038024090B482B000AF0446084611465C
:101700001A462346FB710346BB800B467B8013467B
:10171000BB71FB79002B06D1174AD2F8A03043F4F5
:101720008053C2F8A030144AFB7903F00103D9B208
:10173000536861F3965353600F4ABB88C3F30803A1
:1017400099B2536861F38E1353600B4A7B8803F0A0
:101750000F03D9B2536861F303035360064ABB79A0
:1017600003F00703D9B2536861F31243536000BF1B
:101770000837BD4690BC70470038024080B582B043
:1017800000AF0346FB710120FFF718FF074AFB7902
:1017900003F00303D9B2936861F30103936000205F
:1017A000FFF70CFF00BF0837BD4680BD0038024080
:1017B00080B400AF044B9B68C3F38103DBB21846CF
:1017C000BD4680BC704700BF003802402DE9B04FD5
:1017D0008EB000AFF86000233B630023FB62002360
:1017E000BB6200237B6200237B6300233B620023F8
:1017F000FB610023BB61FFF7DBFF0346FB75FB7D4D
:10180000022B3DD0022B00F38B80002B02D0012B4A
:1018100025D085E0604BD3F8A030C3F38033DBB232
:10182000002B0BD05C4BD3F8A030C3F30033DBB2FA
:10183000002B03D0FB68594A1A6002E0FB68584A43
:101840001A60554BD3F8A430C3F30243DBB2BB613B
:10185000FB681A68BB69DA40FB681A6064E0FB68E1
:101860004F4A1A604C4BD3F8A430C3F3C243DBB2E7
:10187000BB61FB681A68BB69DA40FB681A6053E019
:10188000454B5B68C3F38053DBB27B62424B5B68C2
:10189000C3F388139BB23B633F4B5B68C3F3030303
:1018A000DBB2FB623C4B5B68C3F30243DBB21A461C
:1018B0003C4B9B5CBB627B6A002B02D1384B7B6349
:1018C00001E0374B7B637B6B00229A4693463B6B70
:1018D00000229846914608FB0BF20AFB09F31344D9
:1018E000AAFB08452B441D46FB6ABA6A02FB03F3B8
:1018F00000223B607A60D7E9002320462946FEF7A4
:101900008FFC02460B46104619464FF000024FF07E
:101910000003420842EAC1724B08FB681A6003E008
:10192000FB681F4A1A6000BF1B4B9B68C3F303137D
:10193000DBB23B621C4A3B6A13441B78FB61FB68C9
:101940001A68FB69DA40FB685A60134B9B68C3F363
:101950008223DBB23B62154A3B6A13441B78FB616E
:10196000FB685A68FB69DA40FB68DA600A4B9B68DF
:10197000C3F34233DBB23B620D4A3B6A13441B782C
:10198000FB61FB685A68FB69DA40FB689A6000BF3C
:101990003837BD46BDE8B08F00380240006CDC022D
:1019A00000127A0080290008882900089829000878
:1019B000A029000880B483B000AF03460A46FB713B
:1019C0001346BB71FB79012B02D0022B0AD013E026
:1019D0000C4ABB7903F00103D9B2136861F3000329
:1019E000136009E0074ABB7903F00103D9B2136819
:1019F00061F31043136000BF00BF0C37BD4680BCCD
:101A0000704700BF0074004080B483B000AF03464D
:101A10000A46FB711346BB71BB79002B0CBF012337
:101A20000023DBB2BB71FB79012B02D0022B0AD061
:101A300013E00C4ABB7903F00103D9B2136861F3D8
:101A40004103136009E0074ABB7903F00103D9B2EF
:101A5000136861F35143136000BF00BF0C37BD46EC
:101A600080BC70470074004080B483B000AF034670
:101A70000A46FB711346BB71FB79012B02D0022B86
:101A80000AD013E00C4ABB7903F00103D9B2136802
:101A900061F38203136009E0074ABB7903F0010395
:101AA000D9B2136861F39243136000BF00BF0C37D3
:101AB000BD4680BC704700BF0074004080B485B054
:101AC00000AF78600023FB607A6813686FF300034F
:101AD00013607B6800221A607B6800225A607B6872
:101AE00000229A607B680022DA607B68FB60FA68FB
:101AF00040F2FF631340B3F5C16F11D2174B5B681F
:101B0000FA68D2B2083A1649A1FB021212099200F1
:101B10000F2101FA02F21146104A0B43536017E0FD
:101B2000FA6840F2FF631340B3F5D16F10D20D4B4A
:101B30005B68FA68D2B2083A0949A1FB021212099D
:101B400092000F2101FA02F21146064A0B4353603C
:101B500000BF1437BD4680BC704700BF0060024024
:101B6000CDCCCCCC0064024080B485B000AFF8602E
:101B7000B9601346FB71FB79002B06D0FB681A682D
:101B8000BB681A43FB681A6006E0FB681A68BB680A
:101B9000DB431A40FB681A6000BF1437BD4680BCA7
:101BA000704780B483B000AF78600B46FB70FB7861
:101BB00003F00103D9B27A68136861F3000313607C
:101BC00000BF0C37BD4680BC704780B483B000AF07
:101BD00078607B6800221A607B6800225A607B680C
:101BE00000221A817B6800225A817B6800221A73C6
:101BF0007B6800225A737B6800229A737B680022FC
:101C0000DA737B6800221A747B6800225A7400BF62
:101C10000C37BD4680BC704780B483B000AF78609D
:101C200039607B681A684BF6EF7313407A6813606B
:101C30007B681B683A6812891A437B681A603B68A4
:101C40005B7C03F00303D9B27A68136861F30D3348
:101C500013603B68DB7B03F00303D9B27A68136837
:101C600061F38B2313603B689B7B03F00303D9B2C2
:101C70007A68136861F3092313603B685B7B03F0A8
:101C80000103D9B27A68136861F3C71313603B6824
:101C90001B7B03F00103D9B27A68136861F38613E2
:101CA00013603B681B7C03F00103D9B27A681368A8
:101CB00061F3451313603B6859897A68536861F38F
:101CC0000F0353603B681A687B689A603B685A68E8
:101CD0007B68DA6000BF0C37BD4680BC704780B4BB
:101CE00083B000AF78600B46FB70FB7803F0010314
:101CF000D9B27A68D2F8003161F30003C2F800313A
:101D000000BF0C37BD4680BC704780B483B000AFC5
:101D100078600B46FB70FB7803F07F03D9B27A68DA
:101D2000136861F30603136000BF0C37BD4680BC27
:101D3000704780B485B000AF786039600023BB8104
:101D40003B681B68FB8164E0FB8903F00103002B07
:101D500059D07B681B68BA895200032101FA02F24C
:101D6000D2431A407B681A607B681B683A68927994
:101D70001146BA89520001FA02F21A437B681A60CE
:101D80007B685B68BA89012101FA02F2D2431A40EA
:101D90007B685A607B685B683A6812791146BA8939
:101DA00001FA02F21A437B685A607B689B68BA8921
:101DB0005200032101FA02F2D2431A407B689A6072
:101DC0007B689B683A68D2791146BA89520001FA59
:101DD00002F21A437B689A607B68DB68BA8952001A
:101DE000032101FA02F2D2431A407B68DA607B6871
:101DF000DB683A6852791146BA89520001FA02F258
:101E00001A437B68DA60FB895B08FB81BB8901337D
:101E1000BB81FB89002B97D100BF00BF1437BD46A3
:101E200080BC704780B483B000AF78607B684FF6A9
:101E3000FF721A607B6800229A717B6800221A7117
:101E40007B6800225A717B680122DA7100BF0C376F
:101E5000BD4680BC704780B483B000AF78600B464D
:101E60007B807A887B689A6100BF0C37BD4680BC56
:101E7000704780B483B000AF78600B467B807A886F
:101E80007B689A6200BF0C37BD4680BC704780B447
:101E900085B000AF78600B46FB701346BB70002323
:101EA000FB600023BB60BA78FB7803F007039B005C
:101EB00002FA03F3FB60FB78DB08DBB2002B15D0E2
:101EC0007B685A6AFB7803F007039B000F2101FA35
:101ED00003F3DB431A407B685A627B685B6AFA68EB
:101EE0001343BB607B68BA685A6214E07B681A6A65
:101EF000FB7803F007039B000F2101FA03F3DB4398
:101F00001A407B681A627B681B6AFA681343BB60DD
:101F10007B68BA681A6200BF1437BD4680BC704740
:101F200080B485B000AF78607B6803F00703FB6086
:101F30000C4BDB68BB60BA684FF6FF031340BB6015
:101F4000FB681A02BB68134343F0BF6343F40033DA
:101F5000BB60044ABB68D36000BF1437BD4680BC79
:101F6000704700BF00ED00E080B400AF044BDB68B9
:101F70001B0A03F007031846BD4680BC704700BF2C
:101F800000ED00E080B483B000AF0346FB7197F929
:101F90000730002B0BDBFB7903F01F02064997F992
:101FA00007305B09012000FA02F241F8232000BF4C
:101FB0000C37BD4680BC704700E100E080B483B0C0
:101FC00000AF03463960FB7197F90730002B0ADB3D
:101FD0003B68DAB20C4997F907301201D2B20B44D0
:101FE00083F800230AE03B68DAB20849FB7903F082
:101FF0000F03043B1201D2B20B441A7600BF0C3718
:10200000BD4680BC704700BF00E100E000ED00E08D
:1020100080B489B000AFF860B9607A60FB6803F003
:102020000703FB61FB69C3F10703042B28BF0423EB
:10203000BB61FB690433062B02D9FB69033B00E05B
:1020400000237B614FF0FF32BB6902FA03F3DA43EE
:10205000BB681A407B699A404FF0FF317B6901FAF7
:1020600003F3D9437B680B40134318462437BD461E
:1020700080BC704780B586B000AF0346B9607A6017
:10208000FB7300237B61FFF76FFF03467A68B96833
:102090001846FFF7BDFF786197F90F307969184648
:1020A000FFF78CFF97F90F301846FFF76BFF00BF63
:1020B0001837BD4680BD80B582B000AF0346FB71C6
:1020C000FB791846FFF72CFF00BF0837BD4680BDDF
:1020D00080B483B000AF0346FB71FB79042B06D1BB
:1020E000084B1B68074A43F00403136005E0054BE7
:1020F0001B68044A23F00403136000BF0C37BD467D
:1021000080BC704710E000E080B483B000AF78601E
:102110000B46FB70FB7803F00103D9B27A681368B1
:1021200061F30003136000BF0C37BD4680BC7047ED
:1021300080B485B000AFF860B9607A60FB68BA68B7
:10214000DA62FB687A689A62FA68536943F00103BD
:10215000536100BF1437BD4680BC704780B483B064
:1021600000AF78600B46FB70FB7803F00703D9B231
:102170007A68136861F30613136000BF0C37BD461D
:1021800080BC704780B483B000AF78600B46FB70B2
:10219000FB7803F00103D9B27A68136861F3C713BF
:1021A000136000BF0C37BD4680BC704780B483B05D
:1021B00000AF78600B46FB70FB7803F00703D9B2E1
:1021C0007A68536861F30613536000BF0C37BD464D
:1021D00080BC704780B485B000AFF860B96013462A
:1021E000FB71FB79012B06D1FB68DA68BB681A43E7
:1021F000FB68DA6009E0FB79002B06D1FB68DA683E
:10220000BB68DB431A40FB68DA6000BF1437BD4689
:1022100080BC704780B58CB000AFF860B9601146E3
:102220001A460B46FB711346BB7107F1140318469F
:10223000FFF7CCFAFB687C4A93422CD10020FFF7D1
:1022400013FA034687F8273097F82730002B02D17E
:10225000FB69FB628AE097F82730012B02D17B698A
:10226000FB6283E097F82730032B03D14FF4004340
:10227000FB627BE06D4BFB626D4BD3F8A030C3F388
:102280000033DBB2012B71D1FA6A13465B001344B1
:102290005B00FB626AE0FB68664A93422CD1012036
:1022A000FFF7E2F9034687F8273097F82730002B2D
:1022B00002D13B6AFB6259E097F82730012B02D12B
:1022C0007B69FB6252E097F82730032B03D14FF470
:1022D0000043FB624AE0554BFB62554BD3F8A030FC
:1022E000C3F30033DBB2012B40D1FA6A13465B0023
:1022F00013445B00FB6239E0FB684F4A93422CD1E8
:102300000220FFF7B1F9034687F8273097F8273006
:10231000002B02D13B6AFB6228E097F82730012BA3
:1023200002D17B69FB6221E097F82730032B03D1B0
:102330004FF40043FB6219E03C4BFB623C4BD3F88B
:10234000A030C3F30033DBB2012B0FD1FA6A13467E
:102350005B0013445B00FB6208E0FB68374A934272
:1023600002D1FB69FB6201E03B6AFB62FA6A134639
:102370009B0013445B001A46BB68B2FBF3F3BB62DD
:10238000B96A2F4BA3FB0123DA0813469B001344C1
:102390005B00CA1A042A06D8BB6A294AA2FB032397
:1023A000DB08BB6206E0BB6A254AA2FB0323DB080D
:1023B0000133BB62BB6A99B2FA68936861F30F0399
:1023C0009360FB79022B0AD1FA68D36843F08053FB
:1023D000D360FA68D3686FF30C33D36017E0FB79EE
:1023E000002B0AD1FA68D3686FF31C73D360FA68C4
:1023F000D3686FF30C33D36009E0FA68D3686FF3E6
:102400001C73D360FA68D36843F48053D360BB79FC
:1024100003F00303D9B2FA68136961F30D33136152
:1024200000BF3037BD4680BD0010014000127A0069
:1024300000380240004400400048004000140140C1
:10244000CDCCCCCC80B483B000AF78600B46FB70B1
:10245000FB78002B0AD17A68D3686FF34923D360E5
:102460007A68D3686FF38A23D3601AE0FB78012B74
:102470000AD17A68D3686FF34923D3607A68D36846
:1024800043F48063D3600CE0FB78022B09D17A68B7
:10249000D36843F40073D3607A68D36843F48063ED
:1024A000D36000BF0C37BD4680BC704780B483B09A
:1024B00000AF78600B46FB70FB7803F00103D9B2E4
:1024C0007A68D36861F34D33D36000BF0C37BD46E3
:1024D00080BC704780B483B000AF78600B46FB705F
:1024E000FB7803F00103D9B27A68D36861F3C303C0
:1024F000D36000BF0C37BD4680BC704780B483B04A
:1025000000AF78600B46FB70FB7803F00103D9B293
:102510007A68D36861F38203D36000BF0C37BD468D
:1025200080BC704780B483B000AF78600B46FB700E
:10253000FB7803F00103D9B27A68536961F3C713DA
:10254000536100BF0C37BD4680BC704780B483B078
:1025500000AF78600B46FB70FB7803F00103D9B243
:102560007A68536961F38613536100BF0C37BD4627
:1025700080BC704780B483B000AF78600B46FB70BE
:10258000FB78002B0AD17A6853696FF308235361F3
:102590007A6853696FF34923536128E0FB78012B74
:1025A0000AD17A68536943F4807353617A68536936
:1025B0006FF3492353611AE0FB78022B0AD17A6842
:1025C00053696FF3082353617A68536943F40073C6
:1025D00053610CE0FB78032B09D17A68536943F40B
:1025E000807353617A68536943F40073536100BF89
:1025F0000C37BD4680BC704780B400AF034B4AF631
:10260000AA221A6000BFBD4680BC7047003000405F
:1026100080B483B000AF0346FB80044AFB8893601C
:1026200000BF0C37BD4680BC704700BF0030004083
:1026300080B483B000AF0346FB71074AFB7903F017
:102640000703D9B2536861F30203536000BF0C372C
:10265000BD4680BC704700BF0030004080B483B0EE
:1026600000AF0346FB71FB79002B03D1064B002220
:102670001A6003E0044B45F255521A6000BF0C3754
:10268000BD4680BC704700BF0030004080B500AF41
:102690000120FEF793FF234A136843F00103136000
:1026A00000BF204B1B68C3F34003DBB2012BF8D102
:1026B0001C4A93686FF30103936000BF194B9B683A
:1026C000C3F38103DBB2002BF8D1164B1B68154A0C
:1026D00023F0867323F480331360124B4FF0804253
:1026E0009A60104B104A5A600E4BD3F8A0300D4A36
:1026F00003F4A043C2F8A0300A4BD3F8A030094A33
:1027000043F47023C2F8A030064B4FF41F02DA6086
:102710000020FEF753FF054B4FF000629A6000BFA8
:1027200080BD00BF003802400230030000ED00E031
:102730002DE9B04F8CB000AF0023BB6200237B6259
:1027400000233B620023FB610023FB620023BB618B
:1027500000237B6100233B61FFF72AF80346FB73EC
:10276000FB7B022B3FD0022B00F38D80002B02D08D
:10277000012B26D087E0514BD3F8A030C3F3803330
:10278000DBB2002B0BD04D4BD3F8A030C3F300339A
:10279000DBB2002B03D04A4B4A4A1A6002E0484B96
:1027A000494A1A60454BD3F8A430C3F30243DBB265
:1027B0003B61434B1A683B6922FA03F3404A1360BA
:1027C00065E03F4B404A1A603C4BD3F8A430C3F35A
:1027D000C243DBB23B613A4B1A683B6922FA03F30E
:1027E000374A136053E0354B5B68C3F38053DBB269
:1027F000FB61324B5B68C3F388139BB2BB622F4B08
:102800005B68C3F30303DBB27B622C4B5B68C3F3EF
:102810000243DBB21A462D4B9B5C3B62FB69002BEB
:1028200002D1294BFB6201E0274BFB62FB6A0022CD
:102830009A469346BB6A00229846914608FB0BF2E3
:102840000AFB09F31344AAFB08452B441D467B6A87
:102850003A6A02FB03F300223B607A60D7E9002367
:1028600020462946FDF7DCFC02460B461046194679
:102870004FF000024FF00003420842EAC1724B08D9
:102880000F4B1A6003E00E4B0F4A1A6000BF0B4B50
:102890009B68C3F30313DBB2BB610D4ABB691344EE
:1028A0001B787B61064B1A687B6922FA03F3044AA2
:1028B000136000BF3037BD46BDE8B08F003802401E
:1028C00000000020006CDC0200127A00A829000839
:1028D000B0290008002103E00B4B5B584350043142
:1028E0000A480B4B42189A42F6D30A4A02E00023E8
:1028F00042F8043B084B9A42F9D3FFF7C7FE00F0B9
:102900000FF8FEF7E1F97047D02900080000002019
:1029100004000020040000202C000020FEE700003E
:1029200070B50D4D0D4C641BA4100026A64209D1B4
:102930000B4D0C4C00F018F8641BA4100026A642A6
:1029400005D170BD55F8043B98470136EEE755F8C0
:10295000043B98470136F2E7C8290008C829000857
:10296000C8290008CC290008F8B500BFF8BC08BC8D
:102970009E467047F8B500BFF8BC08BC9E4670473D
:102980000102040810200000000000000000000008
:102990000102030406070809000000000102030405
:1029A00000000000010203040102040810200000DE
:1029B00000000000000000000102030406070809EF
:0829C00090D8FF7F0100000028
:0429C80005020008FC
:0429CC00E10100081D
:0429D00000127A0077
:04000005080028D5F2
:00000001FF
